{"@jasmine-energy/core-contracts/src/JasmineMinter.sol":{"JasmineMinter":{"abi":[{"inputs":[{"internalType":"address","name":"_token","type":"address"},{"internalType":"address","name":"_oracle","type":"address"}],"stateMutability":"nonpayable","type":"constructor"},{"anonymous":false,"inputs":[{"indexed":false,"internalType":"address","name":"previousAdmin","type":"address"},{"indexed":false,"internalType":"address","name":"newAdmin","type":"address"}],"name":"AdminChanged","type":"event"},{"anonymous":false,"inputs":[{"indexed":true,"internalType":"address","name":"beacon","type":"address"}],"name":"BeaconUpgraded","type":"event"},{"anonymous":false,"inputs":[{"indexed":true,"internalType":"address","name":"newBridge","type":"address"}],"name":"BridgeChanged","type":"event"},{"anonymous":false,"inputs":[{"indexed":true,"internalType":"address","name":"owner","type":"address"},{"indexed":false,"internalType":"uint256[]","name":"ids","type":"uint256[]"},{"indexed":false,"internalType":"uint256[]","name":"amounts","type":"uint256[]"},{"indexed":false,"internalType":"bytes","name":"metadata","type":"bytes"}],"name":"BurnedBatch","type":"event"},{"anonymous":false,"inputs":[{"indexed":true,"internalType":"address","name":"owner","type":"address"},{"indexed":false,"internalType":"uint256","name":"id","type":"uint256"},{"indexed":false,"internalType":"uint256","name":"amount","type":"uint256"},{"indexed":false,"internalType":"bytes","name":"metadata","type":"bytes"}],"name":"BurnedSingle","type":"event"},{"anonymous":false,"inputs":[],"name":"EIP712DomainChanged","type":"event"},{"anonymous":false,"inputs":[{"indexed":false,"internalType":"uint8","name":"version","type":"uint8"}],"name":"Initialized","type":"event"},{"anonymous":false,"inputs":[{"indexed":true,"internalType":"bytes32","name":"nonce","type":"bytes32"}],"name":"NonceConsumed","type":"event"},{"anonymous":false,"inputs":[{"indexed":true,"internalType":"address","name":"previousOwner","type":"address"},{"indexed":true,"internalType":"address","name":"newOwner","type":"address"}],"name":"OwnershipTransferStarted","type":"event"},{"anonymous":false,"inputs":[{"indexed":true,"internalType":"address","name":"previousOwner","type":"address"},{"indexed":true,"internalType":"address","name":"newOwner","type":"address"}],"name":"OwnershipTransferred","type":"event"},{"anonymous":false,"inputs":[{"indexed":true,"internalType":"address","name":"implementation","type":"address"}],"name":"Upgraded","type":"event"},{"inputs":[],"name":"CONSUMENONCE_TYPEHASH","outputs":[{"internalType":"bytes32","name":"","type":"bytes32"}],"stateMutability":"view","type":"function"},{"inputs":[],"name":"DOMAIN_SEPARATOR","outputs":[{"internalType":"bytes32","name":"","type":"bytes32"}],"stateMutability":"view","type":"function"},{"inputs":[],"name":"MINTBATCH_TYPEHASH","outputs":[{"internalType":"bytes32","name":"","type":"bytes32"}],"stateMutability":"view","type":"function"},{"inputs":[],"name":"MINT_TYPEHASH","outputs":[{"internalType":"bytes32","name":"","type":"bytes32"}],"stateMutability":"view","type":"function"},{"inputs":[],"name":"acceptOwnership","outputs":[],"stateMutability":"nonpayable","type":"function"},{"inputs":[],"name":"bridge","outputs":[{"internalType":"address","name":"","type":"address"}],"stateMutability":"view","type":"function"},{"inputs":[{"internalType":"uint256","name":"id","type":"uint256"},{"internalType":"uint256","name":"amount","type":"uint256"},{"internalType":"bytes","name":"metadata","type":"bytes"}],"name":"burn","outputs":[],"stateMutability":"nonpayable","type":"function"},{"inputs":[{"internalType":"uint256[]","name":"ids","type":"uint256[]"},{"internalType":"uint256[]","name":"amounts","type":"uint256[]"},{"internalType":"bytes","name":"metadata","type":"bytes"}],"name":"burnBatch","outputs":[],"stateMutability":"nonpayable","type":"function"},{"inputs":[{"internalType":"bytes32","name":"nonce","type":"bytes32"},{"internalType":"bytes","name":"sig","type":"bytes"}],"name":"consumeNonce","outputs":[],"stateMutability":"nonpayable","type":"function"},{"inputs":[{"internalType":"bytes32","name":"","type":"bytes32"}],"name":"consumedNonces","outputs":[{"internalType":"bool","name":"","type":"bool"}],"stateMutability":"view","type":"function"},{"inputs":[],"name":"eip712Domain","outputs":[{"internalType":"bytes1","name":"fields","type":"bytes1"},{"internalType":"string","name":"name","type":"string"},{"internalType":"string","name":"version","type":"string"},{"internalType":"uint256","name":"chainId","type":"uint256"},{"internalType":"address","name":"verifyingContract","type":"address"},{"internalType":"bytes32","name":"salt","type":"bytes32"},{"internalType":"uint256[]","name":"extensions","type":"uint256[]"}],"stateMutability":"view","type":"function"},{"inputs":[{"internalType":"string","name":"initialName","type":"string"},{"internalType":"string","name":"initialVersion","type":"string"},{"internalType":"address","name":"initialBridge","type":"address"},{"internalType":"address","name":"initialOwner","type":"address"}],"name":"initialize","outputs":[],"stateMutability":"nonpayable","type":"function"},{"inputs":[{"internalType":"address","name":"receiver","type":"address"},{"internalType":"uint256","name":"id","type":"uint256"},{"internalType":"uint256","name":"amount","type":"uint256"},{"internalType":"bytes","name":"transferData","type":"bytes"},{"internalType":"bytes","name":"oracleData","type":"bytes"},{"internalType":"uint256","name":"deadline","type":"uint256"},{"internalType":"bytes32","name":"nonce","type":"bytes32"},{"internalType":"bytes","name":"sig","type":"bytes"}],"name":"mint","outputs":[],"stateMutability":"nonpayable","type":"function"},{"inputs":[{"internalType":"address","name":"receiver","type":"address"},{"internalType":"uint256[]","name":"ids","type":"uint256[]"},{"internalType":"uint256[]","name":"amounts","type":"uint256[]"},{"internalType":"bytes","name":"transferData","type":"bytes"},{"internalType":"bytes[]","name":"oracleDatas","type":"bytes[]"},{"internalType":"uint256","name":"deadline","type":"uint256"},{"internalType":"bytes32","name":"nonce","type":"bytes32"},{"internalType":"bytes","name":"sig","type":"bytes"}],"name":"mintBatch","outputs":[],"stateMutability":"nonpayable","type":"function"},{"inputs":[],"name":"name","outputs":[{"internalType":"string","name":"","type":"string"}],"stateMutability":"view","type":"function"},{"inputs":[],"name":"oracle","outputs":[{"internalType":"address","name":"","type":"address"}],"stateMutability":"view","type":"function"},{"inputs":[],"name":"owner","outputs":[{"internalType":"address","name":"","type":"address"}],"stateMutability":"view","type":"function"},{"inputs":[],"name":"pendingOwner","outputs":[{"internalType":"address","name":"","type":"address"}],"stateMutability":"view","type":"function"},{"inputs":[],"name":"proxiableUUID","outputs":[{"internalType":"bytes32","name":"","type":"bytes32"}],"stateMutability":"view","type":"function"},{"inputs":[],"name":"renounceOwnership","outputs":[],"stateMutability":"nonpayable","type":"function"},{"inputs":[{"internalType":"address","name":"newBridge","type":"address"}],"name":"setBridge","outputs":[],"stateMutability":"nonpayable","type":"function"},{"inputs":[],"name":"token","outputs":[{"internalType":"address","name":"","type":"address"}],"stateMutability":"view","type":"function"},{"inputs":[{"internalType":"address","name":"newOwner","type":"address"}],"name":"transferOwnership","outputs":[],"stateMutability":"nonpayable","type":"function"},{"inputs":[{"internalType":"address","name":"newImplementation","type":"address"}],"name":"upgradeTo","outputs":[],"stateMutability":"nonpayable","type":"function"},{"inputs":[{"internalType":"address","name":"newImplementation","type":"address"},{"internalType":"bytes","name":"data","type":"bytes"}],"name":"upgradeToAndCall","outputs":[],"stateMutability":"payable","type":"function"},{"inputs":[],"name":"version","outputs":[{"internalType":"string","name":"","type":"string"}],"stateMutability":"view","type":"function"}],"devdoc":{"custom:security-contact":"kai.aldag@jasmine.energy","details":"This contract is upgradeable. You can only append new contracts to the list of bases. You cannot delete bases or reorder them.","kind":"dev","methods":{"acceptOwnership()":{"details":"The new owner accepts the ownership transfer."},"burn(uint256,uint256,bytes)":{"details":"JasmineMinter must be approved to spend the caller's EATs for the operation to succeed. JasmineMinter indirectly authenticates that the caller owns the specified amount of the specified EATs.","params":{"amount":"The amount of EAT of the specified series to be redeemed/bridged-off.","id":"The series of EAT to be redeemed/bridged-off.","metadata":"Message to the bridge specifying whether to redeem or bridge-off. If the operation is a bridge-off, also specifies the destination of the EAC. JasmineMinter imposes no authentication or structure on the metadata. Malformed or otherwise invalid metadata is an unrecoverable error."}},"burnBatch(uint256[],uint256[],bytes)":{"details":"JasmineMinter must be approved to spend the caller's EATs for the operation to succeed. JasmineMinter indirectly authenticates that the caller owns the specified amount of the specified EATs.","params":{"amounts":"The amounts of EATs of the specified series to be redeemed/bridged-off.","ids":"The series of EATs to be redeemed/bridged-off.","metadata":"Message to the bridge specifying whether to redeem or bridge-off. If the operation is a bridge-off, also specifies the destination of the EAC. JasmineMinter imposes no authentication or structure on the metadata. Malformed or otherwise invalid metadata is an unrecoverable error."}},"eip712Domain()":{"details":"See {EIP-5267}. _Available since v4.9._"},"mint(address,uint256,uint256,bytes,bytes,uint256,bytes32,bytes)":{"params":{"amount":"The quantity of EATs to mint. The amount is part of the EIP712 minting authorization.","deadline":"The latest timestamp at which the mint authorization remains valid. After this time, attempts to mint will revert. The deadline is part of the EIP712 minting authorization.","id":"The identifier of the EAT series to mint. See JasmineOracle for the constraints on this value. The id is part of the EIP712 minting authorization.","nonce":"Used to prevent signature replay. The nonce is part of the EIP712 minting authorization. If consumedNonces(nonce), the minting authorization is invalid.","oracleData":"Authenticated EAT metadata passed to the oracle. Oracle updates are idempotent. The oracleData is part of the EIP712 minting authorization.","receiver":"The initial owner of the newly-minted EATs. If this is a contract, it must support IERC1155Receiver.onERC1155Received. Failure of the receiver callback does not invalidate the nonce. The receiver is NOT part of the EIP712 minting authorization.","sig":"Encoded ECDSA signature by `bridge` over the EIP712 minting authorization. Formed as the 65-byte concatenation of r, s, and v in that order. s must be in the lower half of the curve. v must be 27 or 28.","transferData":"Additional argument to be passed to `receiver`'s callback. Ignored if `receiver` is not a contract. The transferData is NOT part of the EIP712 minting authorization."}},"mintBatch(address,uint256[],uint256[],bytes,bytes[],uint256,bytes32,bytes)":{"params":{"amounts":"The quantities of EATs to mint. The amounts are part of the EIP712 minting authorization.","deadline":"The latest timestamp at which the mint authorization remains valid. After this time, attempts to mint will revert. The deadline is part of the EIP712 minting authorization.","ids":"The identifiers of the EAT series to mint. See JasmineOracle for the constraints on this value. The ids are part of the EIP712 minting authorization.","nonce":"Used to prevent signature replay. The nonce is part of the EIP712 minting authorization. If consumedNonces(nonce), the minting authorization is invalid.","oracleDatas":"Authenticated EAT metadatas passed to the oracle. Oracle updates are idempotent. The oracleData is part of the EIP712 minting authorization.","receiver":"The initial owner of the newly-minted EATs. If this is a contract, it must support IERC1155Receiver.onERC1155Received. Failure of the receiver callback does not invalidate the nonce. The receiver is NOT part of the EIP712 minting authorization.","sig":"Encoded ECDSA signature by `bridge` over the EIP712 minting authorization. Formed as the 65-byte concatenation of r, s, and v in that order. s must be in the lower half of the curve. v must be 27 or 28.","transferData":"Additional argument to be passed to `receiver`'s callback. Ignored if `receiver` is not a contract. The transferData is NOT part of the EIP712 minting authorization."}},"owner()":{"details":"Returns the address of the current owner."},"pendingOwner()":{"details":"Returns the address of the pending owner."},"proxiableUUID()":{"details":"Implementation of the ERC1822 {proxiableUUID} function. This returns the storage slot used by the implementation. It is used to validate the implementation's compatibility when performing an upgrade. IMPORTANT: A proxy pointing at a proxiable contract should not be considered proxiable itself, because this risks bricking a proxy that upgrades to it, by delegating to itself until out of gas. Thus it is critical that this function revert if invoked through a proxy. This is guaranteed by the `notDelegated` modifier."},"renounceOwnership()":{"details":"Leaves the contract without owner. It will not be possible to call `onlyOwner` functions. Can only be called by the current owner. NOTE: Renouncing ownership will leave the contract without an owner, thereby disabling any functionality that is only available to the owner."},"transferOwnership(address)":{"details":"Starts the ownership transfer of the contract to a new account. Replaces the pending transfer if there is one. Can only be called by the current owner."},"upgradeTo(address)":{"custom:oz-upgrades-unsafe-allow-reachable":"delegatecall","details":"Upgrade the implementation of the proxy to `newImplementation`. Calls {_authorizeUpgrade}. Emits an {Upgraded} event."},"upgradeToAndCall(address,bytes)":{"custom:oz-upgrades-unsafe-allow-reachable":"delegatecall","details":"Upgrade the implementation of the proxy to `newImplementation`, and subsequently execute the function call encoded in `data`. Calls {_authorizeUpgrade}. Emits an {Upgraded} event."}},"stateVariables":{"__gap":{"details":"Reserved storage gap. LINK: https://docs.openzeppelin.com/contracts/4.x/upgradeable#storage_gaps"},"bridge":{"details":"This is the wallet/EOA address that authorizes minting new EATs. This is a separate authority from the right to upgrade protocol contracts."},"consumedNonces":{"details":"This contract uses non-sequential nonces so that multiple mint authorizations can be issued concurrently. The downside to this approach is that it is slightly more involved to invalidate a nonce that has not yet been consumed."},"name":{"details":"This is the EIP712 domain name. It is exposed here for ease of introspection."},"version":{"details":"This is the EIP712 domain version. It is exposed here for ease of introspection."}},"version":1},"evm":{"bytecode":{"linkReferences":{},"object":"60e0604052306080523480156200001557600080fd5b5060405162002fb038038062002fb083398101604081905262000038916200006d565b6001600160a01b0391821660a0521660c052620000a5565b80516001600160a01b03811681146200006857600080fd5b919050565b600080604083850312156200008157600080fd5b6200008c8362000050565b91506200009c6020840162000050565b90509250929050565b60805160a05160c051612e5d6200015360003960008181610310015281816109010152610ced01526000818161053d015281816109c401528181610d6e015281816110cf015281816111f70152818161166201526117bc015260008181610a5601528181610a9601528181610df001528181610e3001528181610ec30152818161100c0152818161104c0152818161142401528181611464015281816115a701526115e70152612e5d6000f3fe6080604052600436106101a15760003560e01c806384b0196e116100e1578063e090fa3c1161008a578063e922ba7911610064578063e922ba79146104b7578063f2fde38b146104d7578063f76fc35e146104f7578063fc0c546a1461052b57600080fd5b8063e090fa3c14610458578063e30c397814610478578063e78cea921461049657600080fd5b80638f15b414116100bb5780638f15b414146103d0578063b3c9ed59146103f0578063ce89a0401461042457600080fd5b806384b0196e1461036a5780638da5cb5b146103925780638dd14802146103b057600080fd5b80634f1ef2861161014e578063715018a611610128578063715018a6146102d457806379ba5097146102e95780637dc0d1d0146102fe57806380a5a3711461034a57600080fd5b80634f1ef2861461029757806352d1902d146102aa57806354fd4d50146102bf57600080fd5b80633644e5151161017f5780633644e515146102345780633659cfe61461025757806336b092271461027757600080fd5b806306fdde03146101a657806310dbebce146101d1578063163c50ac14610212575b600080fd5b3480156101b257600080fd5b506101bb61055f565b6040516101c8919061237a565b60405180910390f35b3480156101dd57600080fd5b506102026101ec36600461238d565b6101326020526000908152604090205460ff1681565b60405190151581526020016101c8565b34801561021e57600080fd5b5061023261022d366004612588565b6105ee565b005b34801561024057600080fd5b50610249610a3d565b6040519081526020016101c8565b34801561026357600080fd5b5061023261027236600461267e565b610a4c565b34801561028357600080fd5b50610232610292366004612699565b610b2b565b6102326102a5366004612718565b610de6565b3480156102b657600080fd5b50610249610eb6565b3480156102cb57600080fd5b506101bb610f69565b3480156102e057600080fd5b50610232610f77565b3480156102f557600080fd5b50610232610f8b565b34801561030a57600080fd5b506103327f000000000000000000000000000000000000000000000000000000000000000081565b6040516001600160a01b0390911681526020016101c8565b34801561035657600080fd5b50610232610365366004612766565b611002565b34801561037657600080fd5b5061037f611261565b6040516101c897969594939291906127f1565b34801561039e57600080fd5b506033546001600160a01b0316610332565b3480156103bc57600080fd5b506102326103cb36600461267e565b611307565b3480156103dc57600080fd5b506102326103eb36600461285f565b61135a565b3480156103fc57600080fd5b506102497f47b77ff24f11d889436314cd63fdefeb0b0f9531da691f5627f546c47e5f002c81565b34801561043057600080fd5b506102497fb0426304b718d58e27f05888d480cc1c9c956afaab3ba8d45afcce29f30d644881565b34801561046457600080fd5b506102326104733660046128e4565b61159d565b34801561048457600080fd5b506065546001600160a01b0316610332565b3480156104a257600080fd5b5061012f54610332906001600160a01b031681565b3480156104c357600080fd5b506102326104d2366004612962565b6117fd565b3480156104e357600080fd5b506102326104f236600461267e565b61192c565b34801561050357600080fd5b506102497f7ed266a150d7268b399e18c9036ad7ff35a4bf8f1ddf162234a3684916e16dc881565b34801561053757600080fd5b506103327f000000000000000000000000000000000000000000000000000000000000000081565b610130805461056d90612993565b80601f016020809104026020016040519081016040528092919081815260200182805461059990612993565b80156105e65780601f106105bb576101008083540402835291602001916105e6565b820191906000526020600020905b8154815290600101906020018083116105c957829003601f168201915b505050505081565b835187511461066a5760405162461bcd60e51b815260206004820152603260248201527f4a61736d696e654d696e7465723a2069647320616e64206f7261636c6544617460448201527f6173206c656e677468206d69736d61746368000000000000000000000000000060648201526084015b60405180910390fd5b824211156106b35760405162461bcd60e51b815260206004820152601660248201527512985cdb5a5b99535a5b9d195c8e88195e1c1a5c995960521b6044820152606401610661565b6000845167ffffffffffffffff8111156106cf576106cf6123c2565b6040519080825280602002602001820160405280156106f8578160200160208202803683370190505b50905060005b855181101561075a57858181518110610719576107196129cd565b60200260200101518051906020012060001c82828151811061073d5761073d6129cd565b602090810291909101015280610752816129e3565b9150506106fe565b508751600590811b6020808b01919091208951831b8a830120845190931b84830120604080517f47b77ff24f11d889436314cd63fdefeb0b0f9531da691f5627f546c47e5f002c8186015233818301526060810193909352608083019490945260a082015260c0810187905260e080820187905283518083039091018152610100909101909252815191012061012f546001600160a01b03166108056107ff8361199d565b856119d0565b6001600160a01b03161461082b5760405162461bcd60e51b815260040161066190612a0a565b6000848152610132602052604090205460ff161561088b5760405162461bcd60e51b815260206004820152601b60248201527f4a61736d696e654d696e7465723a206e6f6e6365207265706c617900000000006044820152606401610661565b60008481526101326020526040808220805460ff191660011790555185917f70cd0c14252edef0440009634a4e86036a1747c9fbe7e4c2c05b8b62f9c410e291a260005b86518110156109ac5760008782815181106108ec576108ec6129cd565b602002602001015190508051600014610999577f00000000000000000000000000000000000000000000000000000000000000006001600160a01b03166307e3810c8c8481518110610940576109406129cd565b6020026020010151836040518363ffffffff1660e01b8152600401610966929190612a53565b600060405180830381600087803b15801561098057600080fd5b505af1158015610994573d6000803e3d6000fd5b505050505b50806109a4816129e3565b9150506108cf565b50604051630fbfeffd60e11b81526001600160a01b037f00000000000000000000000000000000000000000000000000000000000000001690631f7fdffa906109ff908d908d908d908d90600401612a6c565b600060405180830381600087803b158015610a1957600080fd5b505af1158015610a2d573d6000803e3d6000fd5b5050505050505050505050505050565b6000610a476119f4565b905090565b6001600160a01b037f0000000000000000000000000000000000000000000000000000000000000000163003610a945760405162461bcd60e51b815260040161066190612abf565b7f00000000000000000000000000000000000000000000000000000000000000006001600160a01b0316610add600080516020612de1833981519152546001600160a01b031690565b6001600160a01b031614610b035760405162461bcd60e51b815260040161066190612b0b565b610b0c816119fe565b60408051600080825260208201909252610b2891839190611a06565b50565b82421115610b745760405162461bcd60e51b815260206004820152601660248201527512985cdb5a5b99535a5b9d195c8e88195e1c1a5c995960521b6044820152606401610661565b8351602080860191909120604080517f7ed266a150d7268b399e18c9036ad7ff35a4bf8f1ddf162234a3684916e16dc8818501523381830152606081018b9052608081018a905260a081019290925260c0820186905260e0808301869052815180840390910181526101009092019052805191012061012f546001600160a01b0316610c08610c028361199d565b846119d0565b6001600160a01b031614610c2e5760405162461bcd60e51b815260040161066190612a0a565b6000838152610132602052604090205460ff1615610c8e5760405162461bcd60e51b815260206004820152601b60248201527f4a61736d696e654d696e7465723a206e6f6e6365207265706c617900000000006044820152606401610661565b60008381526101326020526040808220805460ff191660011790555184917f70cd0c14252edef0440009634a4e86036a1747c9fbe7e4c2c05b8b62f9c410e291a2845115610d57576040516301f8e04360e21b81526001600160a01b037f000000000000000000000000000000000000000000000000000000000000000016906307e3810c90610d24908b908990600401612a53565b600060405180830381600087803b158015610d3e57600080fd5b505af1158015610d52573d6000803e3d6000fd5b505050505b60405163731133e960e01b81526001600160a01b037f0000000000000000000000000000000000000000000000000000000000000000169063731133e990610da9908c908c908c908c90600401612b57565b600060405180830381600087803b158015610dc357600080fd5b505af1158015610dd7573d6000803e3d6000fd5b50505050505050505050505050565b6001600160a01b037f0000000000000000000000000000000000000000000000000000000000000000163003610e2e5760405162461bcd60e51b815260040161066190612abf565b7f00000000000000000000000000000000000000000000000000000000000000006001600160a01b0316610e77600080516020612de1833981519152546001600160a01b031690565b6001600160a01b031614610e9d5760405162461bcd60e51b815260040161066190612b0b565b610ea6826119fe565b610eb282826001611a06565b5050565b6000306001600160a01b037f00000000000000000000000000000000000000000000000000000000000000001614610f565760405162461bcd60e51b815260206004820152603860248201527f555550535570677261646561626c653a206d757374206e6f742062652063616c60448201527f6c6564207468726f7567682064656c656761746563616c6c00000000000000006064820152608401610661565b50600080516020612de183398151915290565b610131805461056d90612993565b610f7f611b76565b610f896000611bd0565b565b60655433906001600160a01b03168114610ff95760405162461bcd60e51b815260206004820152602960248201527f4f776e61626c6532537465703a2063616c6c6572206973206e6f7420746865206044820152683732bb9037bbb732b960b91b6064820152608401610661565b610b2881611bd0565b6001600160a01b037f000000000000000000000000000000000000000000000000000000000000000016300361104a5760405162461bcd60e51b815260040161066190612abf565b7f00000000000000000000000000000000000000000000000000000000000000006001600160a01b0316611093600080516020612de1833981519152546001600160a01b031690565b6001600160a01b0316146110b95760405162461bcd60e51b815260040161066190612b0b565b6040516303a6b01160e61b8152600481018490527f00000000000000000000000000000000000000000000000000000000000000006001600160a01b03169063e9ac044090602401602060405180830381865afa15801561111e573d6000803e3d6000fd5b505050506040513d601f19601f820116820180604052508101906111429190612b85565b1561118f5760405162461bcd60e51b815260206004820152601c60248201527f4a61736d696e654d696e7465723a2066726f7a656e20736572696573000000006044820152606401610661565b336001600160a01b03167f422475c8264e559fa982d4f66450a9bd1d5bee42cf8a98f6e032d1715b8595528484846040516111cc93929190612ba7565b60405180910390a2604051637a94c56560e11b815233600482015260248101849052604481018390527f00000000000000000000000000000000000000000000000000000000000000006001600160a01b03169063f5298aca906064015b600060405180830381600087803b15801561124457600080fd5b505af1158015611258573d6000803e3d6000fd5b50505050505050565b60006060806000806000606060fb546000801b148015611281575060fc54155b6112cd5760405162461bcd60e51b815260206004820152601560248201527f4549503731323a20556e696e697469616c697a656400000000000000000000006044820152606401610661565b6112d5611be9565b6112dd611c7b565b60408051600080825260208201909252600f60f81b9b939a50919850469750309650945092509050565b61130f611b76565b61012f80546001600160a01b0319166001600160a01b0383169081179091556040517f9775531310b2880b61484ed85cbb0b491c8fde3a07f289c63b9255178279449790600090a250565b600054610100900460ff161580801561137a5750600054600160ff909116105b806113945750303b158015611394575060005460ff166001145b6113f75760405162461bcd60e51b815260206004820152602e60248201527f496e697469616c697a61626c653a20636f6e747261637420697320616c72656160448201526d191e481a5b9a5d1a585b1a5e995960921b6064820152608401610661565b6000805460ff19166001179055801561141a576000805461ff0019166101001790555b6001600160a01b037f00000000000000000000000000000000000000000000000000000000000000001630036114625760405162461bcd60e51b815260040161066190612abf565b7f00000000000000000000000000000000000000000000000000000000000000006001600160a01b03166114ab600080516020612de1833981519152546001600160a01b031690565b6001600160a01b0316146114d15760405162461bcd60e51b815260040161066190612b0b565b6114da82611bd0565b6114e2611c8a565b6114ec8585611cb1565b6101306114f98682612c1d565b506101316115078582612c1d565b5061012f80546001600160a01b0319166001600160a01b0385169081179091556040517f9775531310b2880b61484ed85cbb0b491c8fde3a07f289c63b9255178279449790600090a28015611596576000805461ff0019169055604051600181527f7f26b83ff96e1f2b6a682f133852f6798a09c465da95921460cefb38474024989060200160405180910390a15b5050505050565b6001600160a01b037f00000000000000000000000000000000000000000000000000000000000000001630036115e55760405162461bcd60e51b815260040161066190612abf565b7f00000000000000000000000000000000000000000000000000000000000000006001600160a01b031661162e600080516020612de1833981519152546001600160a01b031690565b6001600160a01b0316146116545760405162461bcd60e51b815260040161066190612b0b565b60005b8351811015611767577f00000000000000000000000000000000000000000000000000000000000000006001600160a01b031663e9ac04408583815181106116a1576116a16129cd565b60200260200101516040518263ffffffff1660e01b81526004016116c791815260200190565b602060405180830381865afa1580156116e4573d6000803e3d6000fd5b505050506040513d601f19601f820116820180604052508101906117089190612b85565b156117555760405162461bcd60e51b815260206004820152601c60248201527f4a61736d696e654d696e7465723a2066726f7a656e20736572696573000000006044820152606401610661565b8061175f816129e3565b915050611657565b50336001600160a01b03167ff989b967ab06cb95ffa87edfc41b030132a3a687e55e92faf63512234d18e28f8484846040516117a593929190612cdd565b60405180910390a2604051631ac8311560e21b81527f00000000000000000000000000000000000000000000000000000000000000006001600160a01b031690636b20c4549061122a90339087908790600401612d16565b604080517fb0426304b718d58e27f05888d480cc1c9c956afaab3ba8d45afcce29f30d64486020808301919091528183018590528251808303840181526060909201909252805191012061012f546001600160a01b0316611860610c028361199d565b6001600160a01b0316146118865760405162461bcd60e51b815260040161066190612a0a565b6000838152610132602052604090205460ff16156118e65760405162461bcd60e51b815260206004820152601b60248201527f4a61736d696e654d696e7465723a206e6f6e6365207265706c617900000000006044820152606401610661565b60008381526101326020526040808220805460ff191660011790555184917f70cd0c14252edef0440009634a4e86036a1747c9fbe7e4c2c05b8b62f9c410e291a2505050565b611934611b76565b606580546001600160a01b0383166001600160a01b031990911681179091556119656033546001600160a01b031690565b6001600160a01b03167f38d16b8cac22d99fc7c124b9cd0de2d3fa1faef420bfe791d8c362d765e2270060405160405180910390a350565b60006119ca6119aa6119f4565b8360405161190160f01b8152600281019290925260228201526042902090565b92915050565b60008060006119df8585611ce2565b915091506119ec81611d27565b509392505050565b6000610a47611e71565b610b28611b76565b7f4910fdfa16fed3260ed0e7147f7cc6da11a60208b5b9406d12a635614ffd91435460ff1615611a3e57611a3983611ee5565b505050565b826001600160a01b03166352d1902d6040518163ffffffff1660e01b8152600401602060405180830381865afa925050508015611a98575060408051601f3d908101601f19168201909252611a9591810190612d4a565b60015b611afb5760405162461bcd60e51b815260206004820152602e60248201527f45524331393637557067726164653a206e657720696d706c656d656e7461746960448201526d6f6e206973206e6f74205555505360901b6064820152608401610661565b600080516020612de18339815191528114611b6a5760405162461bcd60e51b815260206004820152602960248201527f45524331393637557067726164653a20756e737570706f727465642070726f786044820152681a58589b195555525160ba1b6064820152608401610661565b50611a39838383611f81565b6033546001600160a01b03163314610f895760405162461bcd60e51b815260206004820181905260248201527f4f776e61626c653a2063616c6c6572206973206e6f7420746865206f776e65726044820152606401610661565b606580546001600160a01b0319169055610b2881611fac565b606060fd8054611bf890612993565b80601f0160208091040260200160405190810160405280929190818152602001828054611c2490612993565b8015611c715780601f10611c4657610100808354040283529160200191611c71565b820191906000526020600020905b815481529060010190602001808311611c5457829003601f168201915b5050505050905090565b606060fe8054611bf890612993565b600054610100900460ff16610f895760405162461bcd60e51b815260040161066190612d63565b600054610100900460ff16611cd85760405162461bcd60e51b815260040161066190612d63565b610eb28282611ffe565b6000808251604103611d185760208301516040840151606085015160001a611d0c8782858561204d565b94509450505050611d20565b506000905060025b9250929050565b6000816004811115611d3b57611d3b612dae565b03611d435750565b6001816004811115611d5757611d57612dae565b03611da45760405162461bcd60e51b815260206004820152601860248201527f45434453413a20696e76616c6964207369676e617475726500000000000000006044820152606401610661565b6002816004811115611db857611db8612dae565b03611e055760405162461bcd60e51b815260206004820152601f60248201527f45434453413a20696e76616c6964207369676e6174757265206c656e677468006044820152606401610661565b6003816004811115611e1957611e19612dae565b03610b285760405162461bcd60e51b815260206004820152602260248201527f45434453413a20696e76616c6964207369676e6174757265202773272076616c604482015261756560f01b6064820152608401610661565b60007f8b73c3c69bb8fe3d512ecc4cf759cc79239f7b179b0ffacaa9a75d522b39400f611e9c612111565b611ea461216a565b60408051602081019490945283019190915260608201524660808201523060a082015260c00160405160208183030381529060405280519060200120905090565b6001600160a01b0381163b611f525760405162461bcd60e51b815260206004820152602d60248201527f455243313936373a206e657720696d706c656d656e746174696f6e206973206e60448201526c1bdd08184818dbdb9d1c9858dd609a1b6064820152608401610661565b600080516020612de183398151915280546001600160a01b0319166001600160a01b0392909216919091179055565b611f8a8361219b565b600082511180611f975750805b15611a3957611fa683836121db565b50505050565b603380546001600160a01b038381166001600160a01b0319831681179093556040519116919082907f8be0079c531659141344cd1fd0a4f28419497f9722a3daafe3b4186f6b6457e090600090a35050565b600054610100900460ff166120255760405162461bcd60e51b815260040161066190612d63565b60fd6120318382612c1d565b5060fe61203e8282612c1d565b5050600060fb81905560fc5550565b6000807f7fffffffffffffffffffffffffffffff5d576e7357a4501ddfe92f46681b20a08311156120845750600090506003612108565b6040805160008082526020820180845289905260ff881692820192909252606081018690526080810185905260019060a0016020604051602081039080840390855afa1580156120d8573d6000803e3d6000fd5b5050604051601f1901519150506001600160a01b03811661210157600060019250925050612108565b9150600090505b94509492505050565b60008061211c611be9565b805190915015612133578051602090910120919050565b60fb5480156121425792915050565b7fc5d2460186f7233c927e7db2dcc703c0e500b653ca82273b7bfad8045d85a4709250505090565b600080612175611c7b565b80519091501561218c578051602090910120919050565b60fc5480156121425792915050565b6121a481611ee5565b6040516001600160a01b038216907fbc7cd75a20ee27fd9adebab32041f755214dbc6bffa90cc0225b39da2e5c2d3b90600090a250565b60606122008383604051806060016040528060278152602001612e0160279139612207565b9392505050565b6060600080856001600160a01b0316856040516122249190612dc4565b600060405180830381855af49150503d806000811461225f576040519150601f19603f3d011682016040523d82523d6000602084013e612264565b606091505b50915091506122758683838761227f565b9695505050505050565b606083156122ee5782516000036122e7576001600160a01b0385163b6122e75760405162461bcd60e51b815260206004820152601d60248201527f416464726573733a2063616c6c20746f206e6f6e2d636f6e74726163740000006044820152606401610661565b50816122f8565b6122f88383612300565b949350505050565b8151156123105781518083602001fd5b8060405162461bcd60e51b8152600401610661919061237a565b60005b8381101561234557818101518382015260200161232d565b50506000910152565b6000815180845261236681602086016020860161232a565b601f01601f19169290920160200192915050565b602081526000612200602083018461234e565b60006020828403121561239f57600080fd5b5035919050565b80356001600160a01b03811681146123bd57600080fd5b919050565b634e487b7160e01b600052604160045260246000fd5b604051601f8201601f1916810167ffffffffffffffff81118282101715612401576124016123c2565b604052919050565b600067ffffffffffffffff821115612423576124236123c2565b5060051b60200190565b600082601f83011261243e57600080fd5b8135602061245361244e83612409565b6123d8565b82815260059290921b8401810191818101908684111561247257600080fd5b8286015b8481101561248d5780358352918301918301612476565b509695505050505050565b600082601f8301126124a957600080fd5b813567ffffffffffffffff8111156124c3576124c36123c2565b6124d6601f8201601f19166020016123d8565b8181528460208386010111156124eb57600080fd5b816020850160208301376000918101602001919091529392505050565b600082601f83011261251957600080fd5b8135602061252961244e83612409565b82815260059290921b8401810191818101908684111561254857600080fd5b8286015b8481101561248d57803567ffffffffffffffff81111561256c5760008081fd5b61257a8986838b0101612498565b84525091830191830161254c565b600080600080600080600080610100898b0312156125a557600080fd5b6125ae896123a6565b9750602089013567ffffffffffffffff808211156125cb57600080fd5b6125d78c838d0161242d565b985060408b01359150808211156125ed57600080fd5b6125f98c838d0161242d565b975060608b013591508082111561260f57600080fd5b61261b8c838d01612498565b965060808b013591508082111561263157600080fd5b61263d8c838d01612508565b955060a08b0135945060c08b0135935060e08b013591508082111561266157600080fd5b5061266e8b828c01612498565b9150509295985092959890939650565b60006020828403121561269057600080fd5b612200826123a6565b600080600080600080600080610100898b0312156126b657600080fd5b6126bf896123a6565b97506020890135965060408901359550606089013567ffffffffffffffff808211156126ea57600080fd5b6126f68c838d01612498565b965060808b013591508082111561270c57600080fd5b61263d8c838d01612498565b6000806040838503121561272b57600080fd5b612734836123a6565b9150602083013567ffffffffffffffff81111561275057600080fd5b61275c85828601612498565b9150509250929050565b60008060006060848603121561277b57600080fd5b8335925060208401359150604084013567ffffffffffffffff8111156127a057600080fd5b6127ac86828701612498565b9150509250925092565b600081518084526020808501945080840160005b838110156127e6578151875295820195908201906001016127ca565b509495945050505050565b60ff60f81b8816815260e06020820152600061281060e083018961234e565b8281036040840152612822818961234e565b90508660608401526001600160a01b03861660808401528460a084015282810360c084015261285181856127b6565b9a9950505050505050505050565b6000806000806080858703121561287557600080fd5b843567ffffffffffffffff8082111561288d57600080fd5b61289988838901612498565b955060208701359150808211156128af57600080fd5b506128bc87828801612498565b9350506128cb604086016123a6565b91506128d9606086016123a6565b905092959194509250565b6000806000606084860312156128f957600080fd5b833567ffffffffffffffff8082111561291157600080fd5b61291d8783880161242d565b9450602086013591508082111561293357600080fd5b61293f8783880161242d565b9350604086013591508082111561295557600080fd5b506127ac86828701612498565b6000806040838503121561297557600080fd5b82359150602083013567ffffffffffffffff81111561275057600080fd5b600181811c908216806129a757607f821691505b6020821081036129c757634e487b7160e01b600052602260045260246000fd5b50919050565b634e487b7160e01b600052603260045260246000fd5b600060018201612a0357634e487b7160e01b600052601160045260246000fd5b5060010190565b60208082526029908201527f4a61736d696e654d696e7465723a20626164207369676e61747572652f77726f60408201526837339039b4b3b732b960b91b606082015260800190565b8281526040602082015260006122f8604083018461234e565b6001600160a01b0385168152608060208201526000612a8e60808301866127b6565b8281036040840152612aa081866127b6565b90508281036060840152612ab4818561234e565b979650505050505050565b6020808252602c908201527f46756e6374696f6e206d7573742062652063616c6c6564207468726f7567682060408201526b19195b1959d85d1958d85b1b60a21b606082015260800190565b6020808252602c908201527f46756e6374696f6e206d7573742062652063616c6c6564207468726f7567682060408201526b6163746976652070726f787960a01b606082015260800190565b6001600160a01b0385168152836020820152826040820152608060608201526000612275608083018461234e565b600060208284031215612b9757600080fd5b8151801515811461220057600080fd5b838152826020820152606060408201526000612bc6606083018461234e565b95945050505050565b601f821115611a3957600081815260208120601f850160051c81016020861015612bf65750805b601f850160051c820191505b81811015612c1557828155600101612c02565b505050505050565b815167ffffffffffffffff811115612c3757612c376123c2565b612c4b81612c458454612993565b84612bcf565b602080601f831160018114612c805760008415612c685750858301515b600019600386901b1c1916600185901b178555612c15565b600085815260208120601f198616915b82811015612caf57888601518255948401946001909101908401612c90565b5085821015612ccd5787850151600019600388901b60f8161c191681555b5050505050600190811b01905550565b606081526000612cf060608301866127b6565b8281036020840152612d0281866127b6565b90508281036040840152612275818561234e565b6001600160a01b0384168152606060208201526000612d3860608301856127b6565b828103604084015261227581856127b6565b600060208284031215612d5c57600080fd5b5051919050565b6020808252602b908201527f496e697469616c697a61626c653a20636f6e7472616374206973206e6f74206960408201526a6e697469616c697a696e6760a81b606082015260800190565b634e487b7160e01b600052602160045260246000fd5b60008251612dd681846020870161232a565b919091019291505056fe360894a13ba1a3210667c828492db98dca3e2076cc3735a920a3ca505d382bbc416464726573733a206c6f772d6c6576656c2064656c65676174652063616c6c206661696c6564a2646970667358221220c774e12d00970285a12640d181effde365591c9663ca81c67b84bba042a5141e64736f6c63430008110033","opcodes":"PUSH1 0xE0 PUSH1 0x40 MSTORE ADDRESS PUSH1 0x80 MSTORE CALLVALUE DUP1 ISZERO PUSH3 0x15 JUMPI PUSH1 0x0 DUP1 REVERT JUMPDEST POP PUSH1 0x40 MLOAD PUSH3 0x2FB0 CODESIZE SUB DUP1 PUSH3 0x2FB0 DUP4 CODECOPY DUP2 ADD PUSH1 0x40 DUP2 SWAP1 MSTORE PUSH3 0x38 SWAP2 PUSH3 0x6D JUMP JUMPDEST PUSH1 0x1 PUSH1 0x1 PUSH1 0xA0 SHL SUB SWAP2 DUP3 AND PUSH1 0xA0 MSTORE AND PUSH1 0xC0 MSTORE PUSH3 0xA5 JUMP JUMPDEST DUP1 MLOAD PUSH1 0x1 PUSH1 0x1 PUSH1 0xA0 SHL SUB DUP2 AND DUP2 EQ PUSH3 0x68 JUMPI PUSH1 0x0 DUP1 REVERT JUMPDEST SWAP2 SWAP1 POP JUMP JUMPDEST PUSH1 0x0 DUP1 PUSH1 0x40 DUP4 DUP6 SUB SLT ISZERO PUSH3 0x81 JUMPI PUSH1 0x0 DUP1 REVERT JUMPDEST PUSH3 0x8C DUP4 PUSH3 0x50 JUMP JUMPDEST SWAP2 POP PUSH3 0x9C PUSH1 0x20 DUP5 ADD PUSH3 0x50 JUMP JUMPDEST SWAP1 POP SWAP3 POP SWAP3 SWAP1 POP JUMP JUMPDEST PUSH1 0x80 MLOAD PUSH1 0xA0 MLOAD PUSH1 0xC0 MLOAD PUSH2 0x2E5D PUSH3 0x153 PUSH1 0x0 CODECOPY PUSH1 0x0 DUP2 DUP2 PUSH2 0x310 ADD MSTORE DUP2 DUP2 PUSH2 0x901 ADD MSTORE PUSH2 0xCED ADD MSTORE PUSH1 0x0 DUP2 DUP2 PUSH2 0x53D ADD MSTORE DUP2 DUP2 PUSH2 0x9C4 ADD MSTORE DUP2 DUP2 PUSH2 0xD6E ADD MSTORE DUP2 DUP2 PUSH2 0x10CF ADD MSTORE DUP2 DUP2 PUSH2 0x11F7 ADD MSTORE DUP2 DUP2 PUSH2 0x1662 ADD MSTORE PUSH2 0x17BC ADD MSTORE PUSH1 0x0 DUP2 DUP2 PUSH2 0xA56 ADD MSTORE DUP2 DUP2 PUSH2 0xA96 ADD MSTORE DUP2 DUP2 PUSH2 0xDF0 ADD MSTORE DUP2 DUP2 PUSH2 0xE30 ADD MSTORE DUP2 DUP2 PUSH2 0xEC3 ADD MSTORE DUP2 DUP2 PUSH2 0x100C ADD MSTORE DUP2 DUP2 PUSH2 0x104C ADD MSTORE DUP2 DUP2 PUSH2 0x1424 ADD MSTORE DUP2 DUP2 PUSH2 0x1464 ADD MSTORE DUP2 DUP2 PUSH2 0x15A7 ADD MSTORE PUSH2 0x15E7 ADD MSTORE PUSH2 0x2E5D PUSH1 0x0 RETURN INVALID PUSH1 0x80 PUSH1 0x40 MSTORE PUSH1 0x4 CALLDATASIZE LT PUSH2 0x1A1 JUMPI PUSH1 0x0 CALLDATALOAD PUSH1 0xE0 SHR DUP1 PUSH4 0x84B0196E GT PUSH2 0xE1 JUMPI DUP1 PUSH4 0xE090FA3C GT PUSH2 0x8A JUMPI DUP1 PUSH4 0xE922BA79 GT PUSH2 0x64 JUMPI DUP1 PUSH4 0xE922BA79 EQ PUSH2 0x4B7 JUMPI DUP1 PUSH4 0xF2FDE38B EQ PUSH2 0x4D7 JUMPI DUP1 PUSH4 0xF76FC35E EQ PUSH2 0x4F7 JUMPI DUP1 PUSH4 0xFC0C546A EQ PUSH2 0x52B JUMPI PUSH1 0x0 DUP1 REVERT JUMPDEST DUP1 PUSH4 0xE090FA3C EQ PUSH2 0x458 JUMPI DUP1 PUSH4 0xE30C3978 EQ PUSH2 0x478 JUMPI DUP1 PUSH4 0xE78CEA92 EQ PUSH2 0x496 JUMPI PUSH1 0x0 DUP1 REVERT JUMPDEST DUP1 PUSH4 0x8F15B414 GT PUSH2 0xBB JUMPI DUP1 PUSH4 0x8F15B414 EQ PUSH2 0x3D0 JUMPI DUP1 PUSH4 0xB3C9ED59 EQ PUSH2 0x3F0 JUMPI DUP1 PUSH4 0xCE89A040 EQ PUSH2 0x424 JUMPI PUSH1 0x0 DUP1 REVERT JUMPDEST DUP1 PUSH4 0x84B0196E EQ PUSH2 0x36A JUMPI DUP1 PUSH4 0x8DA5CB5B EQ PUSH2 0x392 JUMPI DUP1 PUSH4 0x8DD14802 EQ PUSH2 0x3B0 JUMPI PUSH1 0x0 DUP1 REVERT JUMPDEST DUP1 PUSH4 0x4F1EF286 GT PUSH2 0x14E JUMPI DUP1 PUSH4 0x715018A6 GT PUSH2 0x128 JUMPI DUP1 PUSH4 0x715018A6 EQ PUSH2 0x2D4 JUMPI DUP1 PUSH4 0x79BA5097 EQ PUSH2 0x2E9 JUMPI DUP1 PUSH4 0x7DC0D1D0 EQ PUSH2 0x2FE JUMPI DUP1 PUSH4 0x80A5A371 EQ PUSH2 0x34A JUMPI PUSH1 0x0 DUP1 REVERT JUMPDEST DUP1 PUSH4 0x4F1EF286 EQ PUSH2 0x297 JUMPI DUP1 PUSH4 0x52D1902D EQ PUSH2 0x2AA JUMPI DUP1 PUSH4 0x54FD4D50 EQ PUSH2 0x2BF JUMPI PUSH1 0x0 DUP1 REVERT JUMPDEST DUP1 PUSH4 0x3644E515 GT PUSH2 0x17F JUMPI DUP1 PUSH4 0x3644E515 EQ PUSH2 0x234 JUMPI DUP1 PUSH4 0x3659CFE6 EQ PUSH2 0x257 JUMPI DUP1 PUSH4 0x36B09227 EQ PUSH2 0x277 JUMPI PUSH1 0x0 DUP1 REVERT JUMPDEST DUP1 PUSH4 0x6FDDE03 EQ PUSH2 0x1A6 JUMPI DUP1 PUSH4 0x10DBEBCE EQ PUSH2 0x1D1 JUMPI DUP1 PUSH4 0x163C50AC EQ PUSH2 0x212 JUMPI JUMPDEST PUSH1 0x0 DUP1 REVERT JUMPDEST CALLVALUE DUP1 ISZERO PUSH2 0x1B2 JUMPI PUSH1 0x0 DUP1 REVERT JUMPDEST POP PUSH2 0x1BB PUSH2 0x55F JUMP JUMPDEST PUSH1 0x40 MLOAD PUSH2 0x1C8 SWAP2 SWAP1 PUSH2 0x237A JUMP JUMPDEST PUSH1 0x40 MLOAD DUP1 SWAP2 SUB SWAP1 RETURN JUMPDEST CALLVALUE DUP1 ISZERO PUSH2 0x1DD JUMPI PUSH1 0x0 DUP1 REVERT JUMPDEST POP PUSH2 0x202 PUSH2 0x1EC CALLDATASIZE PUSH1 0x4 PUSH2 0x238D JUMP JUMPDEST PUSH2 0x132 PUSH1 0x20 MSTORE PUSH1 0x0 SWAP1 DUP2 MSTORE PUSH1 0x40 SWAP1 KECCAK256 SLOAD PUSH1 0xFF AND DUP2 JUMP JUMPDEST PUSH1 0x40 MLOAD SWAP1 ISZERO ISZERO DUP2 MSTORE PUSH1 0x20 ADD PUSH2 0x1C8 JUMP JUMPDEST CALLVALUE DUP1 ISZERO PUSH2 0x21E JUMPI PUSH1 0x0 DUP1 REVERT JUMPDEST POP PUSH2 0x232 PUSH2 0x22D CALLDATASIZE PUSH1 0x4 PUSH2 0x2588 JUMP JUMPDEST PUSH2 0x5EE JUMP JUMPDEST STOP JUMPDEST CALLVALUE DUP1 ISZERO PUSH2 0x240 JUMPI PUSH1 0x0 DUP1 REVERT JUMPDEST POP PUSH2 0x249 PUSH2 0xA3D JUMP JUMPDEST PUSH1 0x40 MLOAD SWAP1 DUP2 MSTORE PUSH1 0x20 ADD PUSH2 0x1C8 JUMP JUMPDEST CALLVALUE DUP1 ISZERO PUSH2 0x263 JUMPI PUSH1 0x0 DUP1 REVERT JUMPDEST POP PUSH2 0x232 PUSH2 0x272 CALLDATASIZE PUSH1 0x4 PUSH2 0x267E JUMP JUMPDEST PUSH2 0xA4C JUMP JUMPDEST CALLVALUE DUP1 ISZERO PUSH2 0x283 JUMPI PUSH1 0x0 DUP1 REVERT JUMPDEST POP PUSH2 0x232 PUSH2 0x292 CALLDATASIZE PUSH1 0x4 PUSH2 0x2699 JUMP JUMPDEST PUSH2 0xB2B JUMP JUMPDEST PUSH2 0x232 PUSH2 0x2A5 CALLDATASIZE PUSH1 0x4 PUSH2 0x2718 JUMP JUMPDEST PUSH2 0xDE6 JUMP JUMPDEST CALLVALUE DUP1 ISZERO PUSH2 0x2B6 JUMPI PUSH1 0x0 DUP1 REVERT JUMPDEST POP PUSH2 0x249 PUSH2 0xEB6 JUMP JUMPDEST CALLVALUE DUP1 ISZERO PUSH2 0x2CB JUMPI PUSH1 0x0 DUP1 REVERT JUMPDEST POP PUSH2 0x1BB PUSH2 0xF69 JUMP JUMPDEST CALLVALUE DUP1 ISZERO PUSH2 0x2E0 JUMPI PUSH1 0x0 DUP1 REVERT JUMPDEST POP PUSH2 0x232 PUSH2 0xF77 JUMP JUMPDEST CALLVALUE DUP1 ISZERO PUSH2 0x2F5 JUMPI PUSH1 0x0 DUP1 REVERT JUMPDEST POP PUSH2 0x232 PUSH2 0xF8B JUMP JUMPDEST CALLVALUE DUP1 ISZERO PUSH2 0x30A JUMPI PUSH1 0x0 DUP1 REVERT JUMPDEST POP PUSH2 0x332 PUSH32 0x0 DUP2 JUMP JUMPDEST PUSH1 0x40 MLOAD PUSH1 0x1 PUSH1 0x1 PUSH1 0xA0 SHL SUB SWAP1 SWAP2 AND DUP2 MSTORE PUSH1 0x20 ADD PUSH2 0x1C8 JUMP JUMPDEST CALLVALUE DUP1 ISZERO PUSH2 0x356 JUMPI PUSH1 0x0 DUP1 REVERT JUMPDEST POP PUSH2 0x232 PUSH2 0x365 CALLDATASIZE PUSH1 0x4 PUSH2 0x2766 JUMP JUMPDEST PUSH2 0x1002 JUMP JUMPDEST CALLVALUE DUP1 ISZERO PUSH2 0x376 JUMPI PUSH1 0x0 DUP1 REVERT JUMPDEST POP PUSH2 0x37F PUSH2 0x1261 JUMP JUMPDEST PUSH1 0x40 MLOAD PUSH2 0x1C8 SWAP8 SWAP7 SWAP6 SWAP5 SWAP4 SWAP3 SWAP2 SWAP1 PUSH2 0x27F1 JUMP JUMPDEST CALLVALUE DUP1 ISZERO PUSH2 0x39E JUMPI PUSH1 0x0 DUP1 REVERT JUMPDEST POP PUSH1 0x33 SLOAD PUSH1 0x1 PUSH1 0x1 PUSH1 0xA0 SHL SUB AND PUSH2 0x332 JUMP JUMPDEST CALLVALUE DUP1 ISZERO PUSH2 0x3BC JUMPI PUSH1 0x0 DUP1 REVERT JUMPDEST POP PUSH2 0x232 PUSH2 0x3CB CALLDATASIZE PUSH1 0x4 PUSH2 0x267E JUMP JUMPDEST PUSH2 0x1307 JUMP JUMPDEST CALLVALUE DUP1 ISZERO PUSH2 0x3DC JUMPI PUSH1 0x0 DUP1 REVERT JUMPDEST POP PUSH2 0x232 PUSH2 0x3EB CALLDATASIZE PUSH1 0x4 PUSH2 0x285F JUMP JUMPDEST PUSH2 0x135A JUMP JUMPDEST CALLVALUE DUP1 ISZERO PUSH2 0x3FC JUMPI PUSH1 0x0 DUP1 REVERT JUMPDEST POP PUSH2 0x249 PUSH32 0x47B77FF24F11D889436314CD63FDEFEB0B0F9531DA691F5627F546C47E5F002C DUP2 JUMP JUMPDEST CALLVALUE DUP1 ISZERO PUSH2 0x430 JUMPI PUSH1 0x0 DUP1 REVERT JUMPDEST POP PUSH2 0x249 PUSH32 0xB0426304B718D58E27F05888D480CC1C9C956AFAAB3BA8D45AFCCE29F30D6448 DUP2 JUMP JUMPDEST CALLVALUE DUP1 ISZERO PUSH2 0x464 JUMPI PUSH1 0x0 DUP1 REVERT JUMPDEST POP PUSH2 0x232 PUSH2 0x473 CALLDATASIZE PUSH1 0x4 PUSH2 0x28E4 JUMP JUMPDEST PUSH2 0x159D JUMP JUMPDEST CALLVALUE DUP1 ISZERO PUSH2 0x484 JUMPI PUSH1 0x0 DUP1 REVERT JUMPDEST POP PUSH1 0x65 SLOAD PUSH1 0x1 PUSH1 0x1 PUSH1 0xA0 SHL SUB AND PUSH2 0x332 JUMP JUMPDEST CALLVALUE DUP1 ISZERO PUSH2 0x4A2 JUMPI PUSH1 0x0 DUP1 REVERT JUMPDEST POP PUSH2 0x12F SLOAD PUSH2 0x332 SWAP1 PUSH1 0x1 PUSH1 0x1 PUSH1 0xA0 SHL SUB AND DUP2 JUMP JUMPDEST CALLVALUE DUP1 ISZERO PUSH2 0x4C3 JUMPI PUSH1 0x0 DUP1 REVERT JUMPDEST POP PUSH2 0x232 PUSH2 0x4D2 CALLDATASIZE PUSH1 0x4 PUSH2 0x2962 JUMP JUMPDEST PUSH2 0x17FD JUMP JUMPDEST CALLVALUE DUP1 ISZERO PUSH2 0x4E3 JUMPI PUSH1 0x0 DUP1 REVERT JUMPDEST POP PUSH2 0x232 PUSH2 0x4F2 CALLDATASIZE PUSH1 0x4 PUSH2 0x267E JUMP JUMPDEST PUSH2 0x192C JUMP JUMPDEST CALLVALUE DUP1 ISZERO PUSH2 0x503 JUMPI PUSH1 0x0 DUP1 REVERT JUMPDEST POP PUSH2 0x249 PUSH32 0x7ED266A150D7268B399E18C9036AD7FF35A4BF8F1DDF162234A3684916E16DC8 DUP2 JUMP JUMPDEST CALLVALUE DUP1 ISZERO PUSH2 0x537 JUMPI PUSH1 0x0 DUP1 REVERT JUMPDEST POP PUSH2 0x332 PUSH32 0x0 DUP2 JUMP JUMPDEST PUSH2 0x130 DUP1 SLOAD PUSH2 0x56D SWAP1 PUSH2 0x2993 JUMP JUMPDEST DUP1 PUSH1 0x1F ADD PUSH1 0x20 DUP1 SWAP2 DIV MUL PUSH1 0x20 ADD PUSH1 0x40 MLOAD SWAP1 DUP2 ADD PUSH1 0x40 MSTORE DUP1 SWAP3 SWAP2 SWAP1 DUP2 DUP2 MSTORE PUSH1 0x20 ADD DUP3 DUP1 SLOAD PUSH2 0x599 SWAP1 PUSH2 0x2993 JUMP JUMPDEST DUP1 ISZERO PUSH2 0x5E6 JUMPI DUP1 PUSH1 0x1F LT PUSH2 0x5BB JUMPI PUSH2 0x100 DUP1 DUP4 SLOAD DIV MUL DUP4 MSTORE SWAP2 PUSH1 0x20 ADD SWAP2 PUSH2 0x5E6 JUMP JUMPDEST DUP3 ADD SWAP2 SWAP1 PUSH1 0x0 MSTORE PUSH1 0x20 PUSH1 0x0 KECCAK256 SWAP1 JUMPDEST DUP2 SLOAD DUP2 MSTORE SWAP1 PUSH1 0x1 ADD SWAP1 PUSH1 0x20 ADD DUP1 DUP4 GT PUSH2 0x5C9 JUMPI DUP3 SWAP1 SUB PUSH1 0x1F AND DUP3 ADD SWAP2 JUMPDEST POP POP POP POP POP DUP2 JUMP JUMPDEST DUP4 MLOAD DUP8 MLOAD EQ PUSH2 0x66A JUMPI PUSH1 0x40 MLOAD PUSH3 0x461BCD PUSH1 0xE5 SHL DUP2 MSTORE PUSH1 0x20 PUSH1 0x4 DUP3 ADD MSTORE PUSH1 0x32 PUSH1 0x24 DUP3 ADD MSTORE PUSH32 0x4A61736D696E654D696E7465723A2069647320616E64206F7261636C65446174 PUSH1 0x44 DUP3 ADD MSTORE PUSH32 0x6173206C656E677468206D69736D617463680000000000000000000000000000 PUSH1 0x64 DUP3 ADD MSTORE PUSH1 0x84 ADD JUMPDEST PUSH1 0x40 MLOAD DUP1 SWAP2 SUB SWAP1 REVERT JUMPDEST DUP3 TIMESTAMP GT ISZERO PUSH2 0x6B3 JUMPI PUSH1 0x40 MLOAD PUSH3 0x461BCD PUSH1 0xE5 SHL DUP2 MSTORE PUSH1 0x20 PUSH1 0x4 DUP3 ADD MSTORE PUSH1 0x16 PUSH1 0x24 DUP3 ADD MSTORE PUSH22 0x12985CDB5A5B99535A5B9D195C8E88195E1C1A5C9959 PUSH1 0x52 SHL PUSH1 0x44 DUP3 ADD MSTORE PUSH1 0x64 ADD PUSH2 0x661 JUMP JUMPDEST PUSH1 0x0 DUP5 MLOAD PUSH8 0xFFFFFFFFFFFFFFFF DUP2 GT ISZERO PUSH2 0x6CF JUMPI PUSH2 0x6CF PUSH2 0x23C2 JUMP JUMPDEST PUSH1 0x40 MLOAD SWAP1 DUP1 DUP3 MSTORE DUP1 PUSH1 0x20 MUL PUSH1 0x20 ADD DUP3 ADD PUSH1 0x40 MSTORE DUP1 ISZERO PUSH2 0x6F8 JUMPI DUP2 PUSH1 0x20 ADD PUSH1 0x20 DUP3 MUL DUP1 CALLDATASIZE DUP4 CALLDATACOPY ADD SWAP1 POP JUMPDEST POP SWAP1 POP PUSH1 0x0 JUMPDEST DUP6 MLOAD DUP2 LT ISZERO PUSH2 0x75A JUMPI DUP6 DUP2 DUP2 MLOAD DUP2 LT PUSH2 0x719 JUMPI PUSH2 0x719 PUSH2 0x29CD JUMP JUMPDEST PUSH1 0x20 MUL PUSH1 0x20 ADD ADD MLOAD DUP1 MLOAD SWAP1 PUSH1 0x20 ADD KECCAK256 PUSH1 0x0 SHR DUP3 DUP3 DUP2 MLOAD DUP2 LT PUSH2 0x73D JUMPI PUSH2 0x73D PUSH2 0x29CD JUMP JUMPDEST PUSH1 0x20 SWAP1 DUP2 MUL SWAP2 SWAP1 SWAP2 ADD ADD MSTORE DUP1 PUSH2 0x752 DUP2 PUSH2 0x29E3 JUMP JUMPDEST SWAP2 POP POP PUSH2 0x6FE JUMP JUMPDEST POP DUP8 MLOAD PUSH1 0x5 SWAP1 DUP2 SHL PUSH1 0x20 DUP1 DUP12 ADD SWAP2 SWAP1 SWAP2 KECCAK256 DUP10 MLOAD DUP4 SHL DUP11 DUP4 ADD KECCAK256 DUP5 MLOAD SWAP1 SWAP4 SHL DUP5 DUP4 ADD KECCAK256 PUSH1 0x40 DUP1 MLOAD PUSH32 0x47B77FF24F11D889436314CD63FDEFEB0B0F9531DA691F5627F546C47E5F002C DUP2 DUP7 ADD MSTORE CALLER DUP2 DUP4 ADD MSTORE PUSH1 0x60 DUP2 ADD SWAP4 SWAP1 SWAP4 MSTORE PUSH1 0x80 DUP4 ADD SWAP5 SWAP1 SWAP5 MSTORE PUSH1 0xA0 DUP3 ADD MSTORE PUSH1 0xC0 DUP2 ADD DUP8 SWAP1 MSTORE PUSH1 0xE0 DUP1 DUP3 ADD DUP8 SWAP1 MSTORE DUP4 MLOAD DUP1 DUP4 SUB SWAP1 SWAP2 ADD DUP2 MSTORE PUSH2 0x100 SWAP1 SWAP2 ADD SWAP1 SWAP3 MSTORE DUP2 MLOAD SWAP2 ADD KECCAK256 PUSH2 0x12F SLOAD PUSH1 0x1 PUSH1 0x1 PUSH1 0xA0 SHL SUB AND PUSH2 0x805 PUSH2 0x7FF DUP4 PUSH2 0x199D JUMP JUMPDEST DUP6 PUSH2 0x19D0 JUMP JUMPDEST PUSH1 0x1 PUSH1 0x1 PUSH1 0xA0 SHL SUB AND EQ PUSH2 0x82B JUMPI PUSH1 0x40 MLOAD PUSH3 0x461BCD PUSH1 0xE5 SHL DUP2 MSTORE PUSH1 0x4 ADD PUSH2 0x661 SWAP1 PUSH2 0x2A0A JUMP JUMPDEST PUSH1 0x0 DUP5 DUP2 MSTORE PUSH2 0x132 PUSH1 0x20 MSTORE PUSH1 0x40 SWAP1 KECCAK256 SLOAD PUSH1 0xFF AND ISZERO PUSH2 0x88B JUMPI PUSH1 0x40 MLOAD PUSH3 0x461BCD PUSH1 0xE5 SHL DUP2 MSTORE PUSH1 0x20 PUSH1 0x4 DUP3 ADD MSTORE PUSH1 0x1B PUSH1 0x24 DUP3 ADD MSTORE PUSH32 0x4A61736D696E654D696E7465723A206E6F6E6365207265706C61790000000000 PUSH1 0x44 DUP3 ADD MSTORE PUSH1 0x64 ADD PUSH2 0x661 JUMP JUMPDEST PUSH1 0x0 DUP5 DUP2 MSTORE PUSH2 0x132 PUSH1 0x20 MSTORE PUSH1 0x40 DUP1 DUP3 KECCAK256 DUP1 SLOAD PUSH1 0xFF NOT AND PUSH1 0x1 OR SWAP1 SSTORE MLOAD DUP6 SWAP2 PUSH32 0x70CD0C14252EDEF0440009634A4E86036A1747C9FBE7E4C2C05B8B62F9C410E2 SWAP2 LOG2 PUSH1 0x0 JUMPDEST DUP7 MLOAD DUP2 LT ISZERO PUSH2 0x9AC JUMPI PUSH1 0x0 DUP8 DUP3 DUP2 MLOAD DUP2 LT PUSH2 0x8EC JUMPI PUSH2 0x8EC PUSH2 0x29CD JUMP JUMPDEST PUSH1 0x20 MUL PUSH1 0x20 ADD ADD MLOAD SWAP1 POP DUP1 MLOAD PUSH1 0x0 EQ PUSH2 0x999 JUMPI PUSH32 0x0 PUSH1 0x1 PUSH1 0x1 PUSH1 0xA0 SHL SUB AND PUSH4 0x7E3810C DUP13 DUP5 DUP2 MLOAD DUP2 LT PUSH2 0x940 JUMPI PUSH2 0x940 PUSH2 0x29CD JUMP JUMPDEST PUSH1 0x20 MUL PUSH1 0x20 ADD ADD MLOAD DUP4 PUSH1 0x40 MLOAD DUP4 PUSH4 0xFFFFFFFF AND PUSH1 0xE0 SHL DUP2 MSTORE PUSH1 0x4 ADD PUSH2 0x966 SWAP3 SWAP2 SWAP1 PUSH2 0x2A53 JUMP JUMPDEST PUSH1 0x0 PUSH1 0x40 MLOAD DUP1 DUP4 SUB DUP2 PUSH1 0x0 DUP8 DUP1 EXTCODESIZE ISZERO DUP1 ISZERO PUSH2 0x980 JUMPI PUSH1 0x0 DUP1 REVERT JUMPDEST POP GAS CALL ISZERO DUP1 ISZERO PUSH2 0x994 JUMPI RETURNDATASIZE PUSH1 0x0 DUP1 RETURNDATACOPY RETURNDATASIZE PUSH1 0x0 REVERT JUMPDEST POP POP POP POP JUMPDEST POP DUP1 PUSH2 0x9A4 DUP2 PUSH2 0x29E3 JUMP JUMPDEST SWAP2 POP POP PUSH2 0x8CF JUMP JUMPDEST POP PUSH1 0x40 MLOAD PUSH4 0xFBFEFFD PUSH1 0xE1 SHL DUP2 MSTORE PUSH1 0x1 PUSH1 0x1 PUSH1 0xA0 SHL SUB PUSH32 0x0 AND SWAP1 PUSH4 0x1F7FDFFA SWAP1 PUSH2 0x9FF SWAP1 DUP14 SWAP1 DUP14 SWAP1 DUP14 SWAP1 DUP14 SWAP1 PUSH1 0x4 ADD PUSH2 0x2A6C JUMP JUMPDEST PUSH1 0x0 PUSH1 0x40 MLOAD DUP1 DUP4 SUB DUP2 PUSH1 0x0 DUP8 DUP1 EXTCODESIZE ISZERO DUP1 ISZERO PUSH2 0xA19 JUMPI PUSH1 0x0 DUP1 REVERT JUMPDEST POP GAS CALL ISZERO DUP1 ISZERO PUSH2 0xA2D JUMPI RETURNDATASIZE PUSH1 0x0 DUP1 RETURNDATACOPY RETURNDATASIZE PUSH1 0x0 REVERT JUMPDEST POP POP POP POP POP POP POP POP POP POP POP POP POP POP JUMP JUMPDEST PUSH1 0x0 PUSH2 0xA47 PUSH2 0x19F4 JUMP JUMPDEST SWAP1 POP SWAP1 JUMP JUMPDEST PUSH1 0x1 PUSH1 0x1 PUSH1 0xA0 SHL SUB PUSH32 0x0 AND ADDRESS SUB PUSH2 0xA94 JUMPI PUSH1 0x40 MLOAD PUSH3 0x461BCD PUSH1 0xE5 SHL DUP2 MSTORE PUSH1 0x4 ADD PUSH2 0x661 SWAP1 PUSH2 0x2ABF JUMP JUMPDEST PUSH32 0x0 PUSH1 0x1 PUSH1 0x1 PUSH1 0xA0 SHL SUB AND PUSH2 0xADD PUSH1 0x0 DUP1 MLOAD PUSH1 0x20 PUSH2 0x2DE1 DUP4 CODECOPY DUP2 MLOAD SWAP2 MSTORE SLOAD PUSH1 0x1 PUSH1 0x1 PUSH1 0xA0 SHL SUB AND SWAP1 JUMP JUMPDEST PUSH1 0x1 PUSH1 0x1 PUSH1 0xA0 SHL SUB AND EQ PUSH2 0xB03 JUMPI PUSH1 0x40 MLOAD PUSH3 0x461BCD PUSH1 0xE5 SHL DUP2 MSTORE PUSH1 0x4 ADD PUSH2 0x661 SWAP1 PUSH2 0x2B0B JUMP JUMPDEST PUSH2 0xB0C DUP2 PUSH2 0x19FE JUMP JUMPDEST PUSH1 0x40 DUP1 MLOAD PUSH1 0x0 DUP1 DUP3 MSTORE PUSH1 0x20 DUP3 ADD SWAP1 SWAP3 MSTORE PUSH2 0xB28 SWAP2 DUP4 SWAP2 SWAP1 PUSH2 0x1A06 JUMP JUMPDEST POP JUMP JUMPDEST DUP3 TIMESTAMP GT ISZERO PUSH2 0xB74 JUMPI PUSH1 0x40 MLOAD PUSH3 0x461BCD PUSH1 0xE5 SHL DUP2 MSTORE PUSH1 0x20 PUSH1 0x4 DUP3 ADD MSTORE PUSH1 0x16 PUSH1 0x24 DUP3 ADD MSTORE PUSH22 0x12985CDB5A5B99535A5B9D195C8E88195E1C1A5C9959 PUSH1 0x52 SHL PUSH1 0x44 DUP3 ADD MSTORE PUSH1 0x64 ADD PUSH2 0x661 JUMP JUMPDEST DUP4 MLOAD PUSH1 0x20 DUP1 DUP7 ADD SWAP2 SWAP1 SWAP2 KECCAK256 PUSH1 0x40 DUP1 MLOAD PUSH32 0x7ED266A150D7268B399E18C9036AD7FF35A4BF8F1DDF162234A3684916E16DC8 DUP2 DUP6 ADD MSTORE CALLER DUP2 DUP4 ADD MSTORE PUSH1 0x60 DUP2 ADD DUP12 SWAP1 MSTORE PUSH1 0x80 DUP2 ADD DUP11 SWAP1 MSTORE PUSH1 0xA0 DUP2 ADD SWAP3 SWAP1 SWAP3 MSTORE PUSH1 0xC0 DUP3 ADD DUP7 SWAP1 MSTORE PUSH1 0xE0 DUP1 DUP4 ADD DUP7 SWAP1 MSTORE DUP2 MLOAD DUP1 DUP5 SUB SWAP1 SWAP2 ADD DUP2 MSTORE PUSH2 0x100 SWAP1 SWAP3 ADD SWAP1 MSTORE DUP1 MLOAD SWAP2 ADD KECCAK256 PUSH2 0x12F SLOAD PUSH1 0x1 PUSH1 0x1 PUSH1 0xA0 SHL SUB AND PUSH2 0xC08 PUSH2 0xC02 DUP4 PUSH2 0x199D JUMP JUMPDEST DUP5 PUSH2 0x19D0 JUMP JUMPDEST PUSH1 0x1 PUSH1 0x1 PUSH1 0xA0 SHL SUB AND EQ PUSH2 0xC2E JUMPI PUSH1 0x40 MLOAD PUSH3 0x461BCD PUSH1 0xE5 SHL DUP2 MSTORE PUSH1 0x4 ADD PUSH2 0x661 SWAP1 PUSH2 0x2A0A JUMP JUMPDEST PUSH1 0x0 DUP4 DUP2 MSTORE PUSH2 0x132 PUSH1 0x20 MSTORE PUSH1 0x40 SWAP1 KECCAK256 SLOAD PUSH1 0xFF AND ISZERO PUSH2 0xC8E JUMPI PUSH1 0x40 MLOAD PUSH3 0x461BCD PUSH1 0xE5 SHL DUP2 MSTORE PUSH1 0x20 PUSH1 0x4 DUP3 ADD MSTORE PUSH1 0x1B PUSH1 0x24 DUP3 ADD MSTORE PUSH32 0x4A61736D696E654D696E7465723A206E6F6E6365207265706C61790000000000 PUSH1 0x44 DUP3 ADD MSTORE PUSH1 0x64 ADD PUSH2 0x661 JUMP JUMPDEST PUSH1 0x0 DUP4 DUP2 MSTORE PUSH2 0x132 PUSH1 0x20 MSTORE PUSH1 0x40 DUP1 DUP3 KECCAK256 DUP1 SLOAD PUSH1 0xFF NOT AND PUSH1 0x1 OR SWAP1 SSTORE MLOAD DUP5 SWAP2 PUSH32 0x70CD0C14252EDEF0440009634A4E86036A1747C9FBE7E4C2C05B8B62F9C410E2 SWAP2 LOG2 DUP5 MLOAD ISZERO PUSH2 0xD57 JUMPI PUSH1 0x40 MLOAD PUSH4 0x1F8E043 PUSH1 0xE2 SHL DUP2 MSTORE PUSH1 0x1 PUSH1 0x1 PUSH1 0xA0 SHL SUB PUSH32 0x0 AND SWAP1 PUSH4 0x7E3810C SWAP1 PUSH2 0xD24 SWAP1 DUP12 SWAP1 DUP10 SWAP1 PUSH1 0x4 ADD PUSH2 0x2A53 JUMP JUMPDEST PUSH1 0x0 PUSH1 0x40 MLOAD DUP1 DUP4 SUB DUP2 PUSH1 0x0 DUP8 DUP1 EXTCODESIZE ISZERO DUP1 ISZERO PUSH2 0xD3E JUMPI PUSH1 0x0 DUP1 REVERT JUMPDEST POP GAS CALL ISZERO DUP1 ISZERO PUSH2 0xD52 JUMPI RETURNDATASIZE PUSH1 0x0 DUP1 RETURNDATACOPY RETURNDATASIZE PUSH1 0x0 REVERT JUMPDEST POP POP POP POP JUMPDEST PUSH1 0x40 MLOAD PUSH4 0x731133E9 PUSH1 0xE0 SHL DUP2 MSTORE PUSH1 0x1 PUSH1 0x1 PUSH1 0xA0 SHL SUB PUSH32 0x0 AND SWAP1 PUSH4 0x731133E9 SWAP1 PUSH2 0xDA9 SWAP1 DUP13 SWAP1 DUP13 SWAP1 DUP13 SWAP1 DUP13 SWAP1 PUSH1 0x4 ADD PUSH2 0x2B57 JUMP JUMPDEST PUSH1 0x0 PUSH1 0x40 MLOAD DUP1 DUP4 SUB DUP2 PUSH1 0x0 DUP8 DUP1 EXTCODESIZE ISZERO DUP1 ISZERO PUSH2 0xDC3 JUMPI PUSH1 0x0 DUP1 REVERT JUMPDEST POP GAS CALL ISZERO DUP1 ISZERO PUSH2 0xDD7 JUMPI RETURNDATASIZE PUSH1 0x0 DUP1 RETURNDATACOPY RETURNDATASIZE PUSH1 0x0 REVERT JUMPDEST POP POP POP POP POP POP POP POP POP POP POP POP POP JUMP JUMPDEST PUSH1 0x1 PUSH1 0x1 PUSH1 0xA0 SHL SUB PUSH32 0x0 AND ADDRESS SUB PUSH2 0xE2E JUMPI PUSH1 0x40 MLOAD PUSH3 0x461BCD PUSH1 0xE5 SHL DUP2 MSTORE PUSH1 0x4 ADD PUSH2 0x661 SWAP1 PUSH2 0x2ABF JUMP JUMPDEST PUSH32 0x0 PUSH1 0x1 PUSH1 0x1 PUSH1 0xA0 SHL SUB AND PUSH2 0xE77 PUSH1 0x0 DUP1 MLOAD PUSH1 0x20 PUSH2 0x2DE1 DUP4 CODECOPY DUP2 MLOAD SWAP2 MSTORE SLOAD PUSH1 0x1 PUSH1 0x1 PUSH1 0xA0 SHL SUB AND SWAP1 JUMP JUMPDEST PUSH1 0x1 PUSH1 0x1 PUSH1 0xA0 SHL SUB AND EQ PUSH2 0xE9D JUMPI PUSH1 0x40 MLOAD PUSH3 0x461BCD PUSH1 0xE5 SHL DUP2 MSTORE PUSH1 0x4 ADD PUSH2 0x661 SWAP1 PUSH2 0x2B0B JUMP JUMPDEST PUSH2 0xEA6 DUP3 PUSH2 0x19FE JUMP JUMPDEST PUSH2 0xEB2 DUP3 DUP3 PUSH1 0x1 PUSH2 0x1A06 JUMP JUMPDEST POP POP JUMP JUMPDEST PUSH1 0x0 ADDRESS PUSH1 0x1 PUSH1 0x1 PUSH1 0xA0 SHL SUB PUSH32 0x0 AND EQ PUSH2 0xF56 JUMPI PUSH1 0x40 MLOAD PUSH3 0x461BCD PUSH1 0xE5 SHL DUP2 MSTORE PUSH1 0x20 PUSH1 0x4 DUP3 ADD MSTORE PUSH1 0x38 PUSH1 0x24 DUP3 ADD MSTORE PUSH32 0x555550535570677261646561626C653A206D757374206E6F742062652063616C PUSH1 0x44 DUP3 ADD MSTORE PUSH32 0x6C6564207468726F7567682064656C656761746563616C6C0000000000000000 PUSH1 0x64 DUP3 ADD MSTORE PUSH1 0x84 ADD PUSH2 0x661 JUMP JUMPDEST POP PUSH1 0x0 DUP1 MLOAD PUSH1 0x20 PUSH2 0x2DE1 DUP4 CODECOPY DUP2 MLOAD SWAP2 MSTORE SWAP1 JUMP JUMPDEST PUSH2 0x131 DUP1 SLOAD PUSH2 0x56D SWAP1 PUSH2 0x2993 JUMP JUMPDEST PUSH2 0xF7F PUSH2 0x1B76 JUMP JUMPDEST PUSH2 0xF89 PUSH1 0x0 PUSH2 0x1BD0 JUMP JUMPDEST JUMP JUMPDEST PUSH1 0x65 SLOAD CALLER SWAP1 PUSH1 0x1 PUSH1 0x1 PUSH1 0xA0 SHL SUB AND DUP2 EQ PUSH2 0xFF9 JUMPI PUSH1 0x40 MLOAD PUSH3 0x461BCD PUSH1 0xE5 SHL DUP2 MSTORE PUSH1 0x20 PUSH1 0x4 DUP3 ADD MSTORE PUSH1 0x29 PUSH1 0x24 DUP3 ADD MSTORE PUSH32 0x4F776E61626C6532537465703A2063616C6C6572206973206E6F742074686520 PUSH1 0x44 DUP3 ADD MSTORE PUSH9 0x3732BB9037BBB732B9 PUSH1 0xB9 SHL PUSH1 0x64 DUP3 ADD MSTORE PUSH1 0x84 ADD PUSH2 0x661 JUMP JUMPDEST PUSH2 0xB28 DUP2 PUSH2 0x1BD0 JUMP JUMPDEST PUSH1 0x1 PUSH1 0x1 PUSH1 0xA0 SHL SUB PUSH32 0x0 AND ADDRESS SUB PUSH2 0x104A JUMPI PUSH1 0x40 MLOAD PUSH3 0x461BCD PUSH1 0xE5 SHL DUP2 MSTORE PUSH1 0x4 ADD PUSH2 0x661 SWAP1 PUSH2 0x2ABF JUMP JUMPDEST PUSH32 0x0 PUSH1 0x1 PUSH1 0x1 PUSH1 0xA0 SHL SUB AND PUSH2 0x1093 PUSH1 0x0 DUP1 MLOAD PUSH1 0x20 PUSH2 0x2DE1 DUP4 CODECOPY DUP2 MLOAD SWAP2 MSTORE SLOAD PUSH1 0x1 PUSH1 0x1 PUSH1 0xA0 SHL SUB AND SWAP1 JUMP JUMPDEST PUSH1 0x1 PUSH1 0x1 PUSH1 0xA0 SHL SUB AND EQ PUSH2 0x10B9 JUMPI PUSH1 0x40 MLOAD PUSH3 0x461BCD PUSH1 0xE5 SHL DUP2 MSTORE PUSH1 0x4 ADD PUSH2 0x661 SWAP1 PUSH2 0x2B0B JUMP JUMPDEST PUSH1 0x40 MLOAD PUSH4 0x3A6B011 PUSH1 0xE6 SHL DUP2 MSTORE PUSH1 0x4 DUP2 ADD DUP5 SWAP1 MSTORE PUSH32 0x0 PUSH1 0x1 PUSH1 0x1 PUSH1 0xA0 SHL SUB AND SWAP1 PUSH4 0xE9AC0440 SWAP1 PUSH1 0x24 ADD PUSH1 0x20 PUSH1 0x40 MLOAD DUP1 DUP4 SUB DUP2 DUP7 GAS STATICCALL ISZERO DUP1 ISZERO PUSH2 0x111E JUMPI RETURNDATASIZE PUSH1 0x0 DUP1 RETURNDATACOPY RETURNDATASIZE PUSH1 0x0 REVERT JUMPDEST POP POP POP POP PUSH1 0x40 MLOAD RETURNDATASIZE PUSH1 0x1F NOT PUSH1 0x1F DUP3 ADD AND DUP3 ADD DUP1 PUSH1 0x40 MSTORE POP DUP2 ADD SWAP1 PUSH2 0x1142 SWAP2 SWAP1 PUSH2 0x2B85 JUMP JUMPDEST ISZERO PUSH2 0x118F JUMPI PUSH1 0x40 MLOAD PUSH3 0x461BCD PUSH1 0xE5 SHL DUP2 MSTORE PUSH1 0x20 PUSH1 0x4 DUP3 ADD MSTORE PUSH1 0x1C PUSH1 0x24 DUP3 ADD MSTORE PUSH32 0x4A61736D696E654D696E7465723A2066726F7A656E2073657269657300000000 PUSH1 0x44 DUP3 ADD MSTORE PUSH1 0x64 ADD PUSH2 0x661 JUMP JUMPDEST CALLER PUSH1 0x1 PUSH1 0x1 PUSH1 0xA0 SHL SUB AND PUSH32 0x422475C8264E559FA982D4F66450A9BD1D5BEE42CF8A98F6E032D1715B859552 DUP5 DUP5 DUP5 PUSH1 0x40 MLOAD PUSH2 0x11CC SWAP4 SWAP3 SWAP2 SWAP1 PUSH2 0x2BA7 JUMP JUMPDEST PUSH1 0x40 MLOAD DUP1 SWAP2 SUB SWAP1 LOG2 PUSH1 0x40 MLOAD PUSH4 0x7A94C565 PUSH1 0xE1 SHL DUP2 MSTORE CALLER PUSH1 0x4 DUP3 ADD MSTORE PUSH1 0x24 DUP2 ADD DUP5 SWAP1 MSTORE PUSH1 0x44 DUP2 ADD DUP4 SWAP1 MSTORE PUSH32 0x0 PUSH1 0x1 PUSH1 0x1 PUSH1 0xA0 SHL SUB AND SWAP1 PUSH4 0xF5298ACA SWAP1 PUSH1 0x64 ADD JUMPDEST PUSH1 0x0 PUSH1 0x40 MLOAD DUP1 DUP4 SUB DUP2 PUSH1 0x0 DUP8 DUP1 EXTCODESIZE ISZERO DUP1 ISZERO PUSH2 0x1244 JUMPI PUSH1 0x0 DUP1 REVERT JUMPDEST POP GAS CALL ISZERO DUP1 ISZERO PUSH2 0x1258 JUMPI RETURNDATASIZE PUSH1 0x0 DUP1 RETURNDATACOPY RETURNDATASIZE PUSH1 0x0 REVERT JUMPDEST POP POP POP POP POP POP POP JUMP JUMPDEST PUSH1 0x0 PUSH1 0x60 DUP1 PUSH1 0x0 DUP1 PUSH1 0x0 PUSH1 0x60 PUSH1 0xFB SLOAD PUSH1 0x0 DUP1 SHL EQ DUP1 ISZERO PUSH2 0x1281 JUMPI POP PUSH1 0xFC SLOAD ISZERO JUMPDEST PUSH2 0x12CD JUMPI PUSH1 0x40 MLOAD PUSH3 0x461BCD PUSH1 0xE5 SHL DUP2 MSTORE PUSH1 0x20 PUSH1 0x4 DUP3 ADD MSTORE PUSH1 0x15 PUSH1 0x24 DUP3 ADD MSTORE PUSH32 0x4549503731323A20556E696E697469616C697A65640000000000000000000000 PUSH1 0x44 DUP3 ADD MSTORE PUSH1 0x64 ADD PUSH2 0x661 JUMP JUMPDEST PUSH2 0x12D5 PUSH2 0x1BE9 JUMP JUMPDEST PUSH2 0x12DD PUSH2 0x1C7B JUMP JUMPDEST PUSH1 0x40 DUP1 MLOAD PUSH1 0x0 DUP1 DUP3 MSTORE PUSH1 0x20 DUP3 ADD SWAP1 SWAP3 MSTORE PUSH1 0xF PUSH1 0xF8 SHL SWAP12 SWAP4 SWAP11 POP SWAP2 SWAP9 POP CHAINID SWAP8 POP ADDRESS SWAP7 POP SWAP5 POP SWAP3 POP SWAP1 POP JUMP JUMPDEST PUSH2 0x130F PUSH2 0x1B76 JUMP JUMPDEST PUSH2 0x12F DUP1 SLOAD PUSH1 0x1 PUSH1 0x1 PUSH1 0xA0 SHL SUB NOT AND PUSH1 0x1 PUSH1 0x1 PUSH1 0xA0 SHL SUB DUP4 AND SWAP1 DUP2 OR SWAP1 SWAP2 SSTORE PUSH1 0x40 MLOAD PUSH32 0x9775531310B2880B61484ED85CBB0B491C8FDE3A07F289C63B92551782794497 SWAP1 PUSH1 0x0 SWAP1 LOG2 POP JUMP JUMPDEST PUSH1 0x0 SLOAD PUSH2 0x100 SWAP1 DIV PUSH1 0xFF AND ISZERO DUP1 DUP1 ISZERO PUSH2 0x137A JUMPI POP PUSH1 0x0 SLOAD PUSH1 0x1 PUSH1 0xFF SWAP1 SWAP2 AND LT JUMPDEST DUP1 PUSH2 0x1394 JUMPI POP ADDRESS EXTCODESIZE ISZERO DUP1 ISZERO PUSH2 0x1394 JUMPI POP PUSH1 0x0 SLOAD PUSH1 0xFF AND PUSH1 0x1 EQ JUMPDEST PUSH2 0x13F7 JUMPI PUSH1 0x40 MLOAD PUSH3 0x461BCD PUSH1 0xE5 SHL DUP2 MSTORE PUSH1 0x20 PUSH1 0x4 DUP3 ADD MSTORE PUSH1 0x2E PUSH1 0x24 DUP3 ADD MSTORE PUSH32 0x496E697469616C697A61626C653A20636F6E747261637420697320616C726561 PUSH1 0x44 DUP3 ADD MSTORE PUSH14 0x191E481A5B9A5D1A585B1A5E9959 PUSH1 0x92 SHL PUSH1 0x64 DUP3 ADD MSTORE PUSH1 0x84 ADD PUSH2 0x661 JUMP JUMPDEST PUSH1 0x0 DUP1 SLOAD PUSH1 0xFF NOT AND PUSH1 0x1 OR SWAP1 SSTORE DUP1 ISZERO PUSH2 0x141A JUMPI PUSH1 0x0 DUP1 SLOAD PUSH2 0xFF00 NOT AND PUSH2 0x100 OR SWAP1 SSTORE JUMPDEST PUSH1 0x1 PUSH1 0x1 PUSH1 0xA0 SHL SUB PUSH32 0x0 AND ADDRESS SUB PUSH2 0x1462 JUMPI PUSH1 0x40 MLOAD PUSH3 0x461BCD PUSH1 0xE5 SHL DUP2 MSTORE PUSH1 0x4 ADD PUSH2 0x661 SWAP1 PUSH2 0x2ABF JUMP JUMPDEST PUSH32 0x0 PUSH1 0x1 PUSH1 0x1 PUSH1 0xA0 SHL SUB AND PUSH2 0x14AB PUSH1 0x0 DUP1 MLOAD PUSH1 0x20 PUSH2 0x2DE1 DUP4 CODECOPY DUP2 MLOAD SWAP2 MSTORE SLOAD PUSH1 0x1 PUSH1 0x1 PUSH1 0xA0 SHL SUB AND SWAP1 JUMP JUMPDEST PUSH1 0x1 PUSH1 0x1 PUSH1 0xA0 SHL SUB AND EQ PUSH2 0x14D1 JUMPI PUSH1 0x40 MLOAD PUSH3 0x461BCD PUSH1 0xE5 SHL DUP2 MSTORE PUSH1 0x4 ADD PUSH2 0x661 SWAP1 PUSH2 0x2B0B JUMP JUMPDEST PUSH2 0x14DA DUP3 PUSH2 0x1BD0 JUMP JUMPDEST PUSH2 0x14E2 PUSH2 0x1C8A JUMP JUMPDEST PUSH2 0x14EC DUP6 DUP6 PUSH2 0x1CB1 JUMP JUMPDEST PUSH2 0x130 PUSH2 0x14F9 DUP7 DUP3 PUSH2 0x2C1D JUMP JUMPDEST POP PUSH2 0x131 PUSH2 0x1507 DUP6 DUP3 PUSH2 0x2C1D JUMP JUMPDEST POP PUSH2 0x12F DUP1 SLOAD PUSH1 0x1 PUSH1 0x1 PUSH1 0xA0 SHL SUB NOT AND PUSH1 0x1 PUSH1 0x1 PUSH1 0xA0 SHL SUB DUP6 AND SWAP1 DUP2 OR SWAP1 SWAP2 SSTORE PUSH1 0x40 MLOAD PUSH32 0x9775531310B2880B61484ED85CBB0B491C8FDE3A07F289C63B92551782794497 SWAP1 PUSH1 0x0 SWAP1 LOG2 DUP1 ISZERO PUSH2 0x1596 JUMPI PUSH1 0x0 DUP1 SLOAD PUSH2 0xFF00 NOT AND SWAP1 SSTORE PUSH1 0x40 MLOAD PUSH1 0x1 DUP2 MSTORE PUSH32 0x7F26B83FF96E1F2B6A682F133852F6798A09C465DA95921460CEFB3847402498 SWAP1 PUSH1 0x20 ADD PUSH1 0x40 MLOAD DUP1 SWAP2 SUB SWAP1 LOG1 JUMPDEST POP POP POP POP POP JUMP JUMPDEST PUSH1 0x1 PUSH1 0x1 PUSH1 0xA0 SHL SUB PUSH32 0x0 AND ADDRESS SUB PUSH2 0x15E5 JUMPI PUSH1 0x40 MLOAD PUSH3 0x461BCD PUSH1 0xE5 SHL DUP2 MSTORE PUSH1 0x4 ADD PUSH2 0x661 SWAP1 PUSH2 0x2ABF JUMP JUMPDEST PUSH32 0x0 PUSH1 0x1 PUSH1 0x1 PUSH1 0xA0 SHL SUB AND PUSH2 0x162E PUSH1 0x0 DUP1 MLOAD PUSH1 0x20 PUSH2 0x2DE1 DUP4 CODECOPY DUP2 MLOAD SWAP2 MSTORE SLOAD PUSH1 0x1 PUSH1 0x1 PUSH1 0xA0 SHL SUB AND SWAP1 JUMP JUMPDEST PUSH1 0x1 PUSH1 0x1 PUSH1 0xA0 SHL SUB AND EQ PUSH2 0x1654 JUMPI PUSH1 0x40 MLOAD PUSH3 0x461BCD PUSH1 0xE5 SHL DUP2 MSTORE PUSH1 0x4 ADD PUSH2 0x661 SWAP1 PUSH2 0x2B0B JUMP JUMPDEST PUSH1 0x0 JUMPDEST DUP4 MLOAD DUP2 LT ISZERO PUSH2 0x1767 JUMPI PUSH32 0x0 PUSH1 0x1 PUSH1 0x1 PUSH1 0xA0 SHL SUB AND PUSH4 0xE9AC0440 DUP6 DUP4 DUP2 MLOAD DUP2 LT PUSH2 0x16A1 JUMPI PUSH2 0x16A1 PUSH2 0x29CD JUMP JUMPDEST PUSH1 0x20 MUL PUSH1 0x20 ADD ADD MLOAD PUSH1 0x40 MLOAD DUP3 PUSH4 0xFFFFFFFF AND PUSH1 0xE0 SHL DUP2 MSTORE PUSH1 0x4 ADD PUSH2 0x16C7 SWAP2 DUP2 MSTORE PUSH1 0x20 ADD SWAP1 JUMP JUMPDEST PUSH1 0x20 PUSH1 0x40 MLOAD DUP1 DUP4 SUB DUP2 DUP7 GAS STATICCALL ISZERO DUP1 ISZERO PUSH2 0x16E4 JUMPI RETURNDATASIZE PUSH1 0x0 DUP1 RETURNDATACOPY RETURNDATASIZE PUSH1 0x0 REVERT JUMPDEST POP POP POP POP PUSH1 0x40 MLOAD RETURNDATASIZE PUSH1 0x1F NOT PUSH1 0x1F DUP3 ADD AND DUP3 ADD DUP1 PUSH1 0x40 MSTORE POP DUP2 ADD SWAP1 PUSH2 0x1708 SWAP2 SWAP1 PUSH2 0x2B85 JUMP JUMPDEST ISZERO PUSH2 0x1755 JUMPI PUSH1 0x40 MLOAD PUSH3 0x461BCD PUSH1 0xE5 SHL DUP2 MSTORE PUSH1 0x20 PUSH1 0x4 DUP3 ADD MSTORE PUSH1 0x1C PUSH1 0x24 DUP3 ADD MSTORE PUSH32 0x4A61736D696E654D696E7465723A2066726F7A656E2073657269657300000000 PUSH1 0x44 DUP3 ADD MSTORE PUSH1 0x64 ADD PUSH2 0x661 JUMP JUMPDEST DUP1 PUSH2 0x175F DUP2 PUSH2 0x29E3 JUMP JUMPDEST SWAP2 POP POP PUSH2 0x1657 JUMP JUMPDEST POP CALLER PUSH1 0x1 PUSH1 0x1 PUSH1 0xA0 SHL SUB AND PUSH32 0xF989B967AB06CB95FFA87EDFC41B030132A3A687E55E92FAF63512234D18E28F DUP5 DUP5 DUP5 PUSH1 0x40 MLOAD PUSH2 0x17A5 SWAP4 SWAP3 SWAP2 SWAP1 PUSH2 0x2CDD JUMP JUMPDEST PUSH1 0x40 MLOAD DUP1 SWAP2 SUB SWAP1 LOG2 PUSH1 0x40 MLOAD PUSH4 0x1AC83115 PUSH1 0xE2 SHL DUP2 MSTORE PUSH32 0x0 PUSH1 0x1 PUSH1 0x1 PUSH1 0xA0 SHL SUB AND SWAP1 PUSH4 0x6B20C454 SWAP1 PUSH2 0x122A SWAP1 CALLER SWAP1 DUP8 SWAP1 DUP8 SWAP1 PUSH1 0x4 ADD PUSH2 0x2D16 JUMP JUMPDEST PUSH1 0x40 DUP1 MLOAD PUSH32 0xB0426304B718D58E27F05888D480CC1C9C956AFAAB3BA8D45AFCCE29F30D6448 PUSH1 0x20 DUP1 DUP4 ADD SWAP2 SWAP1 SWAP2 MSTORE DUP2 DUP4 ADD DUP6 SWAP1 MSTORE DUP3 MLOAD DUP1 DUP4 SUB DUP5 ADD DUP2 MSTORE PUSH1 0x60 SWAP1 SWAP3 ADD SWAP1 SWAP3 MSTORE DUP1 MLOAD SWAP2 ADD KECCAK256 PUSH2 0x12F SLOAD PUSH1 0x1 PUSH1 0x1 PUSH1 0xA0 SHL SUB AND PUSH2 0x1860 PUSH2 0xC02 DUP4 PUSH2 0x199D JUMP JUMPDEST PUSH1 0x1 PUSH1 0x1 PUSH1 0xA0 SHL SUB AND EQ PUSH2 0x1886 JUMPI PUSH1 0x40 MLOAD PUSH3 0x461BCD PUSH1 0xE5 SHL DUP2 MSTORE PUSH1 0x4 ADD PUSH2 0x661 SWAP1 PUSH2 0x2A0A JUMP JUMPDEST PUSH1 0x0 DUP4 DUP2 MSTORE PUSH2 0x132 PUSH1 0x20 MSTORE PUSH1 0x40 SWAP1 KECCAK256 SLOAD PUSH1 0xFF AND ISZERO PUSH2 0x18E6 JUMPI PUSH1 0x40 MLOAD PUSH3 0x461BCD PUSH1 0xE5 SHL DUP2 MSTORE PUSH1 0x20 PUSH1 0x4 DUP3 ADD MSTORE PUSH1 0x1B PUSH1 0x24 DUP3 ADD MSTORE PUSH32 0x4A61736D696E654D696E7465723A206E6F6E6365207265706C61790000000000 PUSH1 0x44 DUP3 ADD MSTORE PUSH1 0x64 ADD PUSH2 0x661 JUMP JUMPDEST PUSH1 0x0 DUP4 DUP2 MSTORE PUSH2 0x132 PUSH1 0x20 MSTORE PUSH1 0x40 DUP1 DUP3 KECCAK256 DUP1 SLOAD PUSH1 0xFF NOT AND PUSH1 0x1 OR SWAP1 SSTORE MLOAD DUP5 SWAP2 PUSH32 0x70CD0C14252EDEF0440009634A4E86036A1747C9FBE7E4C2C05B8B62F9C410E2 SWAP2 LOG2 POP POP POP JUMP JUMPDEST PUSH2 0x1934 PUSH2 0x1B76 JUMP JUMPDEST PUSH1 0x65 DUP1 SLOAD PUSH1 0x1 PUSH1 0x1 PUSH1 0xA0 SHL SUB DUP4 AND PUSH1 0x1 PUSH1 0x1 PUSH1 0xA0 SHL SUB NOT SWAP1 SWAP2 AND DUP2 OR SWAP1 SWAP2 SSTORE PUSH2 0x1965 PUSH1 0x33 SLOAD PUSH1 0x1 PUSH1 0x1 PUSH1 0xA0 SHL SUB AND SWAP1 JUMP JUMPDEST PUSH1 0x1 PUSH1 0x1 PUSH1 0xA0 SHL SUB AND PUSH32 0x38D16B8CAC22D99FC7C124B9CD0DE2D3FA1FAEF420BFE791D8C362D765E22700 PUSH1 0x40 MLOAD PUSH1 0x40 MLOAD DUP1 SWAP2 SUB SWAP1 LOG3 POP JUMP JUMPDEST PUSH1 0x0 PUSH2 0x19CA PUSH2 0x19AA PUSH2 0x19F4 JUMP JUMPDEST DUP4 PUSH1 0x40 MLOAD PUSH2 0x1901 PUSH1 0xF0 SHL DUP2 MSTORE PUSH1 0x2 DUP2 ADD SWAP3 SWAP1 SWAP3 MSTORE PUSH1 0x22 DUP3 ADD MSTORE PUSH1 0x42 SWAP1 KECCAK256 SWAP1 JUMP JUMPDEST SWAP3 SWAP2 POP POP JUMP JUMPDEST PUSH1 0x0 DUP1 PUSH1 0x0 PUSH2 0x19DF DUP6 DUP6 PUSH2 0x1CE2 JUMP JUMPDEST SWAP2 POP SWAP2 POP PUSH2 0x19EC DUP2 PUSH2 0x1D27 JUMP JUMPDEST POP SWAP4 SWAP3 POP POP POP JUMP JUMPDEST PUSH1 0x0 PUSH2 0xA47 PUSH2 0x1E71 JUMP JUMPDEST PUSH2 0xB28 PUSH2 0x1B76 JUMP JUMPDEST PUSH32 0x4910FDFA16FED3260ED0E7147F7CC6DA11A60208B5B9406D12A635614FFD9143 SLOAD PUSH1 0xFF AND ISZERO PUSH2 0x1A3E JUMPI PUSH2 0x1A39 DUP4 PUSH2 0x1EE5 JUMP JUMPDEST POP POP POP JUMP JUMPDEST DUP3 PUSH1 0x1 PUSH1 0x1 PUSH1 0xA0 SHL SUB AND PUSH4 0x52D1902D PUSH1 0x40 MLOAD DUP2 PUSH4 0xFFFFFFFF AND PUSH1 0xE0 SHL DUP2 MSTORE PUSH1 0x4 ADD PUSH1 0x20 PUSH1 0x40 MLOAD DUP1 DUP4 SUB DUP2 DUP7 GAS STATICCALL SWAP3 POP POP POP DUP1 ISZERO PUSH2 0x1A98 JUMPI POP PUSH1 0x40 DUP1 MLOAD PUSH1 0x1F RETURNDATASIZE SWAP1 DUP2 ADD PUSH1 0x1F NOT AND DUP3 ADD SWAP1 SWAP3 MSTORE PUSH2 0x1A95 SWAP2 DUP2 ADD SWAP1 PUSH2 0x2D4A JUMP JUMPDEST PUSH1 0x1 JUMPDEST PUSH2 0x1AFB JUMPI PUSH1 0x40 MLOAD PUSH3 0x461BCD PUSH1 0xE5 SHL DUP2 MSTORE PUSH1 0x20 PUSH1 0x4 DUP3 ADD MSTORE PUSH1 0x2E PUSH1 0x24 DUP3 ADD MSTORE PUSH32 0x45524331393637557067726164653A206E657720696D706C656D656E74617469 PUSH1 0x44 DUP3 ADD MSTORE PUSH14 0x6F6E206973206E6F742055555053 PUSH1 0x90 SHL PUSH1 0x64 DUP3 ADD MSTORE PUSH1 0x84 ADD PUSH2 0x661 JUMP JUMPDEST PUSH1 0x0 DUP1 MLOAD PUSH1 0x20 PUSH2 0x2DE1 DUP4 CODECOPY DUP2 MLOAD SWAP2 MSTORE DUP2 EQ PUSH2 0x1B6A JUMPI PUSH1 0x40 MLOAD PUSH3 0x461BCD PUSH1 0xE5 SHL DUP2 MSTORE PUSH1 0x20 PUSH1 0x4 DUP3 ADD MSTORE PUSH1 0x29 PUSH1 0x24 DUP3 ADD MSTORE PUSH32 0x45524331393637557067726164653A20756E737570706F727465642070726F78 PUSH1 0x44 DUP3 ADD MSTORE PUSH9 0x1A58589B1955555251 PUSH1 0xBA SHL PUSH1 0x64 DUP3 ADD MSTORE PUSH1 0x84 ADD PUSH2 0x661 JUMP JUMPDEST POP PUSH2 0x1A39 DUP4 DUP4 DUP4 PUSH2 0x1F81 JUMP JUMPDEST PUSH1 0x33 SLOAD PUSH1 0x1 PUSH1 0x1 PUSH1 0xA0 SHL SUB AND CALLER EQ PUSH2 0xF89 JUMPI PUSH1 0x40 MLOAD PUSH3 0x461BCD PUSH1 0xE5 SHL DUP2 MSTORE PUSH1 0x20 PUSH1 0x4 DUP3 ADD DUP2 SWAP1 MSTORE PUSH1 0x24 DUP3 ADD MSTORE PUSH32 0x4F776E61626C653A2063616C6C6572206973206E6F7420746865206F776E6572 PUSH1 0x44 DUP3 ADD MSTORE PUSH1 0x64 ADD PUSH2 0x661 JUMP JUMPDEST PUSH1 0x65 DUP1 SLOAD PUSH1 0x1 PUSH1 0x1 PUSH1 0xA0 SHL SUB NOT AND SWAP1 SSTORE PUSH2 0xB28 DUP2 PUSH2 0x1FAC JUMP JUMPDEST PUSH1 0x60 PUSH1 0xFD DUP1 SLOAD PUSH2 0x1BF8 SWAP1 PUSH2 0x2993 JUMP JUMPDEST DUP1 PUSH1 0x1F ADD PUSH1 0x20 DUP1 SWAP2 DIV MUL PUSH1 0x20 ADD PUSH1 0x40 MLOAD SWAP1 DUP2 ADD PUSH1 0x40 MSTORE DUP1 SWAP3 SWAP2 SWAP1 DUP2 DUP2 MSTORE PUSH1 0x20 ADD DUP3 DUP1 SLOAD PUSH2 0x1C24 SWAP1 PUSH2 0x2993 JUMP JUMPDEST DUP1 ISZERO PUSH2 0x1C71 JUMPI DUP1 PUSH1 0x1F LT PUSH2 0x1C46 JUMPI PUSH2 0x100 DUP1 DUP4 SLOAD DIV MUL DUP4 MSTORE SWAP2 PUSH1 0x20 ADD SWAP2 PUSH2 0x1C71 JUMP JUMPDEST DUP3 ADD SWAP2 SWAP1 PUSH1 0x0 MSTORE PUSH1 0x20 PUSH1 0x0 KECCAK256 SWAP1 JUMPDEST DUP2 SLOAD DUP2 MSTORE SWAP1 PUSH1 0x1 ADD SWAP1 PUSH1 0x20 ADD DUP1 DUP4 GT PUSH2 0x1C54 JUMPI DUP3 SWAP1 SUB PUSH1 0x1F AND DUP3 ADD SWAP2 JUMPDEST POP POP POP POP POP SWAP1 POP SWAP1 JUMP JUMPDEST PUSH1 0x60 PUSH1 0xFE DUP1 SLOAD PUSH2 0x1BF8 SWAP1 PUSH2 0x2993 JUMP JUMPDEST PUSH1 0x0 SLOAD PUSH2 0x100 SWAP1 DIV PUSH1 0xFF AND PUSH2 0xF89 JUMPI PUSH1 0x40 MLOAD PUSH3 0x461BCD PUSH1 0xE5 SHL DUP2 MSTORE PUSH1 0x4 ADD PUSH2 0x661 SWAP1 PUSH2 0x2D63 JUMP JUMPDEST PUSH1 0x0 SLOAD PUSH2 0x100 SWAP1 DIV PUSH1 0xFF AND PUSH2 0x1CD8 JUMPI PUSH1 0x40 MLOAD PUSH3 0x461BCD PUSH1 0xE5 SHL DUP2 MSTORE PUSH1 0x4 ADD PUSH2 0x661 SWAP1 PUSH2 0x2D63 JUMP JUMPDEST PUSH2 0xEB2 DUP3 DUP3 PUSH2 0x1FFE JUMP JUMPDEST PUSH1 0x0 DUP1 DUP3 MLOAD PUSH1 0x41 SUB PUSH2 0x1D18 JUMPI PUSH1 0x20 DUP4 ADD MLOAD PUSH1 0x40 DUP5 ADD MLOAD PUSH1 0x60 DUP6 ADD MLOAD PUSH1 0x0 BYTE PUSH2 0x1D0C DUP8 DUP3 DUP6 DUP6 PUSH2 0x204D JUMP JUMPDEST SWAP5 POP SWAP5 POP POP POP POP PUSH2 0x1D20 JUMP JUMPDEST POP PUSH1 0x0 SWAP1 POP PUSH1 0x2 JUMPDEST SWAP3 POP SWAP3 SWAP1 POP JUMP JUMPDEST PUSH1 0x0 DUP2 PUSH1 0x4 DUP2 GT ISZERO PUSH2 0x1D3B JUMPI PUSH2 0x1D3B PUSH2 0x2DAE JUMP JUMPDEST SUB PUSH2 0x1D43 JUMPI POP JUMP JUMPDEST PUSH1 0x1 DUP2 PUSH1 0x4 DUP2 GT ISZERO PUSH2 0x1D57 JUMPI PUSH2 0x1D57 PUSH2 0x2DAE JUMP JUMPDEST SUB PUSH2 0x1DA4 JUMPI PUSH1 0x40 MLOAD PUSH3 0x461BCD PUSH1 0xE5 SHL DUP2 MSTORE PUSH1 0x20 PUSH1 0x4 DUP3 ADD MSTORE PUSH1 0x18 PUSH1 0x24 DUP3 ADD MSTORE PUSH32 0x45434453413A20696E76616C6964207369676E61747572650000000000000000 PUSH1 0x44 DUP3 ADD MSTORE PUSH1 0x64 ADD PUSH2 0x661 JUMP JUMPDEST PUSH1 0x2 DUP2 PUSH1 0x4 DUP2 GT ISZERO PUSH2 0x1DB8 JUMPI PUSH2 0x1DB8 PUSH2 0x2DAE JUMP JUMPDEST SUB PUSH2 0x1E05 JUMPI PUSH1 0x40 MLOAD PUSH3 0x461BCD PUSH1 0xE5 SHL DUP2 MSTORE PUSH1 0x20 PUSH1 0x4 DUP3 ADD MSTORE PUSH1 0x1F PUSH1 0x24 DUP3 ADD MSTORE PUSH32 0x45434453413A20696E76616C6964207369676E6174757265206C656E67746800 PUSH1 0x44 DUP3 ADD MSTORE PUSH1 0x64 ADD PUSH2 0x661 JUMP JUMPDEST PUSH1 0x3 DUP2 PUSH1 0x4 DUP2 GT ISZERO PUSH2 0x1E19 JUMPI PUSH2 0x1E19 PUSH2 0x2DAE JUMP JUMPDEST SUB PUSH2 0xB28 JUMPI PUSH1 0x40 MLOAD PUSH3 0x461BCD PUSH1 0xE5 SHL DUP2 MSTORE PUSH1 0x20 PUSH1 0x4 DUP3 ADD MSTORE PUSH1 0x22 PUSH1 0x24 DUP3 ADD MSTORE PUSH32 0x45434453413A20696E76616C6964207369676E6174757265202773272076616C PUSH1 0x44 DUP3 ADD MSTORE PUSH2 0x7565 PUSH1 0xF0 SHL PUSH1 0x64 DUP3 ADD MSTORE PUSH1 0x84 ADD PUSH2 0x661 JUMP JUMPDEST PUSH1 0x0 PUSH32 0x8B73C3C69BB8FE3D512ECC4CF759CC79239F7B179B0FFACAA9A75D522B39400F PUSH2 0x1E9C PUSH2 0x2111 JUMP JUMPDEST PUSH2 0x1EA4 PUSH2 0x216A JUMP JUMPDEST PUSH1 0x40 DUP1 MLOAD PUSH1 0x20 DUP2 ADD SWAP5 SWAP1 SWAP5 MSTORE DUP4 ADD SWAP2 SWAP1 SWAP2 MSTORE PUSH1 0x60 DUP3 ADD MSTORE CHAINID PUSH1 0x80 DUP3 ADD MSTORE ADDRESS PUSH1 0xA0 DUP3 ADD MSTORE PUSH1 0xC0 ADD PUSH1 0x40 MLOAD PUSH1 0x20 DUP2 DUP4 SUB SUB DUP2 MSTORE SWAP1 PUSH1 0x40 MSTORE DUP1 MLOAD SWAP1 PUSH1 0x20 ADD KECCAK256 SWAP1 POP SWAP1 JUMP JUMPDEST PUSH1 0x1 PUSH1 0x1 PUSH1 0xA0 SHL SUB DUP2 AND EXTCODESIZE PUSH2 0x1F52 JUMPI PUSH1 0x40 MLOAD PUSH3 0x461BCD PUSH1 0xE5 SHL DUP2 MSTORE PUSH1 0x20 PUSH1 0x4 DUP3 ADD MSTORE PUSH1 0x2D PUSH1 0x24 DUP3 ADD MSTORE PUSH32 0x455243313936373A206E657720696D706C656D656E746174696F6E206973206E PUSH1 0x44 DUP3 ADD MSTORE PUSH13 0x1BDD08184818DBDB9D1C9858DD PUSH1 0x9A SHL PUSH1 0x64 DUP3 ADD MSTORE PUSH1 0x84 ADD PUSH2 0x661 JUMP JUMPDEST PUSH1 0x0 DUP1 MLOAD PUSH1 0x20 PUSH2 0x2DE1 DUP4 CODECOPY DUP2 MLOAD SWAP2 MSTORE DUP1 SLOAD PUSH1 0x1 PUSH1 0x1 PUSH1 0xA0 SHL SUB NOT AND PUSH1 0x1 PUSH1 0x1 PUSH1 0xA0 SHL SUB SWAP3 SWAP1 SWAP3 AND SWAP2 SWAP1 SWAP2 OR SWAP1 SSTORE JUMP JUMPDEST PUSH2 0x1F8A DUP4 PUSH2 0x219B JUMP JUMPDEST PUSH1 0x0 DUP3 MLOAD GT DUP1 PUSH2 0x1F97 JUMPI POP DUP1 JUMPDEST ISZERO PUSH2 0x1A39 JUMPI PUSH2 0x1FA6 DUP4 DUP4 PUSH2 0x21DB JUMP JUMPDEST POP POP POP POP JUMP JUMPDEST PUSH1 0x33 DUP1 SLOAD PUSH1 0x1 PUSH1 0x1 PUSH1 0xA0 SHL SUB DUP4 DUP2 AND PUSH1 0x1 PUSH1 0x1 PUSH1 0xA0 SHL SUB NOT DUP4 AND DUP2 OR SWAP1 SWAP4 SSTORE PUSH1 0x40 MLOAD SWAP2 AND SWAP2 SWAP1 DUP3 SWAP1 PUSH32 0x8BE0079C531659141344CD1FD0A4F28419497F9722A3DAAFE3B4186F6B6457E0 SWAP1 PUSH1 0x0 SWAP1 LOG3 POP POP JUMP JUMPDEST PUSH1 0x0 SLOAD PUSH2 0x100 SWAP1 DIV PUSH1 0xFF AND PUSH2 0x2025 JUMPI PUSH1 0x40 MLOAD PUSH3 0x461BCD PUSH1 0xE5 SHL DUP2 MSTORE PUSH1 0x4 ADD PUSH2 0x661 SWAP1 PUSH2 0x2D63 JUMP JUMPDEST PUSH1 0xFD PUSH2 0x2031 DUP4 DUP3 PUSH2 0x2C1D JUMP JUMPDEST POP PUSH1 0xFE PUSH2 0x203E DUP3 DUP3 PUSH2 0x2C1D JUMP JUMPDEST POP POP PUSH1 0x0 PUSH1 0xFB DUP2 SWAP1 SSTORE PUSH1 0xFC SSTORE POP JUMP JUMPDEST PUSH1 0x0 DUP1 PUSH32 0x7FFFFFFFFFFFFFFFFFFFFFFFFFFFFFFF5D576E7357A4501DDFE92F46681B20A0 DUP4 GT ISZERO PUSH2 0x2084 JUMPI POP PUSH1 0x0 SWAP1 POP PUSH1 0x3 PUSH2 0x2108 JUMP JUMPDEST PUSH1 0x40 DUP1 MLOAD PUSH1 0x0 DUP1 DUP3 MSTORE PUSH1 0x20 DUP3 ADD DUP1 DUP5 MSTORE DUP10 SWAP1 MSTORE PUSH1 0xFF DUP9 AND SWAP3 DUP3 ADD SWAP3 SWAP1 SWAP3 MSTORE PUSH1 0x60 DUP2 ADD DUP7 SWAP1 MSTORE PUSH1 0x80 DUP2 ADD DUP6 SWAP1 MSTORE PUSH1 0x1 SWAP1 PUSH1 0xA0 ADD PUSH1 0x20 PUSH1 0x40 MLOAD PUSH1 0x20 DUP2 SUB SWAP1 DUP1 DUP5 SUB SWAP1 DUP6 GAS STATICCALL ISZERO DUP1 ISZERO PUSH2 0x20D8 JUMPI RETURNDATASIZE PUSH1 0x0 DUP1 RETURNDATACOPY RETURNDATASIZE PUSH1 0x0 REVERT JUMPDEST POP POP PUSH1 0x40 MLOAD PUSH1 0x1F NOT ADD MLOAD SWAP2 POP POP PUSH1 0x1 PUSH1 0x1 PUSH1 0xA0 SHL SUB DUP2 AND PUSH2 0x2101 JUMPI PUSH1 0x0 PUSH1 0x1 SWAP3 POP SWAP3 POP POP PUSH2 0x2108 JUMP JUMPDEST SWAP2 POP PUSH1 0x0 SWAP1 POP JUMPDEST SWAP5 POP SWAP5 SWAP3 POP POP POP JUMP JUMPDEST PUSH1 0x0 DUP1 PUSH2 0x211C PUSH2 0x1BE9 JUMP JUMPDEST DUP1 MLOAD SWAP1 SWAP2 POP ISZERO PUSH2 0x2133 JUMPI DUP1 MLOAD PUSH1 0x20 SWAP1 SWAP2 ADD KECCAK256 SWAP2 SWAP1 POP JUMP JUMPDEST PUSH1 0xFB SLOAD DUP1 ISZERO PUSH2 0x2142 JUMPI SWAP3 SWAP2 POP POP JUMP JUMPDEST PUSH32 0xC5D2460186F7233C927E7DB2DCC703C0E500B653CA82273B7BFAD8045D85A470 SWAP3 POP POP POP SWAP1 JUMP JUMPDEST PUSH1 0x0 DUP1 PUSH2 0x2175 PUSH2 0x1C7B JUMP JUMPDEST DUP1 MLOAD SWAP1 SWAP2 POP ISZERO PUSH2 0x218C JUMPI DUP1 MLOAD PUSH1 0x20 SWAP1 SWAP2 ADD KECCAK256 SWAP2 SWAP1 POP JUMP JUMPDEST PUSH1 0xFC SLOAD DUP1 ISZERO PUSH2 0x2142 JUMPI SWAP3 SWAP2 POP POP JUMP JUMPDEST PUSH2 0x21A4 DUP2 PUSH2 0x1EE5 JUMP JUMPDEST PUSH1 0x40 MLOAD PUSH1 0x1 PUSH1 0x1 PUSH1 0xA0 SHL SUB DUP3 AND SWAP1 PUSH32 0xBC7CD75A20EE27FD9ADEBAB32041F755214DBC6BFFA90CC0225B39DA2E5C2D3B SWAP1 PUSH1 0x0 SWAP1 LOG2 POP JUMP JUMPDEST PUSH1 0x60 PUSH2 0x2200 DUP4 DUP4 PUSH1 0x40 MLOAD DUP1 PUSH1 0x60 ADD PUSH1 0x40 MSTORE DUP1 PUSH1 0x27 DUP2 MSTORE PUSH1 0x20 ADD PUSH2 0x2E01 PUSH1 0x27 SWAP2 CODECOPY PUSH2 0x2207 JUMP JUMPDEST SWAP4 SWAP3 POP POP POP JUMP JUMPDEST PUSH1 0x60 PUSH1 0x0 DUP1 DUP6 PUSH1 0x1 PUSH1 0x1 PUSH1 0xA0 SHL SUB AND DUP6 PUSH1 0x40 MLOAD PUSH2 0x2224 SWAP2 SWAP1 PUSH2 0x2DC4 JUMP JUMPDEST PUSH1 0x0 PUSH1 0x40 MLOAD DUP1 DUP4 SUB DUP2 DUP6 GAS DELEGATECALL SWAP2 POP POP RETURNDATASIZE DUP1 PUSH1 0x0 DUP2 EQ PUSH2 0x225F JUMPI PUSH1 0x40 MLOAD SWAP2 POP PUSH1 0x1F NOT PUSH1 0x3F RETURNDATASIZE ADD AND DUP3 ADD PUSH1 0x40 MSTORE RETURNDATASIZE DUP3 MSTORE RETURNDATASIZE PUSH1 0x0 PUSH1 0x20 DUP5 ADD RETURNDATACOPY PUSH2 0x2264 JUMP JUMPDEST PUSH1 0x60 SWAP2 POP JUMPDEST POP SWAP2 POP SWAP2 POP PUSH2 0x2275 DUP7 DUP4 DUP4 DUP8 PUSH2 0x227F JUMP JUMPDEST SWAP7 SWAP6 POP POP POP POP POP POP JUMP JUMPDEST PUSH1 0x60 DUP4 ISZERO PUSH2 0x22EE JUMPI DUP3 MLOAD PUSH1 0x0 SUB PUSH2 0x22E7 JUMPI PUSH1 0x1 PUSH1 0x1 PUSH1 0xA0 SHL SUB DUP6 AND EXTCODESIZE PUSH2 0x22E7 JUMPI PUSH1 0x40 MLOAD PUSH3 0x461BCD PUSH1 0xE5 SHL DUP2 MSTORE PUSH1 0x20 PUSH1 0x4 DUP3 ADD MSTORE PUSH1 0x1D PUSH1 0x24 DUP3 ADD MSTORE PUSH32 0x416464726573733A2063616C6C20746F206E6F6E2D636F6E7472616374000000 PUSH1 0x44 DUP3 ADD MSTORE PUSH1 0x64 ADD PUSH2 0x661 JUMP JUMPDEST POP DUP2 PUSH2 0x22F8 JUMP JUMPDEST PUSH2 0x22F8 DUP4 DUP4 PUSH2 0x2300 JUMP JUMPDEST SWAP5 SWAP4 POP POP POP POP JUMP JUMPDEST DUP2 MLOAD ISZERO PUSH2 0x2310 JUMPI DUP2 MLOAD DUP1 DUP4 PUSH1 0x20 ADD REVERT JUMPDEST DUP1 PUSH1 0x40 MLOAD PUSH3 0x461BCD PUSH1 0xE5 SHL DUP2 MSTORE PUSH1 0x4 ADD PUSH2 0x661 SWAP2 SWAP1 PUSH2 0x237A JUMP JUMPDEST PUSH1 0x0 JUMPDEST DUP4 DUP2 LT ISZERO PUSH2 0x2345 JUMPI DUP2 DUP2 ADD MLOAD DUP4 DUP3 ADD MSTORE PUSH1 0x20 ADD PUSH2 0x232D JUMP JUMPDEST POP POP PUSH1 0x0 SWAP2 ADD MSTORE JUMP JUMPDEST PUSH1 0x0 DUP2 MLOAD DUP1 DUP5 MSTORE PUSH2 0x2366 DUP2 PUSH1 0x20 DUP7 ADD PUSH1 0x20 DUP7 ADD PUSH2 0x232A JUMP JUMPDEST PUSH1 0x1F ADD PUSH1 0x1F NOT AND SWAP3 SWAP1 SWAP3 ADD PUSH1 0x20 ADD SWAP3 SWAP2 POP POP JUMP JUMPDEST PUSH1 0x20 DUP2 MSTORE PUSH1 0x0 PUSH2 0x2200 PUSH1 0x20 DUP4 ADD DUP5 PUSH2 0x234E JUMP JUMPDEST PUSH1 0x0 PUSH1 0x20 DUP3 DUP5 SUB SLT ISZERO PUSH2 0x239F JUMPI PUSH1 0x0 DUP1 REVERT JUMPDEST POP CALLDATALOAD SWAP2 SWAP1 POP JUMP JUMPDEST DUP1 CALLDATALOAD PUSH1 0x1 PUSH1 0x1 PUSH1 0xA0 SHL SUB DUP2 AND DUP2 EQ PUSH2 0x23BD JUMPI PUSH1 0x0 DUP1 REVERT JUMPDEST SWAP2 SWAP1 POP JUMP JUMPDEST PUSH4 0x4E487B71 PUSH1 0xE0 SHL PUSH1 0x0 MSTORE PUSH1 0x41 PUSH1 0x4 MSTORE PUSH1 0x24 PUSH1 0x0 REVERT JUMPDEST PUSH1 0x40 MLOAD PUSH1 0x1F DUP3 ADD PUSH1 0x1F NOT AND DUP2 ADD PUSH8 0xFFFFFFFFFFFFFFFF DUP2 GT DUP3 DUP3 LT OR ISZERO PUSH2 0x2401 JUMPI PUSH2 0x2401 PUSH2 0x23C2 JUMP JUMPDEST PUSH1 0x40 MSTORE SWAP2 SWAP1 POP JUMP JUMPDEST PUSH1 0x0 PUSH8 0xFFFFFFFFFFFFFFFF DUP3 GT ISZERO PUSH2 0x2423 JUMPI PUSH2 0x2423 PUSH2 0x23C2 JUMP JUMPDEST POP PUSH1 0x5 SHL PUSH1 0x20 ADD SWAP1 JUMP JUMPDEST PUSH1 0x0 DUP3 PUSH1 0x1F DUP4 ADD SLT PUSH2 0x243E JUMPI PUSH1 0x0 DUP1 REVERT JUMPDEST DUP2 CALLDATALOAD PUSH1 0x20 PUSH2 0x2453 PUSH2 0x244E DUP4 PUSH2 0x2409 JUMP JUMPDEST PUSH2 0x23D8 JUMP JUMPDEST DUP3 DUP2 MSTORE PUSH1 0x5 SWAP3 SWAP1 SWAP3 SHL DUP5 ADD DUP2 ADD SWAP2 DUP2 DUP2 ADD SWAP1 DUP7 DUP5 GT ISZERO PUSH2 0x2472 JUMPI PUSH1 0x0 DUP1 REVERT JUMPDEST DUP3 DUP7 ADD JUMPDEST DUP5 DUP2 LT ISZERO PUSH2 0x248D JUMPI DUP1 CALLDATALOAD DUP4 MSTORE SWAP2 DUP4 ADD SWAP2 DUP4 ADD PUSH2 0x2476 JUMP JUMPDEST POP SWAP7 SWAP6 POP POP POP POP POP POP JUMP JUMPDEST PUSH1 0x0 DUP3 PUSH1 0x1F DUP4 ADD SLT PUSH2 0x24A9 JUMPI PUSH1 0x0 DUP1 REVERT JUMPDEST DUP2 CALLDATALOAD PUSH8 0xFFFFFFFFFFFFFFFF DUP2 GT ISZERO PUSH2 0x24C3 JUMPI PUSH2 0x24C3 PUSH2 0x23C2 JUMP JUMPDEST PUSH2 0x24D6 PUSH1 0x1F DUP3 ADD PUSH1 0x1F NOT AND PUSH1 0x20 ADD PUSH2 0x23D8 JUMP JUMPDEST DUP2 DUP2 MSTORE DUP5 PUSH1 0x20 DUP4 DUP7 ADD ADD GT ISZERO PUSH2 0x24EB JUMPI PUSH1 0x0 DUP1 REVERT JUMPDEST DUP2 PUSH1 0x20 DUP6 ADD PUSH1 0x20 DUP4 ADD CALLDATACOPY PUSH1 0x0 SWAP2 DUP2 ADD PUSH1 0x20 ADD SWAP2 SWAP1 SWAP2 MSTORE SWAP4 SWAP3 POP POP POP JUMP JUMPDEST PUSH1 0x0 DUP3 PUSH1 0x1F DUP4 ADD SLT PUSH2 0x2519 JUMPI PUSH1 0x0 DUP1 REVERT JUMPDEST DUP2 CALLDATALOAD PUSH1 0x20 PUSH2 0x2529 PUSH2 0x244E DUP4 PUSH2 0x2409 JUMP JUMPDEST DUP3 DUP2 MSTORE PUSH1 0x5 SWAP3 SWAP1 SWAP3 SHL DUP5 ADD DUP2 ADD SWAP2 DUP2 DUP2 ADD SWAP1 DUP7 DUP5 GT ISZERO PUSH2 0x2548 JUMPI PUSH1 0x0 DUP1 REVERT JUMPDEST DUP3 DUP7 ADD JUMPDEST DUP5 DUP2 LT ISZERO PUSH2 0x248D JUMPI DUP1 CALLDATALOAD PUSH8 0xFFFFFFFFFFFFFFFF DUP2 GT ISZERO PUSH2 0x256C JUMPI PUSH1 0x0 DUP1 DUP2 REVERT JUMPDEST PUSH2 0x257A DUP10 DUP7 DUP4 DUP12 ADD ADD PUSH2 0x2498 JUMP JUMPDEST DUP5 MSTORE POP SWAP2 DUP4 ADD SWAP2 DUP4 ADD PUSH2 0x254C JUMP JUMPDEST PUSH1 0x0 DUP1 PUSH1 0x0 DUP1 PUSH1 0x0 DUP1 PUSH1 0x0 DUP1 PUSH2 0x100 DUP10 DUP12 SUB SLT ISZERO PUSH2 0x25A5 JUMPI PUSH1 0x0 DUP1 REVERT JUMPDEST PUSH2 0x25AE DUP10 PUSH2 0x23A6 JUMP JUMPDEST SWAP8 POP PUSH1 0x20 DUP10 ADD CALLDATALOAD PUSH8 0xFFFFFFFFFFFFFFFF DUP1 DUP3 GT ISZERO PUSH2 0x25CB JUMPI PUSH1 0x0 DUP1 REVERT JUMPDEST PUSH2 0x25D7 DUP13 DUP4 DUP14 ADD PUSH2 0x242D JUMP JUMPDEST SWAP9 POP PUSH1 0x40 DUP12 ADD CALLDATALOAD SWAP2 POP DUP1 DUP3 GT ISZERO PUSH2 0x25ED JUMPI PUSH1 0x0 DUP1 REVERT JUMPDEST PUSH2 0x25F9 DUP13 DUP4 DUP14 ADD PUSH2 0x242D JUMP JUMPDEST SWAP8 POP PUSH1 0x60 DUP12 ADD CALLDATALOAD SWAP2 POP DUP1 DUP3 GT ISZERO PUSH2 0x260F JUMPI PUSH1 0x0 DUP1 REVERT JUMPDEST PUSH2 0x261B DUP13 DUP4 DUP14 ADD PUSH2 0x2498 JUMP JUMPDEST SWAP7 POP PUSH1 0x80 DUP12 ADD CALLDATALOAD SWAP2 POP DUP1 DUP3 GT ISZERO PUSH2 0x2631 JUMPI PUSH1 0x0 DUP1 REVERT JUMPDEST PUSH2 0x263D DUP13 DUP4 DUP14 ADD PUSH2 0x2508 JUMP JUMPDEST SWAP6 POP PUSH1 0xA0 DUP12 ADD CALLDATALOAD SWAP5 POP PUSH1 0xC0 DUP12 ADD CALLDATALOAD SWAP4 POP PUSH1 0xE0 DUP12 ADD CALLDATALOAD SWAP2 POP DUP1 DUP3 GT ISZERO PUSH2 0x2661 JUMPI PUSH1 0x0 DUP1 REVERT JUMPDEST POP PUSH2 0x266E DUP12 DUP3 DUP13 ADD PUSH2 0x2498 JUMP JUMPDEST SWAP2 POP POP SWAP3 SWAP6 SWAP9 POP SWAP3 SWAP6 SWAP9 SWAP1 SWAP4 SWAP7 POP JUMP JUMPDEST PUSH1 0x0 PUSH1 0x20 DUP3 DUP5 SUB SLT ISZERO PUSH2 0x2690 JUMPI PUSH1 0x0 DUP1 REVERT JUMPDEST PUSH2 0x2200 DUP3 PUSH2 0x23A6 JUMP JUMPDEST PUSH1 0x0 DUP1 PUSH1 0x0 DUP1 PUSH1 0x0 DUP1 PUSH1 0x0 DUP1 PUSH2 0x100 DUP10 DUP12 SUB SLT ISZERO PUSH2 0x26B6 JUMPI PUSH1 0x0 DUP1 REVERT JUMPDEST PUSH2 0x26BF DUP10 PUSH2 0x23A6 JUMP JUMPDEST SWAP8 POP PUSH1 0x20 DUP10 ADD CALLDATALOAD SWAP7 POP PUSH1 0x40 DUP10 ADD CALLDATALOAD SWAP6 POP PUSH1 0x60 DUP10 ADD CALLDATALOAD PUSH8 0xFFFFFFFFFFFFFFFF DUP1 DUP3 GT ISZERO PUSH2 0x26EA JUMPI PUSH1 0x0 DUP1 REVERT JUMPDEST PUSH2 0x26F6 DUP13 DUP4 DUP14 ADD PUSH2 0x2498 JUMP JUMPDEST SWAP7 POP PUSH1 0x80 DUP12 ADD CALLDATALOAD SWAP2 POP DUP1 DUP3 GT ISZERO PUSH2 0x270C JUMPI PUSH1 0x0 DUP1 REVERT JUMPDEST PUSH2 0x263D DUP13 DUP4 DUP14 ADD PUSH2 0x2498 JUMP JUMPDEST PUSH1 0x0 DUP1 PUSH1 0x40 DUP4 DUP6 SUB SLT ISZERO PUSH2 0x272B JUMPI PUSH1 0x0 DUP1 REVERT JUMPDEST PUSH2 0x2734 DUP4 PUSH2 0x23A6 JUMP JUMPDEST SWAP2 POP PUSH1 0x20 DUP4 ADD CALLDATALOAD PUSH8 0xFFFFFFFFFFFFFFFF DUP2 GT ISZERO PUSH2 0x2750 JUMPI PUSH1 0x0 DUP1 REVERT JUMPDEST PUSH2 0x275C DUP6 DUP3 DUP7 ADD PUSH2 0x2498 JUMP JUMPDEST SWAP2 POP POP SWAP3 POP SWAP3 SWAP1 POP JUMP JUMPDEST PUSH1 0x0 DUP1 PUSH1 0x0 PUSH1 0x60 DUP5 DUP7 SUB SLT ISZERO PUSH2 0x277B JUMPI PUSH1 0x0 DUP1 REVERT JUMPDEST DUP4 CALLDATALOAD SWAP3 POP PUSH1 0x20 DUP5 ADD CALLDATALOAD SWAP2 POP PUSH1 0x40 DUP5 ADD CALLDATALOAD PUSH8 0xFFFFFFFFFFFFFFFF DUP2 GT ISZERO PUSH2 0x27A0 JUMPI PUSH1 0x0 DUP1 REVERT JUMPDEST PUSH2 0x27AC DUP7 DUP3 DUP8 ADD PUSH2 0x2498 JUMP JUMPDEST SWAP2 POP POP SWAP3 POP SWAP3 POP SWAP3 JUMP JUMPDEST PUSH1 0x0 DUP2 MLOAD DUP1 DUP5 MSTORE PUSH1 0x20 DUP1 DUP6 ADD SWAP5 POP DUP1 DUP5 ADD PUSH1 0x0 JUMPDEST DUP4 DUP2 LT ISZERO PUSH2 0x27E6 JUMPI DUP2 MLOAD DUP8 MSTORE SWAP6 DUP3 ADD SWAP6 SWAP1 DUP3 ADD SWAP1 PUSH1 0x1 ADD PUSH2 0x27CA JUMP JUMPDEST POP SWAP5 SWAP6 SWAP5 POP POP POP POP POP JUMP JUMPDEST PUSH1 0xFF PUSH1 0xF8 SHL DUP9 AND DUP2 MSTORE PUSH1 0xE0 PUSH1 0x20 DUP3 ADD MSTORE PUSH1 0x0 PUSH2 0x2810 PUSH1 0xE0 DUP4 ADD DUP10 PUSH2 0x234E JUMP JUMPDEST DUP3 DUP2 SUB PUSH1 0x40 DUP5 ADD MSTORE PUSH2 0x2822 DUP2 DUP10 PUSH2 0x234E JUMP JUMPDEST SWAP1 POP DUP7 PUSH1 0x60 DUP5 ADD MSTORE PUSH1 0x1 PUSH1 0x1 PUSH1 0xA0 SHL SUB DUP7 AND PUSH1 0x80 DUP5 ADD MSTORE DUP5 PUSH1 0xA0 DUP5 ADD MSTORE DUP3 DUP2 SUB PUSH1 0xC0 DUP5 ADD MSTORE PUSH2 0x2851 DUP2 DUP6 PUSH2 0x27B6 JUMP JUMPDEST SWAP11 SWAP10 POP POP POP POP POP POP POP POP POP POP JUMP JUMPDEST PUSH1 0x0 DUP1 PUSH1 0x0 DUP1 PUSH1 0x80 DUP6 DUP8 SUB SLT ISZERO PUSH2 0x2875 JUMPI PUSH1 0x0 DUP1 REVERT JUMPDEST DUP5 CALLDATALOAD PUSH8 0xFFFFFFFFFFFFFFFF DUP1 DUP3 GT ISZERO PUSH2 0x288D JUMPI PUSH1 0x0 DUP1 REVERT JUMPDEST PUSH2 0x2899 DUP9 DUP4 DUP10 ADD PUSH2 0x2498 JUMP JUMPDEST SWAP6 POP PUSH1 0x20 DUP8 ADD CALLDATALOAD SWAP2 POP DUP1 DUP3 GT ISZERO PUSH2 0x28AF JUMPI PUSH1 0x0 DUP1 REVERT JUMPDEST POP PUSH2 0x28BC DUP8 DUP3 DUP9 ADD PUSH2 0x2498 JUMP JUMPDEST SWAP4 POP POP PUSH2 0x28CB PUSH1 0x40 DUP7 ADD PUSH2 0x23A6 JUMP JUMPDEST SWAP2 POP PUSH2 0x28D9 PUSH1 0x60 DUP7 ADD PUSH2 0x23A6 JUMP JUMPDEST SWAP1 POP SWAP3 SWAP6 SWAP2 SWAP5 POP SWAP3 POP JUMP JUMPDEST PUSH1 0x0 DUP1 PUSH1 0x0 PUSH1 0x60 DUP5 DUP7 SUB SLT ISZERO PUSH2 0x28F9 JUMPI PUSH1 0x0 DUP1 REVERT JUMPDEST DUP4 CALLDATALOAD PUSH8 0xFFFFFFFFFFFFFFFF DUP1 DUP3 GT ISZERO PUSH2 0x2911 JUMPI PUSH1 0x0 DUP1 REVERT JUMPDEST PUSH2 0x291D DUP8 DUP4 DUP9 ADD PUSH2 0x242D JUMP JUMPDEST SWAP5 POP PUSH1 0x20 DUP7 ADD CALLDATALOAD SWAP2 POP DUP1 DUP3 GT ISZERO PUSH2 0x2933 JUMPI PUSH1 0x0 DUP1 REVERT JUMPDEST PUSH2 0x293F DUP8 DUP4 DUP9 ADD PUSH2 0x242D JUMP JUMPDEST SWAP4 POP PUSH1 0x40 DUP7 ADD CALLDATALOAD SWAP2 POP DUP1 DUP3 GT ISZERO PUSH2 0x2955 JUMPI PUSH1 0x0 DUP1 REVERT JUMPDEST POP PUSH2 0x27AC DUP7 DUP3 DUP8 ADD PUSH2 0x2498 JUMP JUMPDEST PUSH1 0x0 DUP1 PUSH1 0x40 DUP4 DUP6 SUB SLT ISZERO PUSH2 0x2975 JUMPI PUSH1 0x0 DUP1 REVERT JUMPDEST DUP3 CALLDATALOAD SWAP2 POP PUSH1 0x20 DUP4 ADD CALLDATALOAD PUSH8 0xFFFFFFFFFFFFFFFF DUP2 GT ISZERO PUSH2 0x2750 JUMPI PUSH1 0x0 DUP1 REVERT JUMPDEST PUSH1 0x1 DUP2 DUP2 SHR SWAP1 DUP3 AND DUP1 PUSH2 0x29A7 JUMPI PUSH1 0x7F DUP3 AND SWAP2 POP JUMPDEST PUSH1 0x20 DUP3 LT DUP2 SUB PUSH2 0x29C7 JUMPI PUSH4 0x4E487B71 PUSH1 0xE0 SHL PUSH1 0x0 MSTORE PUSH1 0x22 PUSH1 0x4 MSTORE PUSH1 0x24 PUSH1 0x0 REVERT JUMPDEST POP SWAP2 SWAP1 POP JUMP JUMPDEST PUSH4 0x4E487B71 PUSH1 0xE0 SHL PUSH1 0x0 MSTORE PUSH1 0x32 PUSH1 0x4 MSTORE PUSH1 0x24 PUSH1 0x0 REVERT JUMPDEST PUSH1 0x0 PUSH1 0x1 DUP3 ADD PUSH2 0x2A03 JUMPI PUSH4 0x4E487B71 PUSH1 0xE0 SHL PUSH1 0x0 MSTORE PUSH1 0x11 PUSH1 0x4 MSTORE PUSH1 0x24 PUSH1 0x0 REVERT JUMPDEST POP PUSH1 0x1 ADD SWAP1 JUMP JUMPDEST PUSH1 0x20 DUP1 DUP3 MSTORE PUSH1 0x29 SWAP1 DUP3 ADD MSTORE PUSH32 0x4A61736D696E654D696E7465723A20626164207369676E61747572652F77726F PUSH1 0x40 DUP3 ADD MSTORE PUSH9 0x37339039B4B3B732B9 PUSH1 0xB9 SHL PUSH1 0x60 DUP3 ADD MSTORE PUSH1 0x80 ADD SWAP1 JUMP JUMPDEST DUP3 DUP2 MSTORE PUSH1 0x40 PUSH1 0x20 DUP3 ADD MSTORE PUSH1 0x0 PUSH2 0x22F8 PUSH1 0x40 DUP4 ADD DUP5 PUSH2 0x234E JUMP JUMPDEST PUSH1 0x1 PUSH1 0x1 PUSH1 0xA0 SHL SUB DUP6 AND DUP2 MSTORE PUSH1 0x80 PUSH1 0x20 DUP3 ADD MSTORE PUSH1 0x0 PUSH2 0x2A8E PUSH1 0x80 DUP4 ADD DUP7 PUSH2 0x27B6 JUMP JUMPDEST DUP3 DUP2 SUB PUSH1 0x40 DUP5 ADD MSTORE PUSH2 0x2AA0 DUP2 DUP7 PUSH2 0x27B6 JUMP JUMPDEST SWAP1 POP DUP3 DUP2 SUB PUSH1 0x60 DUP5 ADD MSTORE PUSH2 0x2AB4 DUP2 DUP6 PUSH2 0x234E JUMP JUMPDEST SWAP8 SWAP7 POP POP POP POP POP POP POP JUMP JUMPDEST PUSH1 0x20 DUP1 DUP3 MSTORE PUSH1 0x2C SWAP1 DUP3 ADD MSTORE PUSH32 0x46756E6374696F6E206D7573742062652063616C6C6564207468726F75676820 PUSH1 0x40 DUP3 ADD MSTORE PUSH12 0x19195B1959D85D1958D85B1B PUSH1 0xA2 SHL PUSH1 0x60 DUP3 ADD MSTORE PUSH1 0x80 ADD SWAP1 JUMP JUMPDEST PUSH1 0x20 DUP1 DUP3 MSTORE PUSH1 0x2C SWAP1 DUP3 ADD MSTORE PUSH32 0x46756E6374696F6E206D7573742062652063616C6C6564207468726F75676820 PUSH1 0x40 DUP3 ADD MSTORE PUSH12 0x6163746976652070726F7879 PUSH1 0xA0 SHL PUSH1 0x60 DUP3 ADD MSTORE PUSH1 0x80 ADD SWAP1 JUMP JUMPDEST PUSH1 0x1 PUSH1 0x1 PUSH1 0xA0 SHL SUB DUP6 AND DUP2 MSTORE DUP4 PUSH1 0x20 DUP3 ADD MSTORE DUP3 PUSH1 0x40 DUP3 ADD MSTORE PUSH1 0x80 PUSH1 0x60 DUP3 ADD MSTORE PUSH1 0x0 PUSH2 0x2275 PUSH1 0x80 DUP4 ADD DUP5 PUSH2 0x234E JUMP JUMPDEST PUSH1 0x0 PUSH1 0x20 DUP3 DUP5 SUB SLT ISZERO PUSH2 0x2B97 JUMPI PUSH1 0x0 DUP1 REVERT JUMPDEST DUP2 MLOAD DUP1 ISZERO ISZERO DUP2 EQ PUSH2 0x2200 JUMPI PUSH1 0x0 DUP1 REVERT JUMPDEST DUP4 DUP2 MSTORE DUP3 PUSH1 0x20 DUP3 ADD MSTORE PUSH1 0x60 PUSH1 0x40 DUP3 ADD MSTORE PUSH1 0x0 PUSH2 0x2BC6 PUSH1 0x60 DUP4 ADD DUP5 PUSH2 0x234E JUMP JUMPDEST SWAP6 SWAP5 POP POP POP POP POP JUMP JUMPDEST PUSH1 0x1F DUP3 GT ISZERO PUSH2 0x1A39 JUMPI PUSH1 0x0 DUP2 DUP2 MSTORE PUSH1 0x20 DUP2 KECCAK256 PUSH1 0x1F DUP6 ADD PUSH1 0x5 SHR DUP2 ADD PUSH1 0x20 DUP7 LT ISZERO PUSH2 0x2BF6 JUMPI POP DUP1 JUMPDEST PUSH1 0x1F DUP6 ADD PUSH1 0x5 SHR DUP3 ADD SWAP2 POP JUMPDEST DUP2 DUP2 LT ISZERO PUSH2 0x2C15 JUMPI DUP3 DUP2 SSTORE PUSH1 0x1 ADD PUSH2 0x2C02 JUMP JUMPDEST POP POP POP POP POP POP JUMP JUMPDEST DUP2 MLOAD PUSH8 0xFFFFFFFFFFFFFFFF DUP2 GT ISZERO PUSH2 0x2C37 JUMPI PUSH2 0x2C37 PUSH2 0x23C2 JUMP JUMPDEST PUSH2 0x2C4B DUP2 PUSH2 0x2C45 DUP5 SLOAD PUSH2 0x2993 JUMP JUMPDEST DUP5 PUSH2 0x2BCF JUMP JUMPDEST PUSH1 0x20 DUP1 PUSH1 0x1F DUP4 GT PUSH1 0x1 DUP2 EQ PUSH2 0x2C80 JUMPI PUSH1 0x0 DUP5 ISZERO PUSH2 0x2C68 JUMPI POP DUP6 DUP4 ADD MLOAD JUMPDEST PUSH1 0x0 NOT PUSH1 0x3 DUP7 SWAP1 SHL SHR NOT AND PUSH1 0x1 DUP6 SWAP1 SHL OR DUP6 SSTORE PUSH2 0x2C15 JUMP JUMPDEST PUSH1 0x0 DUP6 DUP2 MSTORE PUSH1 0x20 DUP2 KECCAK256 PUSH1 0x1F NOT DUP7 AND SWAP2 JUMPDEST DUP3 DUP2 LT ISZERO PUSH2 0x2CAF JUMPI DUP9 DUP7 ADD MLOAD DUP3 SSTORE SWAP5 DUP5 ADD SWAP5 PUSH1 0x1 SWAP1 SWAP2 ADD SWAP1 DUP5 ADD PUSH2 0x2C90 JUMP JUMPDEST POP DUP6 DUP3 LT ISZERO PUSH2 0x2CCD JUMPI DUP8 DUP6 ADD MLOAD PUSH1 0x0 NOT PUSH1 0x3 DUP9 SWAP1 SHL PUSH1 0xF8 AND SHR NOT AND DUP2 SSTORE JUMPDEST POP POP POP POP POP PUSH1 0x1 SWAP1 DUP2 SHL ADD SWAP1 SSTORE POP JUMP JUMPDEST PUSH1 0x60 DUP2 MSTORE PUSH1 0x0 PUSH2 0x2CF0 PUSH1 0x60 DUP4 ADD DUP7 PUSH2 0x27B6 JUMP JUMPDEST DUP3 DUP2 SUB PUSH1 0x20 DUP5 ADD MSTORE PUSH2 0x2D02 DUP2 DUP7 PUSH2 0x27B6 JUMP JUMPDEST SWAP1 POP DUP3 DUP2 SUB PUSH1 0x40 DUP5 ADD MSTORE PUSH2 0x2275 DUP2 DUP6 PUSH2 0x234E JUMP JUMPDEST PUSH1 0x1 PUSH1 0x1 PUSH1 0xA0 SHL SUB DUP5 AND DUP2 MSTORE PUSH1 0x60 PUSH1 0x20 DUP3 ADD MSTORE PUSH1 0x0 PUSH2 0x2D38 PUSH1 0x60 DUP4 ADD DUP6 PUSH2 0x27B6 JUMP JUMPDEST DUP3 DUP2 SUB PUSH1 0x40 DUP5 ADD MSTORE PUSH2 0x2275 DUP2 DUP6 PUSH2 0x27B6 JUMP JUMPDEST PUSH1 0x0 PUSH1 0x20 DUP3 DUP5 SUB SLT ISZERO PUSH2 0x2D5C JUMPI PUSH1 0x0 DUP1 REVERT JUMPDEST POP MLOAD SWAP2 SWAP1 POP JUMP JUMPDEST PUSH1 0x20 DUP1 DUP3 MSTORE PUSH1 0x2B SWAP1 DUP3 ADD MSTORE PUSH32 0x496E697469616C697A61626C653A20636F6E7472616374206973206E6F742069 PUSH1 0x40 DUP3 ADD MSTORE PUSH11 0x6E697469616C697A696E67 PUSH1 0xA8 SHL PUSH1 0x60 DUP3 ADD MSTORE PUSH1 0x80 ADD SWAP1 JUMP JUMPDEST PUSH4 0x4E487B71 PUSH1 0xE0 SHL PUSH1 0x0 MSTORE PUSH1 0x21 PUSH1 0x4 MSTORE PUSH1 0x24 PUSH1 0x0 REVERT JUMPDEST PUSH1 0x0 DUP3 MLOAD PUSH2 0x2DD6 DUP2 DUP5 PUSH1 0x20 DUP8 ADD PUSH2 0x232A JUMP JUMPDEST SWAP2 SWAP1 SWAP2 ADD SWAP3 SWAP2 POP POP JUMP INVALID CALLDATASIZE ADDMOD SWAP5 LOG1 EXTCODESIZE LOG1 LOG3 0x21 MOD PUSH8 0xC828492DB98DCA3E KECCAK256 PUSH23 0xCC3735A920A3CA505D382BBC416464726573733A206C6F PUSH24 0x2D6C6576656C2064656C65676174652063616C6C20666169 PUSH13 0x6564A2646970667358221220C7 PUSH21 0xE12D00970285A12640D181EFFDE365591C9663CA81 0xC6 PUSH28 0x84BBA042A5141E64736F6C6343000811003300000000000000000000 "},"gasEstimates":{"creation":{"codeDepositCost":"2373800","executionCost":"infinite","totalCost":"infinite"},"external":{"CONSUMENONCE_TYPEHASH()":"284","DOMAIN_SEPARATOR()":"infinite","MINTBATCH_TYPEHASH()":"262","MINT_TYPEHASH()":"283","acceptOwnership()":"infinite","bridge()":"2426","burn(uint256,uint256,bytes)":"infinite","burnBatch(uint256[],uint256[],bytes)":"infinite","consumeNonce(bytes32,bytes)":"infinite","consumedNonces(bytes32)":"2519","eip712Domain()":"infinite","initialize(string,string,address,address)":"infinite","mint(address,uint256,uint256,bytes,bytes,uint256,bytes32,bytes)":"infinite","mintBatch(address,uint256[],uint256[],bytes,bytes[],uint256,bytes32,bytes)":"infinite","name()":"infinite","oracle()":"infinite","owner()":"2399","pendingOwner()":"2398","proxiableUUID()":"infinite","renounceOwnership()":"infinite","setBridge(address)":"27964","token()":"infinite","transferOwnership(address)":"30481","upgradeTo(address)":"infinite","upgradeToAndCall(address,bytes)":"infinite","version()":"infinite"},"internal":{"_authorizeUpgrade(address)":"infinite","_hashArray(uint256[] memory)":"infinite"}},"methodIdentifiers":{"CONSUMENONCE_TYPEHASH()":"ce89a040","DOMAIN_SEPARATOR()":"3644e515","MINTBATCH_TYPEHASH()":"b3c9ed59","MINT_TYPEHASH()":"f76fc35e","acceptOwnership()":"79ba5097","bridge()":"e78cea92","burn(uint256,uint256,bytes)":"80a5a371","burnBatch(uint256[],uint256[],bytes)":"e090fa3c","consumeNonce(bytes32,bytes)":"e922ba79","consumedNonces(bytes32)":"10dbebce","eip712Domain()":"84b0196e","initialize(string,string,address,address)":"8f15b414","mint(address,uint256,uint256,bytes,bytes,uint256,bytes32,bytes)":"36b09227","mintBatch(address,uint256[],uint256[],bytes,bytes[],uint256,bytes32,bytes)":"163c50ac","name()":"06fdde03","oracle()":"7dc0d1d0","owner()":"8da5cb5b","pendingOwner()":"e30c3978","proxiableUUID()":"52d1902d","renounceOwnership()":"715018a6","setBridge(address)":"8dd14802","token()":"fc0c546a","transferOwnership(address)":"f2fde38b","upgradeTo(address)":"3659cfe6","upgradeToAndCall(address,bytes)":"4f1ef286","version()":"54fd4d50"}},"storageLayout":{"storage":[{"astId":2185,"contract":"@jasmine-energy/core-contracts/src/JasmineMinter.sol:JasmineMinter","label":"_initialized","offset":0,"slot":"0","type":"t_uint8"},{"astId":2188,"contract":"@jasmine-energy/core-contracts/src/JasmineMinter.sol:JasmineMinter","label":"_initializing","offset":1,"slot":"0","type":"t_bool"},{"astId":4543,"contract":"@jasmine-energy/core-contracts/src/JasmineMinter.sol:JasmineMinter","label":"__gap","offset":0,"slot":"1","type":"t_array(t_uint256)50_storage"},{"astId":1667,"contract":"@jasmine-energy/core-contracts/src/JasmineMinter.sol:JasmineMinter","label":"_owner","offset":0,"slot":"51","type":"t_address"},{"astId":1787,"contract":"@jasmine-energy/core-contracts/src/JasmineMinter.sol:JasmineMinter","label":"__gap","offset":0,"slot":"52","type":"t_array(t_uint256)49_storage"},{"astId":1576,"contract":"@jasmine-energy/core-contracts/src/JasmineMinter.sol:JasmineMinter","label":"_pendingOwner","offset":0,"slot":"101","type":"t_address"},{"astId":1655,"contract":"@jasmine-energy/core-contracts/src/JasmineMinter.sol:JasmineMinter","label":"__gap","offset":0,"slot":"102","type":"t_array(t_uint256)49_storage"},{"astId":2167,"contract":"@jasmine-energy/core-contracts/src/JasmineMinter.sol:JasmineMinter","label":"__gap","offset":0,"slot":"151","type":"t_array(t_uint256)50_storage"},{"astId":2482,"contract":"@jasmine-energy/core-contracts/src/JasmineMinter.sol:JasmineMinter","label":"__gap","offset":0,"slot":"201","type":"t_array(t_uint256)50_storage"},{"astId":5267,"contract":"@jasmine-energy/core-contracts/src/JasmineMinter.sol:JasmineMinter","label":"_hashedName","offset":0,"slot":"251","type":"t_bytes32"},{"astId":5270,"contract":"@jasmine-energy/core-contracts/src/JasmineMinter.sol:JasmineMinter","label":"_hashedVersion","offset":0,"slot":"252","type":"t_bytes32"},{"astId":5272,"contract":"@jasmine-energy/core-contracts/src/JasmineMinter.sol:JasmineMinter","label":"_name","offset":0,"slot":"253","type":"t_string_storage"},{"astId":5274,"contract":"@jasmine-energy/core-contracts/src/JasmineMinter.sol:JasmineMinter","label":"_version","offset":0,"slot":"254","type":"t_string_storage"},{"astId":5532,"contract":"@jasmine-energy/core-contracts/src/JasmineMinter.sol:JasmineMinter","label":"__gap","offset":0,"slot":"255","type":"t_array(t_uint256)48_storage"},{"astId":520,"contract":"@jasmine-energy/core-contracts/src/JasmineMinter.sol:JasmineMinter","label":"bridge","offset":0,"slot":"303","type":"t_address"},{"astId":544,"contract":"@jasmine-energy/core-contracts/src/JasmineMinter.sol:JasmineMinter","label":"name","offset":0,"slot":"304","type":"t_string_storage"},{"astId":547,"contract":"@jasmine-energy/core-contracts/src/JasmineMinter.sol:JasmineMinter","label":"version","offset":0,"slot":"305","type":"t_string_storage"},{"astId":552,"contract":"@jasmine-energy/core-contracts/src/JasmineMinter.sol:JasmineMinter","label":"consumedNonces","offset":0,"slot":"306","type":"t_mapping(t_bytes32,t_bool)"},{"astId":1089,"contract":"@jasmine-energy/core-contracts/src/JasmineMinter.sol:JasmineMinter","label":"__gap","offset":0,"slot":"307","type":"t_array(t_uint256)50_storage"}],"types":{"t_address":{"encoding":"inplace","label":"address","numberOfBytes":"20"},"t_array(t_uint256)48_storage":{"base":"t_uint256","encoding":"inplace","label":"uint256[48]","numberOfBytes":"1536"},"t_array(t_uint256)49_storage":{"base":"t_uint256","encoding":"inplace","label":"uint256[49]","numberOfBytes":"1568"},"t_array(t_uint256)50_storage":{"base":"t_uint256","encoding":"inplace","label":"uint256[50]","numberOfBytes":"1600"},"t_bool":{"encoding":"inplace","label":"bool","numberOfBytes":"1"},"t_bytes32":{"encoding":"inplace","label":"bytes32","numberOfBytes":"32"},"t_mapping(t_bytes32,t_bool)":{"encoding":"mapping","key":"t_bytes32","label":"mapping(bytes32 => bool)","numberOfBytes":"32","value":"t_bool"},"t_string_storage":{"encoding":"bytes","label":"string","numberOfBytes":"32"},"t_uint256":{"encoding":"inplace","label":"uint256","numberOfBytes":"32"},"t_uint8":{"encoding":"inplace","label":"uint8","numberOfBytes":"1"}}},"userdoc":{"kind":"user","methods":{"DOMAIN_SEPARATOR()":{"notice":"This is the EIP712 domain separator. It is exposed here for ease of introspection."},"burn(uint256,uint256,bytes)":{"notice":"Used in both redemption and bridge-off flows."},"burnBatch(uint256[],uint256[],bytes)":{"notice":"Used in both redemption and bridge-off flows."},"consumeNonce(bytes32,bytes)":{"notice":"Used to invalidate a nonce embedded in another EIP712 minting authorization."},"consumedNonces(bytes32)":{"notice":"Whether a particular nonce has been used to prevent replay."},"mint(address,uint256,uint256,bytes,bytes,uint256,bytes32,bytes)":{"notice":"Mint a new EAT.Only callable by the address specified in the EIP712 mint authoriztaion."},"mintBatch(address,uint256[],uint256[],bytes,bytes[],uint256,bytes32,bytes)":{"notice":"Mint a new EAT.Only callable by the address specified in the EIP712 mint authoriztaion."},"setBridge(address)":{"notice":"When the bridge wallet/EOA is migrated, the owner updates the bridge address."}},"notice":"This contract is responsible for validating that the bridge has authorized an EAT mint.This contract also updates the oracle with EAT metadata during each mint.","version":1}}}}