{
  "address": "0x2E747f832d6C36922176F422D78CD2C962f5aa96",
  "abi": [
    {
      "inputs": [
        {
          "internalType": "address",
          "name": "_eat",
          "type": "address"
        },
        {
          "internalType": "address",
          "name": "_oracle",
          "type": "address"
        },
        {
          "internalType": "address",
          "name": "_poolFactory",
          "type": "address"
        },
        {
          "internalType": "address",
          "name": "_minter",
          "type": "address"
        }
      ],
      "stateMutability": "nonpayable",
      "type": "constructor"
    },
    {
      "inputs": [],
      "name": "Disabled",
      "type": "error"
    },
    {
      "inputs": [
        {
          "internalType": "address",
          "name": "spender",
          "type": "address"
        },
        {
          "internalType": "uint256",
          "name": "currentAllowance",
          "type": "uint256"
        },
        {
          "internalType": "uint256",
          "name": "requestedDecrease",
          "type": "uint256"
        }
      ],
      "name": "ERC20FailedDecreaseAllowance",
      "type": "error"
    },
    {
      "inputs": [
        {
          "internalType": "address",
          "name": "spender",
          "type": "address"
        },
        {
          "internalType": "uint256",
          "name": "allowance",
          "type": "uint256"
        },
        {
          "internalType": "uint256",
          "name": "needed",
          "type": "uint256"
        }
      ],
      "name": "ERC20InsufficientAllowance",
      "type": "error"
    },
    {
      "inputs": [
        {
          "internalType": "address",
          "name": "sender",
          "type": "address"
        },
        {
          "internalType": "uint256",
          "name": "balance",
          "type": "uint256"
        },
        {
          "internalType": "uint256",
          "name": "needed",
          "type": "uint256"
        }
      ],
      "name": "ERC20InsufficientBalance",
      "type": "error"
    },
    {
      "inputs": [
        {
          "internalType": "address",
          "name": "approver",
          "type": "address"
        }
      ],
      "name": "ERC20InvalidApprover",
      "type": "error"
    },
    {
      "inputs": [
        {
          "internalType": "address",
          "name": "receiver",
          "type": "address"
        }
      ],
      "name": "ERC20InvalidReceiver",
      "type": "error"
    },
    {
      "inputs": [
        {
          "internalType": "address",
          "name": "sender",
          "type": "address"
        }
      ],
      "name": "ERC20InvalidSender",
      "type": "error"
    },
    {
      "inputs": [
        {
          "internalType": "address",
          "name": "spender",
          "type": "address"
        }
      ],
      "name": "ERC20InvalidSpender",
      "type": "error"
    },
    {
      "inputs": [
        {
          "internalType": "uint256",
          "name": "deadline",
          "type": "uint256"
        }
      ],
      "name": "ERC2612ExpiredSignature",
      "type": "error"
    },
    {
      "inputs": [
        {
          "internalType": "address",
          "name": "signer",
          "type": "address"
        },
        {
          "internalType": "address",
          "name": "owner",
          "type": "address"
        }
      ],
      "name": "ERC2612InvalidSigner",
      "type": "error"
    },
    {
      "inputs": [],
      "name": "InvalidInput",
      "type": "error"
    },
    {
      "inputs": [],
      "name": "InvalidShortString",
      "type": "error"
    },
    {
      "inputs": [
        {
          "internalType": "address",
          "name": "received",
          "type": "address"
        },
        {
          "internalType": "address",
          "name": "expected",
          "type": "address"
        }
      ],
      "name": "InvalidTokenAddress",
      "type": "error"
    },
    {
      "inputs": [],
      "name": "Prohibited",
      "type": "error"
    },
    {
      "inputs": [
        {
          "internalType": "bytes32",
          "name": "role",
          "type": "bytes32"
        }
      ],
      "name": "RequiresRole",
      "type": "error"
    },
    {
      "inputs": [
        {
          "internalType": "string",
          "name": "str",
          "type": "string"
        }
      ],
      "name": "StringTooLong",
      "type": "error"
    },
    {
      "inputs": [
        {
          "internalType": "uint256",
          "name": "tokenId",
          "type": "uint256"
        }
      ],
      "name": "Unqualified",
      "type": "error"
    },
    {
      "inputs": [
        {
          "internalType": "uint8",
          "name": "metadataVersion",
          "type": "uint8"
        }
      ],
      "name": "UnsupportedMetadataVersion",
      "type": "error"
    },
    {
      "inputs": [],
      "name": "ValidationFailed",
      "type": "error"
    },
    {
      "inputs": [
        {
          "internalType": "uint256",
          "name": "tokenId",
          "type": "uint256"
        }
      ],
      "name": "WithdrawBlocked",
      "type": "error"
    },
    {
      "inputs": [],
      "name": "WithdrawsLocked",
      "type": "error"
    },
    {
      "anonymous": false,
      "inputs": [
        {
          "indexed": true,
          "internalType": "address",
          "name": "owner",
          "type": "address"
        },
        {
          "indexed": true,
          "internalType": "address",
          "name": "spender",
          "type": "address"
        },
        {
          "indexed": false,
          "internalType": "uint256",
          "name": "value",
          "type": "uint256"
        }
      ],
      "name": "Approval",
      "type": "event"
    },
    {
      "anonymous": false,
      "inputs": [
        {
          "indexed": true,
          "internalType": "address",
          "name": "operator",
          "type": "address"
        },
        {
          "indexed": true,
          "internalType": "address",
          "name": "owner",
          "type": "address"
        },
        {
          "indexed": false,
          "internalType": "uint256",
          "name": "quantity",
          "type": "uint256"
        }
      ],
      "name": "Deposit",
      "type": "event"
    },
    {
      "anonymous": false,
      "inputs": [],
      "name": "EIP712DomainChanged",
      "type": "event"
    },
    {
      "anonymous": false,
      "inputs": [
        {
          "indexed": false,
          "internalType": "uint8",
          "name": "version",
          "type": "uint8"
        }
      ],
      "name": "Initialized",
      "type": "event"
    },
    {
      "anonymous": false,
      "inputs": [
        {
          "indexed": true,
          "internalType": "address",
          "name": "operator",
          "type": "address"
        },
        {
          "indexed": true,
          "internalType": "address",
          "name": "beneficiary",
          "type": "address"
        },
        {
          "indexed": false,
          "internalType": "uint256",
          "name": "quantity",
          "type": "uint256"
        }
      ],
      "name": "Retirement",
      "type": "event"
    },
    {
      "anonymous": false,
      "inputs": [
        {
          "indexed": false,
          "internalType": "uint96",
          "name": "retirementFeeBips",
          "type": "uint96"
        },
        {
          "indexed": true,
          "internalType": "address",
          "name": "beneficiary",
          "type": "address"
        }
      ],
      "name": "RetirementRateUpdate",
      "type": "event"
    },
    {
      "anonymous": false,
      "inputs": [
        {
          "indexed": true,
          "internalType": "address",
          "name": "from",
          "type": "address"
        },
        {
          "indexed": true,
          "internalType": "address",
          "name": "to",
          "type": "address"
        },
        {
          "indexed": false,
          "internalType": "uint256",
          "name": "value",
          "type": "uint256"
        }
      ],
      "name": "Transfer",
      "type": "event"
    },
    {
      "anonymous": false,
      "inputs": [
        {
          "indexed": true,
          "internalType": "address",
          "name": "sender",
          "type": "address"
        },
        {
          "indexed": true,
          "internalType": "address",
          "name": "receiver",
          "type": "address"
        },
        {
          "indexed": false,
          "internalType": "uint256",
          "name": "quantity",
          "type": "uint256"
        }
      ],
      "name": "Withdraw",
      "type": "event"
    },
    {
      "anonymous": false,
      "inputs": [
        {
          "indexed": false,
          "internalType": "uint96",
          "name": "withdrawFeeBips",
          "type": "uint96"
        },
        {
          "indexed": true,
          "internalType": "address",
          "name": "beneficiary",
          "type": "address"
        },
        {
          "indexed": false,
          "internalType": "bool",
          "name": "isSpecificRate",
          "type": "bool"
        }
      ],
      "name": "WithdrawalRateUpdate",
      "type": "event"
    },
    {
      "inputs": [],
      "name": "DOMAIN_SEPARATOR",
      "outputs": [
        {
          "internalType": "bytes32",
          "name": "",
          "type": "bytes32"
        }
      ],
      "stateMutability": "view",
      "type": "function"
    },
    {
      "inputs": [
        {
          "internalType": "address",
          "name": "owner",
          "type": "address"
        },
        {
          "internalType": "address",
          "name": "spender",
          "type": "address"
        }
      ],
      "name": "allowance",
      "outputs": [
        {
          "internalType": "uint256",
          "name": "",
          "type": "uint256"
        }
      ],
      "stateMutability": "view",
      "type": "function"
    },
    {
      "inputs": [
        {
          "internalType": "address",
          "name": "spender",
          "type": "address"
        },
        {
          "internalType": "uint256",
          "name": "amount",
          "type": "uint256"
        }
      ],
      "name": "approve",
      "outputs": [
        {
          "internalType": "bool",
          "name": "",
          "type": "bool"
        }
      ],
      "stateMutability": "nonpayable",
      "type": "function"
    },
    {
      "inputs": [
        {
          "internalType": "address",
          "name": "account",
          "type": "address"
        }
      ],
      "name": "balanceOf",
      "outputs": [
        {
          "internalType": "uint256",
          "name": "",
          "type": "uint256"
        }
      ],
      "stateMutability": "view",
      "type": "function"
    },
    {
      "inputs": [],
      "name": "decimals",
      "outputs": [
        {
          "internalType": "uint8",
          "name": "",
          "type": "uint8"
        }
      ],
      "stateMutability": "view",
      "type": "function"
    },
    {
      "inputs": [
        {
          "internalType": "address",
          "name": "spender",
          "type": "address"
        },
        {
          "internalType": "uint256",
          "name": "subtractedValue",
          "type": "uint256"
        }
      ],
      "name": "decreaseAllowance",
      "outputs": [
        {
          "internalType": "bool",
          "name": "",
          "type": "bool"
        }
      ],
      "stateMutability": "nonpayable",
      "type": "function"
    },
    {
      "inputs": [
        {
          "internalType": "uint256",
          "name": "tokenId",
          "type": "uint256"
        },
        {
          "internalType": "uint256",
          "name": "amount",
          "type": "uint256"
        }
      ],
      "name": "deposit",
      "outputs": [
        {
          "internalType": "uint256",
          "name": "jltQuantity",
          "type": "uint256"
        }
      ],
      "stateMutability": "nonpayable",
      "type": "function"
    },
    {
      "inputs": [
        {
          "internalType": "address",
          "name": "from",
          "type": "address"
        },
        {
          "internalType": "uint256[]",
          "name": "tokenIds",
          "type": "uint256[]"
        },
        {
          "internalType": "uint256[]",
          "name": "amounts",
          "type": "uint256[]"
        }
      ],
      "name": "depositBatch",
      "outputs": [
        {
          "internalType": "uint256",
          "name": "jltQuantity",
          "type": "uint256"
        }
      ],
      "stateMutability": "nonpayable",
      "type": "function"
    },
    {
      "inputs": [
        {
          "internalType": "address",
          "name": "from",
          "type": "address"
        },
        {
          "internalType": "uint256",
          "name": "tokenId",
          "type": "uint256"
        },
        {
          "internalType": "uint256",
          "name": "amount",
          "type": "uint256"
        }
      ],
      "name": "depositFrom",
      "outputs": [
        {
          "internalType": "uint256",
          "name": "jltQuantity",
          "type": "uint256"
        }
      ],
      "stateMutability": "nonpayable",
      "type": "function"
    },
    {
      "inputs": [],
      "name": "eat",
      "outputs": [
        {
          "internalType": "address",
          "name": "",
          "type": "address"
        }
      ],
      "stateMutability": "view",
      "type": "function"
    },
    {
      "inputs": [],
      "name": "eip712Domain",
      "outputs": [
        {
          "internalType": "bytes1",
          "name": "fields",
          "type": "bytes1"
        },
        {
          "internalType": "string",
          "name": "name",
          "type": "string"
        },
        {
          "internalType": "string",
          "name": "version",
          "type": "string"
        },
        {
          "internalType": "uint256",
          "name": "chainId",
          "type": "uint256"
        },
        {
          "internalType": "address",
          "name": "verifyingContract",
          "type": "address"
        },
        {
          "internalType": "bytes32",
          "name": "salt",
          "type": "bytes32"
        },
        {
          "internalType": "uint256[]",
          "name": "extensions",
          "type": "uint256[]"
        }
      ],
      "stateMutability": "view",
      "type": "function"
    },
    {
      "inputs": [
        {
          "internalType": "address",
          "name": "spender",
          "type": "address"
        },
        {
          "internalType": "uint256",
          "name": "addedValue",
          "type": "uint256"
        }
      ],
      "name": "increaseAllowance",
      "outputs": [
        {
          "internalType": "bool",
          "name": "",
          "type": "bool"
        }
      ],
      "stateMutability": "nonpayable",
      "type": "function"
    },
    {
      "inputs": [
        {
          "internalType": "bytes",
          "name": "policy_",
          "type": "bytes"
        },
        {
          "internalType": "string",
          "name": "name_",
          "type": "string"
        },
        {
          "internalType": "string",
          "name": "symbol_",
          "type": "string"
        }
      ],
      "name": "initialize",
      "outputs": [],
      "stateMutability": "nonpayable",
      "type": "function"
    },
    {
      "inputs": [
        {
          "internalType": "uint256",
          "name": "tokenId",
          "type": "uint256"
        }
      ],
      "name": "meetsPolicy",
      "outputs": [
        {
          "internalType": "bool",
          "name": "isEligible",
          "type": "bool"
        }
      ],
      "stateMutability": "view",
      "type": "function"
    },
    {
      "inputs": [],
      "name": "name",
      "outputs": [
        {
          "internalType": "string",
          "name": "",
          "type": "string"
        }
      ],
      "stateMutability": "view",
      "type": "function"
    },
    {
      "inputs": [
        {
          "internalType": "address",
          "name": "owner",
          "type": "address"
        }
      ],
      "name": "nonces",
      "outputs": [
        {
          "internalType": "uint256",
          "name": "",
          "type": "uint256"
        }
      ],
      "stateMutability": "view",
      "type": "function"
    },
    {
      "inputs": [
        {
          "internalType": "address",
          "name": "operator",
          "type": "address"
        },
        {
          "internalType": "address",
          "name": "from",
          "type": "address"
        },
        {
          "internalType": "uint256[]",
          "name": "tokenIds",
          "type": "uint256[]"
        },
        {
          "internalType": "uint256[]",
          "name": "values",
          "type": "uint256[]"
        },
        {
          "internalType": "bytes",
          "name": "",
          "type": "bytes"
        }
      ],
      "name": "onERC1155BatchReceived",
      "outputs": [
        {
          "internalType": "bytes4",
          "name": "",
          "type": "bytes4"
        }
      ],
      "stateMutability": "nonpayable",
      "type": "function"
    },
    {
      "inputs": [
        {
          "internalType": "address",
          "name": "operator",
          "type": "address"
        },
        {
          "internalType": "address",
          "name": "from",
          "type": "address"
        },
        {
          "internalType": "uint256",
          "name": "tokenId",
          "type": "uint256"
        },
        {
          "internalType": "uint256",
          "name": "value",
          "type": "uint256"
        },
        {
          "internalType": "bytes",
          "name": "",
          "type": "bytes"
        }
      ],
      "name": "onERC1155Received",
      "outputs": [
        {
          "internalType": "bytes4",
          "name": "",
          "type": "bytes4"
        }
      ],
      "stateMutability": "nonpayable",
      "type": "function"
    },
    {
      "inputs": [],
      "name": "oracle",
      "outputs": [
        {
          "internalType": "contract IJasmineOracle",
          "name": "",
          "type": "address"
        }
      ],
      "stateMutability": "view",
      "type": "function"
    },
    {
      "inputs": [
        {
          "internalType": "address",
          "name": "owner",
          "type": "address"
        },
        {
          "internalType": "address",
          "name": "spender",
          "type": "address"
        },
        {
          "internalType": "uint256",
          "name": "value",
          "type": "uint256"
        },
        {
          "internalType": "uint256",
          "name": "deadline",
          "type": "uint256"
        },
        {
          "internalType": "uint8",
          "name": "v",
          "type": "uint8"
        },
        {
          "internalType": "bytes32",
          "name": "r",
          "type": "bytes32"
        },
        {
          "internalType": "bytes32",
          "name": "s",
          "type": "bytes32"
        }
      ],
      "name": "permit",
      "outputs": [],
      "stateMutability": "nonpayable",
      "type": "function"
    },
    {
      "inputs": [
        {
          "internalType": "uint8",
          "name": "metadataVersion",
          "type": "uint8"
        }
      ],
      "name": "policyForVersion",
      "outputs": [
        {
          "internalType": "bytes",
          "name": "policy",
          "type": "bytes"
        }
      ],
      "stateMutability": "view",
      "type": "function"
    },
    {
      "inputs": [],
      "name": "poolFactory",
      "outputs": [
        {
          "internalType": "address",
          "name": "",
          "type": "address"
        }
      ],
      "stateMutability": "view",
      "type": "function"
    },
    {
      "inputs": [
        {
          "internalType": "address",
          "name": "from",
          "type": "address"
        },
        {
          "internalType": "address",
          "name": "beneficiary",
          "type": "address"
        },
        {
          "internalType": "uint256",
          "name": "amount",
          "type": "uint256"
        },
        {
          "internalType": "bytes",
          "name": "data",
          "type": "bytes"
        }
      ],
      "name": "retire",
      "outputs": [],
      "stateMutability": "nonpayable",
      "type": "function"
    },
    {
      "inputs": [
        {
          "internalType": "address",
          "name": "from",
          "type": "address"
        },
        {
          "internalType": "address",
          "name": "beneficiary",
          "type": "address"
        },
        {
          "internalType": "uint256",
          "name": "amount",
          "type": "uint256"
        },
        {
          "internalType": "bytes",
          "name": "data",
          "type": "bytes"
        }
      ],
      "name": "retireExact",
      "outputs": [],
      "stateMutability": "nonpayable",
      "type": "function"
    },
    {
      "inputs": [
        {
          "internalType": "uint256",
          "name": "amount",
          "type": "uint256"
        }
      ],
      "name": "retirementCost",
      "outputs": [
        {
          "internalType": "uint256",
          "name": "cost",
          "type": "uint256"
        }
      ],
      "stateMutability": "view",
      "type": "function"
    },
    {
      "inputs": [],
      "name": "retirementRate",
      "outputs": [
        {
          "internalType": "uint96",
          "name": "",
          "type": "uint96"
        }
      ],
      "stateMutability": "view",
      "type": "function"
    },
    {
      "inputs": [],
      "name": "retirementService",
      "outputs": [
        {
          "internalType": "address",
          "name": "",
          "type": "address"
        }
      ],
      "stateMutability": "view",
      "type": "function"
    },
    {
      "inputs": [
        {
          "internalType": "uint256",
          "name": "amount",
          "type": "uint256"
        }
      ],
      "name": "selectWithdrawTokens",
      "outputs": [
        {
          "internalType": "uint256[]",
          "name": "tokenIds",
          "type": "uint256[]"
        },
        {
          "internalType": "uint256[]",
          "name": "amounts",
          "type": "uint256[]"
        }
      ],
      "stateMutability": "view",
      "type": "function"
    },
    {
      "inputs": [
        {
          "internalType": "bytes4",
          "name": "interfaceId",
          "type": "bytes4"
        }
      ],
      "name": "supportsInterface",
      "outputs": [
        {
          "internalType": "bool",
          "name": "",
          "type": "bool"
        }
      ],
      "stateMutability": "view",
      "type": "function"
    },
    {
      "inputs": [],
      "name": "symbol",
      "outputs": [
        {
          "internalType": "string",
          "name": "",
          "type": "string"
        }
      ],
      "stateMutability": "view",
      "type": "function"
    },
    {
      "inputs": [],
      "name": "tokenURI",
      "outputs": [
        {
          "internalType": "string",
          "name": "",
          "type": "string"
        }
      ],
      "stateMutability": "view",
      "type": "function"
    },
    {
      "inputs": [],
      "name": "totalSupply",
      "outputs": [
        {
          "internalType": "uint256",
          "name": "",
          "type": "uint256"
        }
      ],
      "stateMutability": "view",
      "type": "function"
    },
    {
      "inputs": [
        {
          "internalType": "address",
          "name": "to",
          "type": "address"
        },
        {
          "internalType": "uint256",
          "name": "amount",
          "type": "uint256"
        }
      ],
      "name": "transfer",
      "outputs": [
        {
          "internalType": "bool",
          "name": "",
          "type": "bool"
        }
      ],
      "stateMutability": "nonpayable",
      "type": "function"
    },
    {
      "inputs": [
        {
          "internalType": "address",
          "name": "from",
          "type": "address"
        },
        {
          "internalType": "address",
          "name": "to",
          "type": "address"
        },
        {
          "internalType": "uint256",
          "name": "amount",
          "type": "uint256"
        }
      ],
      "name": "transferFrom",
      "outputs": [
        {
          "internalType": "bool",
          "name": "",
          "type": "bool"
        }
      ],
      "stateMutability": "nonpayable",
      "type": "function"
    },
    {
      "inputs": [
        {
          "internalType": "uint96",
          "name": "newRetirementRate",
          "type": "uint96"
        }
      ],
      "name": "updateRetirementRate",
      "outputs": [],
      "stateMutability": "nonpayable",
      "type": "function"
    },
    {
      "inputs": [
        {
          "internalType": "uint96",
          "name": "newWithdrawalRate",
          "type": "uint96"
        },
        {
          "internalType": "bool",
          "name": "isSpecificRate",
          "type": "bool"
        }
      ],
      "name": "updateWithdrawalRate",
      "outputs": [],
      "stateMutability": "nonpayable",
      "type": "function"
    },
    {
      "inputs": [
        {
          "internalType": "uint256",
          "name": "tokenId",
          "type": "uint256"
        }
      ],
      "name": "validateDepositValidity",
      "outputs": [
        {
          "internalType": "bool",
          "name": "isValid",
          "type": "bool"
        }
      ],
      "stateMutability": "nonpayable",
      "type": "function"
    },
    {
      "inputs": [
        {
          "internalType": "address",
          "name": "recipient",
          "type": "address"
        },
        {
          "internalType": "uint256",
          "name": "amount",
          "type": "uint256"
        },
        {
          "internalType": "bytes",
          "name": "data",
          "type": "bytes"
        }
      ],
      "name": "withdraw",
      "outputs": [
        {
          "internalType": "uint256[]",
          "name": "tokenIds",
          "type": "uint256[]"
        },
        {
          "internalType": "uint256[]",
          "name": "amounts",
          "type": "uint256[]"
        }
      ],
      "stateMutability": "nonpayable",
      "type": "function"
    },
    {
      "inputs": [
        {
          "internalType": "address",
          "name": "from",
          "type": "address"
        },
        {
          "internalType": "address",
          "name": "recipient",
          "type": "address"
        },
        {
          "internalType": "uint256",
          "name": "amount",
          "type": "uint256"
        },
        {
          "internalType": "bytes",
          "name": "data",
          "type": "bytes"
        }
      ],
      "name": "withdrawFrom",
      "outputs": [
        {
          "internalType": "uint256[]",
          "name": "tokenIds",
          "type": "uint256[]"
        },
        {
          "internalType": "uint256[]",
          "name": "amounts",
          "type": "uint256[]"
        }
      ],
      "stateMutability": "nonpayable",
      "type": "function"
    },
    {
      "inputs": [
        {
          "internalType": "address",
          "name": "from",
          "type": "address"
        },
        {
          "internalType": "address",
          "name": "recipient",
          "type": "address"
        },
        {
          "internalType": "uint256[]",
          "name": "tokenIds",
          "type": "uint256[]"
        },
        {
          "internalType": "uint256[]",
          "name": "amounts",
          "type": "uint256[]"
        },
        {
          "internalType": "bytes",
          "name": "data",
          "type": "bytes"
        }
      ],
      "name": "withdrawSpecific",
      "outputs": [],
      "stateMutability": "nonpayable",
      "type": "function"
    },
    {
      "inputs": [
        {
          "internalType": "uint256",
          "name": "amount",
          "type": "uint256"
        }
      ],
      "name": "withdrawalCost",
      "outputs": [
        {
          "internalType": "uint256",
          "name": "cost",
          "type": "uint256"
        }
      ],
      "stateMutability": "view",
      "type": "function"
    },
    {
      "inputs": [
        {
          "internalType": "uint256[]",
          "name": "tokenIds",
          "type": "uint256[]"
        },
        {
          "internalType": "uint256[]",
          "name": "amounts",
          "type": "uint256[]"
        }
      ],
      "name": "withdrawalCost",
      "outputs": [
        {
          "internalType": "uint256",
          "name": "cost",
          "type": "uint256"
        }
      ],
      "stateMutability": "view",
      "type": "function"
    },
    {
      "inputs": [],
      "name": "withdrawalRate",
      "outputs": [
        {
          "internalType": "uint96",
          "name": "",
          "type": "uint96"
        }
      ],
      "stateMutability": "view",
      "type": "function"
    },
    {
      "inputs": [],
      "name": "withdrawalSpecificRate",
      "outputs": [
        {
          "internalType": "uint96",
          "name": "",
          "type": "uint96"
        }
      ],
      "stateMutability": "view",
      "type": "function"
    }
  ],
  "transactionHash": "0x935df436f85bb2308cd34b2b60ca9eb5813fcb1587bc89f02da4b5a520762228",
  "args": [
    "0xba3aa8083F8978257aAAFB19Ed698a623197A7C1",
    "0x954F12aB1e40fbD7C28f2ab5285d3C74bA6faf6f",
    "0xD473bf49B43eA97315aAe69C28ad326B983418B7",
    "0xEFaD364eae9db7F11F8A9205c3f7bf4D06cdF54a"
  ],
  "numDeployments": 1,
  "solcInputHash": "e3a812005b13cb465d6f20a40b48cc6b",
  "bytecode": "0x6101e06040523480156200001257600080fd5b5060405162005c7b38038062005c7b8339810160408190526200003591620002e7565b8382826040518060400160405280601b81526020017f4a61736d696e65204c697175696469747920506f6f6c2028563129000000000081525083838383838180604051806040016040528060018152602001603160f81b815250846040518060400160405280600381526020016212931560ea1b8152508160039081620000bd9190620003e9565b506004620000cc8282620003e9565b50620000de9150839050600562000245565b61012052620000ef81600662000245565b61014052815160208084019190912060e052815190820120610100524660a0526200017d60e05161010051604080517f8b73c3c69bb8fe3d512ecc4cf759cc79239f7b179b0ffacaa9a75d522b39400f60208201529081019290925260608201524660808201523060a082015260009060c00160405160208183030381529060405280519060200120905090565b60805250503060c052506001600160a01b0390811661016052600e805460ff19166001908117909155600f5584161580620001bf57506001600160a01b038316155b80620001d257506001600160a01b038216155b15620001f157604051630a0b0d7960e01b815260040160405180910390fd5b506001600160a01b03908116610180529081166101a052881694506200022f93505050505760405163b4fa3fb360e01b815260040160405180910390fd5b50506001600160a01b03166101c052506200052a565b600060208351101562000265576200025d836200027e565b905062000278565b81620002728482620003e9565b5060ff90505b92915050565b600080829050601f81511115620002b5578260405163305a27a960e01b8152600401620002ac9190620004b5565b60405180910390fd5b8051620002c28262000505565b179392505050565b80516001600160a01b0381168114620002e257600080fd5b919050565b60008060008060808587031215620002fe57600080fd5b6200030985620002ca565b93506200031960208601620002ca565b92506200032960408601620002ca565b91506200033960608601620002ca565b905092959194509250565b634e487b7160e01b600052604160045260246000fd5b600181811c908216806200036f57607f821691505b6020821081036200039057634e487b7160e01b600052602260045260246000fd5b50919050565b601f821115620003e457600081815260208120601f850160051c81016020861015620003bf5750805b601f850160051c820191505b81811015620003e057828155600101620003cb565b5050505b505050565b81516001600160401b0381111562000405576200040562000344565b6200041d816200041684546200035a565b8462000396565b602080601f8311600181146200045557600084156200043c5750858301515b600019600386901b1c1916600185901b178555620003e0565b600085815260208120601f198616915b82811015620004865788860151825594840194600190910190840162000465565b5085821015620004a55787850151600019600388901b60f8161c191681555b5050505050600190811b01905550565b600060208083528351808285015260005b81811015620004e457858101830151858201604001528201620004c6565b506000604082860101526040601f19601f8301168501019250505092915050565b80516020808301519190811015620003905760001960209190910360031b1b16919050565b60805160a05160c05160e05161010051610120516101405161016051610180516101a0516101c05161560662000675600039600081816104c401526110e40152600081816103fe0152818161088c01528181610a1901528181610ad001528181610b5e01528181610c1501528181610e3101528181610ef60152818161177a01528181611de60152611e7a0152600081816106720152612f4c01526000818161038901528181610fad015281816111af0152818161153701528181611d6b01528181612235015281816124f00152818161258001528181612b0401528181612b4e015281816132750152818161333101528181613417015281816134e3015281816135c101528181613c5e0152613fec01526000610dd301526000610da801526000611ccf01526000611ca701526000611c0201526000611c2c01526000611c5601526156066000f3fe608060405234801561001057600080fd5b50600436106102b45760003560e01c80637dc0d1d011610171578063bc197c81116100d3578063dd62ed3e11610097578063eb809e4011610071578063eb809e401461066d578063f23a6e6114610694578063fd40baaf146106a757600080fd5b8063dd62ed3e1461060e578063e0c5656e14610647578063e2bbb1581461065a57600080fd5b8063bc197c8114610596578063c117db0b146105c2578063d1cf86a9146105d5578063d505accf146105e8578063d8d82dac146105fb57600080fd5b806395d89b41116101355780639fda86ca1161010f5780639fda86ca1461055d578063a457c2d714610570578063a9059cbb1461058357600080fd5b806395d89b411461052f578063973bec21146105375780639c493c0b1461054a57600080fd5b80637dc0d1d0146104bf5780637ecebe00146104e657806383af9d68146104f957806384b0196e1461050c5780638c5d1c781461052757600080fd5b8063395093511161021a57806352cf9ede116101de5780635acab952116101b85780635acab952146104705780635b72afa81461048357806370a082311461049657600080fd5b806352cf9ede146104355780635430ae1514610448578063583d26231461046857600080fd5b806339509351146103cb5780633c130d90146103de5780633d9e8cc5146103e65780634219dc40146103f95780634fe078fa1461042057600080fd5b806323b872dd1161027c57806331f092651161025657806331f0926514610363578063340a2a4e146103845780633644e515146103c357600080fd5b806323b872dd1461032e57806326a1069114610341578063313ce5671461035457600080fd5b806301ffc9a7146102b957806306fdde03146102e1578063095ea7b3146102f657806318160ddd14610309578063204003651461031b575b600080fd5b6102cc6102c736600461442a565b6106ba565b60405190151581526020015b60405180910390f35b6102e9610700565b6040516102d891906144a4565b6102cc6103043660046144cc565b610792565b6002545b6040519081526020016102d8565b61030d6103293660046144f8565b6107aa565b6102cc61033c366004614511565b6107b5565b61030d61034f366004614674565b6107db565b604051601281526020016102d8565b61037661037136600461471a565b6107e7565b6040516102d89291906147b1565b6103ab7f000000000000000000000000000000000000000000000000000000000000000081565b6040516001600160a01b0390911681526020016102d8565b61030d61083a565b6102cc6103d93660046144cc565b610849565b6102e9610888565b61030d6103f43660046147d6565b610937565b6103ab7f000000000000000000000000000000000000000000000000000000000000000081565b61043361042e366004614820565b61094c565b005b6102e961044336600461484e565b610960565b610450610a0b565b6040516001600160601b0390911681526020016102d8565b610450610b50565b61043361047e3660046148ae565b610c71565b61030d6104913660046144f8565b610d1e565b61030d6104a436600461496d565b6001600160a01b031660009081526020819052604090205490565b6103ab7f000000000000000000000000000000000000000000000000000000000000000081565b61030d6104f436600461496d565b610d29565b61037661050736600461498a565b610d47565b610514610d9a565b6040516102d897969594939291906149fd565b610450610e23565b6102e9610f52565b6102cc6105453660046144f8565b610f61565b6102cc6105583660046144f8565b6110cb565b61037661056b3660046144f8565b611109565b6102cc61057e3660046144cc565b61127c565b6102cc6105913660046144cc565b6112f5565b6105a96105a4366004614ae4565b611303565b6040516001600160e01b031990911681526020016102d8565b6104336105d0366004614b92565b611346565b61030d6105e3366004614c2c565b611516565b6104336105f6366004614c9e565b6115f8565b610433610609366004614d1a565b611714565b61030d61061c366004614d53565b6001600160a01b03918216600090815260016020908152604080832093909416825291909152205490565b61043361065536600461498a565b61172a565b61030d610668366004614d81565b611816565b6103ab7f000000000000000000000000000000000000000000000000000000000000000081565b6105a96106a2366004614da3565b611823565b6104336106b536600461498a565b611802565b60006001600160e01b0319821663c117db0b60e01b14806106eb57506001600160e01b031982166303c130d960e41b145b806106fa57506106fa8261186f565b92915050565b60606010805461070f90614e0c565b80601f016020809104026020016040519081016040528092919081815260200182805461073b90614e0c565b80156107885780601f1061075d57610100808354040283529160200191610788565b820191906000526020600020905b81548152906001019060200180831161076b57829003601f168201915b5050505050905090565b6000336107a08185856118a5565b5060019392505050565b60006106fa8261195b565b6000336107c385828561198e565b6107ce858585611a0a565b60019150505b9392505050565b60006107d48383611b17565b60608061082c33878787878080601f016020809104026020016040519081016040528093929190818152602001838380828437600092019190915250611b5092505050565b915091505b94509492505050565b6000610844611bf5565b905090565b3360008181526001602090815260408083206001600160a01b03871684529091528120549091906107a09082908690610883908790614e56565b6118a5565b60607f00000000000000000000000000000000000000000000000000000000000000006001600160a01b031663c852d3336040518163ffffffff1660e01b8152600401600060405180830381865afa1580156108e8573d6000803e3d6000fd5b505050506040513d6000823e601f3d908101601f191682016040526109109190810190614e69565b6011604051602001610923929190614ed7565b604051602081830303815290604052905090565b6000610944848484611d20565b949350505050565b610954611ddc565b61095d81611f18565b50565b60608160ff166001146109905760405163f1ef035960e01b815260ff831660048201526024015b60405180910390fd5b6015546040805160145466ffffffffffffff808216602084015260389190911c169181019190915263ffffffff8083166060830152640100000000830481166080830152600160401b8304811660a0830152600160601b90920490911660c082015260e0016040516020818303038152906040529050919050565b6000806001600160a01b03167f00000000000000000000000000000000000000000000000000000000000000006001600160a01b031663492fb3436040518163ffffffff1660e01b8152600401602060405180830381865afa158015610a75573d6000803e3d6000fd5b505050506040513d601f19601f82011682018060405250810190610a999190614f64565b6001600160a01b031603610aad5750600090565b6013546001600160601b031615610ace57506013546001600160601b031690565b7f00000000000000000000000000000000000000000000000000000000000000006001600160a01b03166344e8dc696040518163ffffffff1660e01b8152600401602060405180830381865afa158015610b2c573d6000803e3d6000fd5b505050506040513d601f19601f820116820180604052508101906108449190614f81565b6000806001600160a01b03167f00000000000000000000000000000000000000000000000000000000000000006001600160a01b031663492fb3436040518163ffffffff1660e01b8152600401602060405180830381865afa158015610bba573d6000803e3d6000fd5b505050506040513d601f19601f82011682018060405250810190610bde9190614f64565b6001600160a01b031603610bf25750600090565b6012546001600160601b031615610c1357506012546001600160601b031690565b7f00000000000000000000000000000000000000000000000000000000000000006001600160a01b031663118200956040518163ffffffff1660e01b8152600401602060405180830381865afa158015610b2c573d6000803e3d6000fd5b610d14888888888080602002602001604051908101604052809392919081815260200183836020028082843760009201919091525050604080516020808c0282810182019093528b82529093508b92508a91829185019084908082843760009201919091525050604080516020601f8b018190048102820181019092528981529250899150889081908401838280828437600092019190915250611f7492505050565b5050505050505050565b60006106fa8261201b565b6001600160a01b0381166000908152600760205260408120546106fa565b606080610d8c87878787878080601f016020809104026020016040519081016040528093929190818152602001838380828437600092019190915250611b5092505050565b915091509550959350505050565b600060608082808083610dce7f00000000000000000000000000000000000000000000000000000000000000006005612029565b610df97f00000000000000000000000000000000000000000000000000000000000000006006612029565b60408051600080825260208201909252600f60f81b9b939a50919850469750309650945092509050565b6000806001600160a01b03167f00000000000000000000000000000000000000000000000000000000000000006001600160a01b031663492fb3436040518163ffffffff1660e01b8152600401602060405180830381865afa158015610e8d573d6000803e3d6000fd5b505050506040513d601f19601f82011682018060405250810190610eb19190614f64565b6001600160a01b031603610ec55750600090565b601254600160601b90046001600160601b031615610ef45750601254600160601b90046001600160601b031690565b7f00000000000000000000000000000000000000000000000000000000000000006001600160a01b031663e34b23926040518163ffffffff1660e01b8152600401602060405180830381865afa158015610b2c573d6000803e3d6000fd5b60606011805461070f90614e0c565b6000610f6b6120d4565b610f748261212d565b610f915760405163b4fa3fb360e01b815260040160405180910390fd5b6009546040516303a6b01160e61b8152600481018490526000907f00000000000000000000000000000000000000000000000000000000000000006001600160a01b03169063e9ac044090602401602060405180830381865afa158015610ffc573d6000803e3d6000fd5b505050506040513d601f19601f820116820180604052508101906110209190614f9e565b9050600061102f858315612176565b8061103e575061103e85612200565b905080156110b857600061105460095485612333565b61106060095486612349565b61106a9190614fbb565b80159550905084156110835760019450505050506110bc565b6009548410156110a45761109f3361109a83612358565b61236c565b6110b6565b6110b6336110b183612358565b612444565b505b5050505b6110c66001600f55565b919050565b60006110d6826124d7565b80156106fa57506106fa60147f0000000000000000000000000000000000000000000000000000000000000000846125fa565b60608060008061111885612983565b509150915060008267ffffffffffffffff81111561113857611138614552565b604051908082528060200260200182016040528015611161578160200160208202803683370190505b50945060005b838110156111ac5761117a600a83612a18565b9250611187905082612a33565b86828151811061119957611199614fce565b6020908102919091010152600101611167565b507f00000000000000000000000000000000000000000000000000000000000000006001600160a01b0316634e1273f46111e63086612a7d565b876040518363ffffffff1660e01b8152600401611204929190614fe4565b600060405180830381865afa158015611221573d6000803e3d6000fd5b505050506040513d6000823e601f3d908101601f191682016040526112499190810190615044565b93508184611258600186614fbb565b8151811061126857611268614fce565b602002602001018181525050505050915091565b3360008181526001602090815260408083206001600160a01b0387168452909152812054909190838110156112dd57604051632983c0c360e21b81526001600160a01b03861660048201526024810182905260448101859052606401610987565b6112ea82868684036118a5565b506001949350505050565b6000336107a0818585611a0a565b600061130d612b02565b611318858585612b7b565b60006113248585612b84565b9050611331878783612be6565b5063bc197c8160e01b90505b95945050505050565b600e5462010000900460ff161580801561136b5750600e54600161010090910460ff16105b8061138b5750303b15801561138b5750600e5460ff610100909104166001145b6113ee5760405162461bcd60e51b815260206004820152602e60248201527f496e697469616c697a61626c653a20636f6e747261637420697320616c72656160448201526d191e481a5b9a5d1a585b1a5e995960921b6064820152608401610987565b600e805461ff001916610100179055801561141557600e805462ff00001916620100001790555b611421868801886150e9565b80516014906114339082906002614370565b506020820151600190910180546040840151606085015160809095015163ffffffff908116600160601b026fffffffff00000000000000000000000019968216600160401b02969096166fffffffffffffffff0000000000000000199282166401000000000267ffffffffffffffff1990941691909516179190911716919091179190911790556114c685858585612c38565b801561150d57600e805462ff000019169055604051600181527f7f26b83ff96e1f2b6a682f133852f6798a09c465da95921460cefb38474024989060200160405180910390a15b50505050505050565b60006115206120d4565b604051631759616b60e11b81526001600160a01b037f00000000000000000000000000000000000000000000000000000000000000001690632eb2c2d69061157690899030908a908a908a908a906004016151dd565b600060405180830381600087803b15801561159057600080fd5b505af11580156115a4573d6000803e3d6000fd5b505050506115ec6115e7848480806020026020016040519081016040528093929190818152602001838360200280828437600092019190915250612cbf92505050565b612358565b905061133d6001600f55565b8342111561161c5760405163313c898160e11b815260048101859052602401610987565b60007f6e71edae12b1b97f4d1f60370fef10105fa2faae0126114a169c64845d6126c988888861164b8c612d01565b6040805160208101969096526001600160a01b0394851690860152929091166060840152608083015260a082015260c0810186905260e00160405160208183030381529060405280519060200120905060006116a682612d27565b905060006116b682878787612d54565b9050896001600160a01b0316816001600160a01b0316146116fd576040516325c0072360e11b81526001600160a01b0380831660048301528b166024820152604401610987565b6117088a8a8a6118a5565b50505050505050505050565b61171c611ddc565b6117268282612d7c565b5050565b611732610a0b565b6001600160601b0316156118025760008361174c85610d1e565b6117569190614fbb565b90506001600160a01b03861633146117745761177486335b8361198e565b611800867f00000000000000000000000000000000000000000000000000000000000000006001600160a01b031663492fb3436040518163ffffffff1660e01b8152600401602060405180830381865afa1580156117d6573d6000803e3d6000fd5b505050506040513d601f19601f820116820180604052508101906117fa9190614f64565b83611a0a565b505b61180f8585858585612e22565b5050505050565b60006107d4338484611d20565b600061182d612b02565b6118488561183a86612fd0565b61184386612fd0565b612b7b565b6118528484612ffb565b61185d868685612be6565b5063f23a6e6160e01b95945050505050565b60006001600160e01b03198216630271189760e51b14806106fa57506001600160e01b031982166301ffc9a760e01b1492915050565b6001600160a01b0383166118cf5760405163e602df0560e01b815260006004820152602401610987565b6001600160a01b0382166118f957604051634a1406b160e11b815260006004820152602401610987565b6001600160a01b0383811660008181526001602090815260408083209487168084529482529182902085905590518481527f8c5be1e5ebec7d5bd14f71427d1e84f3dd0314c0f7b2291e5b200ac8c7c3b92591015b60405180910390a3505050565b60006106fa61196983613071565b611971610e23565b61197d9061271061523c565b6001600160601b031661271061307c565b6001600160a01b038381166000908152600160209081526040808320938616835292905220546000198114611a0457818110156119f757604051637dc7a0d960e11b81526001600160a01b03841660048201526024810182905260448101839052606401610987565b611a0484848484036118a5565b50505050565b6001600160a01b038316611a3457604051634b637e8f60e11b815260006004820152602401610987565b6001600160a01b038216611a5e5760405163ec442f0560e01b815260006004820152602401610987565b6001600160a01b03831660009081526020819052604090205481811015611ab15760405163391434e360e21b81526001600160a01b03851660048201526024810182905260448101839052606401610987565b6001600160a01b03848116600081815260208181526040808320878703905593871680835291849020805487019055925185815290927fddf252ad1be2c89b69c2b068fc378daa952ba7f163c4a11628f55a4df523b3ef910160405180910390a3611a04565b60008151835114611b3b5760405163b4fa3fb360e01b815260040160405180910390fd5b6107d4611b48848461316e565b611971610b50565b600e805460ff19166002179055606080611b686120d4565b6000611b7385613071565b9050611b7f878261319e565b611b8a8686866131e3565b60405187815291945092506001600160a01b0380881691908916907f9b1bfa7fa9ee420a16e124f794c35ac9f90472acc99140eb2f6447c714cad8eb9060200160405180910390a350611bdd6001600f55565b600e805460ff19166001179055909590945092505050565b6000306001600160a01b037f000000000000000000000000000000000000000000000000000000000000000016148015611c4e57507f000000000000000000000000000000000000000000000000000000000000000046145b15611c7857507f000000000000000000000000000000000000000000000000000000000000000090565b610844604080517f8b73c3c69bb8fe3d512ecc4cf759cc79239f7b179b0ffacaa9a75d522b39400f60208201527f0000000000000000000000000000000000000000000000000000000000000000918101919091527f000000000000000000000000000000000000000000000000000000000000000060608201524660808201523060a082015260009060c00160405160208183030381529060405280519060200120905090565b6000611d2a6120d4565b604051637921219560e11b81526001600160a01b038581166004830152306024830152604482018590526064820184905260a06084830152600060a48301527f0000000000000000000000000000000000000000000000000000000000000000169063f242432a9060c401600060405180830381600087803b158015611daf57600080fd5b505af1158015611dc3573d6000803e3d6000fd5b50505050611dd082612358565b90506107d46001600f55565b6001600160a01b037f00000000000000000000000000000000000000000000000000000000000000001663daf7f900336040516001600160e01b031960e084901b1681526001600160a01b039091166004820152602401602060405180830381865afa158015611e50573d6000803e3d6000fd5b505050506040513d601f19601f82011682018060405250810190611e749190614f9e565b611f16577f00000000000000000000000000000000000000000000000000000000000000006001600160a01b03166305db2f416040518163ffffffff1660e01b8152600401602060405180830381865afa158015611ed6573d6000803e3d6000fd5b505050506040513d601f19601f82011682018060405250810190611efa919061525c565b60405163a70ce63560e01b815260040161098791815260200190565b565b601380546001600160601b0383166bffffffffffffffffffffffff199091168117909155604080519182525133917f6105900ce5886c9460433cc4bd9661915e683b74c47ecfe63b4644a754a0e1ca919081900360200190a250565b600e805460ff19166002179055611f896120d4565b6000611f95848461316e565b9050611fa1868261319e565b611fad85858585613492565b846001600160a01b0316866001600160a01b03167f9b1bfa7fa9ee420a16e124f794c35ac9f90472acc99140eb2f6447c714cad8eb611feb86612cbf565b60405190815260200160405180910390a3506120076001600f55565b5050600e805460ff19166001179055505050565b60006106fa82611971610a0b565b606060ff83146120435761203c8361362c565b90506106fa565b81805461204f90614e0c565b80601f016020809104026020016040519081016040528092919081815260200182805461207b90614e0c565b80156120c85780601f1061209d576101008083540402835291602001916120c8565b820191906000526020600020905b8154815290600101906020018083116120ab57829003601f168201915b505050505090506106fa565b6002600f54036121265760405162461bcd60e51b815260206004820152601f60248201527f5265656e7472616e637947756172643a207265656e7472616e742063616c6c006044820152606401610987565b6002600f55565b6000806121398361366b565b90506000612148600a836136cd565b5050905080806109445750600882901c6000908152600d6020526040902054600160ff84161b161515610944565b6000806121828461366b565b600881901c6000908152600d602052604090205490915083151590600160ff84161b1615151515141591506121ba600d828515613720565b826121d0576121ca600a8261376f565b506121f9565b6000806121de600a846136cd565b5091509150816121f6576121f4600a8285613808565b505b50505b5092915050565b60008061220c8361366b565b604051627eeac760e11b8152306004820152602481018590529091506000906001600160a01b037f0000000000000000000000000000000000000000000000000000000000000000169062fdd58e90604401602060405180830381865afa15801561227b573d6000803e3d6000fd5b505050506040513d601f19601f8201168201806040525081019061229f919061525c565b6000838152600c602052604090205481148015945090915061232c576000828152600c60205260409020548111156122ea57604051630a0b0d7960e01b815260040160405180910390fd5b6000828152600c6020526040902054612304908290614fbb565b600960008282546123159190614fbb565b90915550506000828152600c602052604090208190555b5050919050565b600081831061234257816107d4565b5090919050565b600081831161234257816107d4565b60006106fa82670de0b6b3a7640000615275565b6001600160a01b03821661239657604051634b637e8f60e11b815260006004820152602401610987565b6001600160a01b038216600090815260208190526040902054818110156123e95760405163391434e360e21b81526001600160a01b03841660048201526024810182905260448101839052606401610987565b6001600160a01b0383166000818152602081815260408083208686039055600280548790039055518581529192917fddf252ad1be2c89b69c2b068fc378daa952ba7f163c4a11628f55a4df523b3ef910161194e565b505050565b6001600160a01b03821661246e5760405163ec442f0560e01b815260006004820152602401610987565b80600260008282546124809190614e56565b90915550506001600160a01b038216600081815260208181526040808320805486019055518481527fddf252ad1be2c89b69c2b068fc378daa952ba7f163c4a11628f55a4df523b3ef910160405180910390a35050565b604051634f558e7960e01b8152600481018290526000907f00000000000000000000000000000000000000000000000000000000000000006001600160a01b031690634f558e7990602401602060405180830381865afa15801561253f573d6000803e3d6000fd5b505050506040513d601f19601f820116820180604052508101906125639190614f9e565b80156106fa57506040516303a6b01160e61b8152600481018390527f00000000000000000000000000000000000000000000000000000000000000006001600160a01b03169063e9ac044090602401602060405180830381865afa1580156125cf573d6000803e3d6000fd5b505050506040513d601f19601f820116820180604052508101906125f39190614f9e565b1592915050565b825460009066ffffffffffffff1663ffffffff148015906126355750835466ffffffffffffff6701000000000000009091041663ffffffff14155b80156126cd57508354604051632a734e8760e11b81526004810184905266ffffffffffffff808316602483015267010000000000000090920490911660448201526001600160a01b038416906354e69d0e90606401602060405180830381865afa1580156126a7573d6000803e3d6000fd5b505050506040513d601f19601f820116820180604052508101906126cb9190614f9e565b155b156126da575060006107d4565b600184015463ffffffff9081161480159061276d5750600184015460405163f776e98d60e01b81526004810184905263ffffffff90911660248201526001600160a01b0384169063f776e98d90604401602060405180830381865afa158015612747573d6000803e3d6000fd5b505050506040513d601f19601f8201168201806040525081019061276b9190614f9e565b155b1561277a575060006107d4565b6001840154640100000000900463ffffffff9081161480159061281c5750600184015460405163d7c9d1c560e01b81526004810184905264010000000090910463ffffffff1660248201526001600160a01b0384169063d7c9d1c590604401602060405180830381865afa1580156127f6573d6000803e3d6000fd5b505050506040513d601f19601f8201168201806040525081019061281a9190614f9e565b155b15612829575060006107d4565b6001840154600160401b900463ffffffff908116148015906128c957506001840154604051634ce78e5f60e01b815260048101849052600160401b90910463ffffffff1660248201526001600160a01b03841690634ce78e5f90604401602060405180830381865afa1580156128a3573d6000803e3d6000fd5b505050506040513d601f19601f820116820180604052508101906128c79190614f9e565b155b156128d6575060006107d4565b6001840154600160601b900463ffffffff908116148015906129765750600184015460405163bc5f8ccd60e01b815260048101849052600160601b90910463ffffffff1660248201526001600160a01b0384169063bc5f8ccd90604401602060405180830381865afa158015612950573d6000803e3d6000fd5b505050506040513d601f19601f820116820180604052508101906129749190614f9e565b155b156107a0575060006107d4565b60008080808060015b8683141580156129995750805b156129fb576129a9600a83612a18565b92509050801561298c576000828152600c6020526040902054876129cd8286614e56565b10156129e257600190960195928301926129f5565b50600190950194918603935085916129fb565b5061298c565b506000908152600c60205260409020549395929450505090821490565b600080612a2784846001613817565b915091505b9250929050565b6fffffffffffffffffffffffffffffffff19602882901b9081166fffffffff000000000000000000000000909116176bffffffffff0000000000000060a09290921c919091161790565b60608167ffffffffffffffff811115612a9857612a98614552565b604051908082528060200260200182016040528015612ac1578160200160208202803683370190505b50905060005b828110156121f95783828281518110612ae257612ae2614fce565b6001600160a01b0390921660209283029190910190910152600101612ac7565b7f00000000000000000000000000000000000000000000000000000000000000006001600160a01b03163314611f165760405162e0606b60e41b81523360048201526001600160a01b037f0000000000000000000000000000000000000000000000000000000000000000166024820152604401610987565b61243f8261385e565b60095460005b8351811015612bd757612bcf848281518110612ba857612ba8614fce565b6020026020010151848381518110612bc257612bc2614fce565b6020026020010151612ffb565b600101612b8a565b50806009546107d49190614fbb565b612bf3826110b183612358565b816001600160a01b0316836001600160a01b03167f5548c837ab068cf56a2c2479df0882a4922fd203edb7517321831d95078c5f628360405161194e91815260200190565b600e5462010000900460ff16612ca45760405162461bcd60e51b815260206004820152602b60248201527f496e697469616c697a61626c653a20636f6e7472616374206973206e6f74206960448201526a6e697469616c697a696e6760a81b6064820152608401610987565b6010612cb18486836152da565b50601161180f8284836152da565b6000805b8251811015612cfb57828181518110612cde57612cde614fce565b602002602001015182612cf19190614e56565b9150600101612cc3565b50919050565b6001600160a01b0381166000908152600760205260409020805460018101825590612cfb565b60006106fa612d34611bf5565b8360405161190160f01b8152600281019290925260228201526042902090565b6000806000612d65878787876138ce565b91509150612d728161398f565b5095945050505050565b8015612db9576012805477ffffffffffffffffffffffff0000000000000000000000001916600160601b6001600160601b03851602179055612dda565b601280546bffffffffffffffffffffffff19166001600160601b0384161790555b604080516001600160601b03841681528215156020820152815133927fc97eaa866149306aeba9652f5787fa8cc3e58d7ad2478f03bd66310e8db82ab7928290030190a25050565b600e805460ff19166002179055612e376120d4565b82612e42868261319e565b6000612e61612e5060025490565b612e5c6012600a61547e565b613ad9565b600954612e6e9190614fbb565b90506000612e7e6012600a61547e565b612e8890876154a3565b82119050606082600003612eec57876001600160a01b0316896001600160a01b03167f65cfb5887a5cf97fac4b49f904a0a8c360599af5e8609bf7ea1acf14a918856889604051612edb91815260200190565b60405180910390a350505050612fc6565b818015612ef95750826001145b15612f0d57612f06613b10565b9050612f1a565b612f178883613b27565b90505b8415612f4757808686604051602001612f35939291906154c5565b60405160208183030381529060405290505b612f727f000000000000000000000000000000000000000000000000000000000000000084836131e3565b5050876001600160a01b0316896001600160a01b03167f65cfb5887a5cf97fac4b49f904a0a8c360599af5e8609bf7ea1acf14a918856889604051612fb991815260200190565b60405180910390a3505050505b6120076001600f55565b6040805160018082528183019092526060916020808301908036833750505060208101929092525090565b60006130068361366b565b9050600080613016600a846136cd565b50915091508161302e5761302c600a8285613808565b505b6000838152600c60205260408120805486929061304c908490614e56565b9250508190555083600960008282546130659190614e56565b90915550505050505050565b60006106fa82612358565b60008080600019858709858702925082811083820303915050806000036130b6578382816130ac576130ac61548d565b04925050506107d4565b8084116131055760405162461bcd60e51b815260206004820152601560248201527f4d6174683a206d756c446976206f766572666c6f7700000000000000000000006044820152606401610987565b60008486880960026001871981018816978890046003810283188082028403028082028403028082028403028082028403028082028403029081029092039091026000889003889004909101858311909403939093029303949094049190911702949350505050565b600081518351146131925760405163b4fa3fb360e01b815260040160405180910390fd5b6107d46115e783612cbf565b806000036131bf5760405163b4fa3fb360e01b815260040160405180910390fd5b6001600160a01b03821633146131d9576131d9823361176e565b611726828261236c565b6060806131ee613b90565b60008060006131fc87612983565b925092509250826001036133185780156132315761322a613225613220600a613bb6565b612a33565b612fd0565b9450613244565b613241613225613220600a613bc3565b94505b61324d82612fd0565b93506132738560008151811061326557613265614fce565b602002602001015183613bee565b7f00000000000000000000000000000000000000000000000000000000000000006001600160a01b031663f242432a308a886000815181106132b7576132b7614fce565b6020026020010151868b6040518663ffffffff1660e01b81526004016132e195949392919061550b565b600060405180830381600087803b1580156132fb57600080fd5b505af115801561330f573d6000803e3d6000fd5b50505050613487565b61332d613328600a858415613d47565b613f4d565b94507f00000000000000000000000000000000000000000000000000000000000000006001600160a01b0316634e1273f46133683086612a7d565b876040518363ffffffff1660e01b8152600401613386929190614fe4565b600060405180830381865afa1580156133a3573d6000803e3d6000fd5b505050506040513d6000823e601f3d908101601f191682016040526133cb9190810190615044565b935081846133da600186614fbb565b815181106133ea576133ea614fce565b6020026020010181815250506134008585613fe8565b604051631759616b60e11b81526001600160a01b037f00000000000000000000000000000000000000000000000000000000000000001690632eb2c2d6906134549030908c908a908a908d90600401615543565b600060405180830381600087803b15801561346e57600080fd5b505af1158015613482573d6000803e3d6000fd5b505050505b505050935093915050565b61349a613b90565b82516001036135a0576134e1836000815181106134b9576134b9614fce565b6020026020010151836000815181106134d4576134d4614fce565b6020026020010151613bee565b7f00000000000000000000000000000000000000000000000000000000000000006001600160a01b031663f242432a30868660008151811061352557613525614fce565b60200260200101518660008151811061354057613540614fce565b6020026020010151866040518663ffffffff1660e01b815260040161356995949392919061550b565b600060405180830381600087803b15801561358357600080fd5b505af1158015613597573d6000803e3d6000fd5b50505050611a04565b6135aa8383613fe8565b604051631759616b60e11b81526001600160a01b037f00000000000000000000000000000000000000000000000000000000000000001690632eb2c2d6906135fe9030908890889088908890600401615543565b600060405180830381600087803b15801561361857600080fd5b505af1158015610d14573d6000803e3d6000fd5b60606000613639836141ed565b604080516020808252818301909252919250600091906020820181803683375050509182525060208101929092525090565b6000608082901c606083901c63ffffffff16603884901c64ffffffffff1666ffffffffffffff851680156136b257604051630a0b0d7960e01b815260040160405180910390fd5b5060d81b60589290921b9190911760389190911b1792915050565b60008060006136dc8585614215565b6136ee57506000915081905080613719565b5050506000818152600183810160209081526040808420848052909152808320548284529220549091905b9250925092565b801561374a57600882901c60009081526020849052604090208054600160ff85161b179055505050565b600882901c60009081526020849052604090208054600160ff85161b19169055505050565b600081158061378557506137838383614215565b155b15613792575060006106fa565b600082815260018481016020818152604080852085805280835281862080548688528388208054808a52878752858a208a80528752858a208390559189529585528388208789528552928720929092559091528390558290558454909185916137fc908490614fbb565b90915550919392505050565b60006109448484846000614299565b6000806138248585614215565b61383357506000905080613856565b505060008281526001848101602090815260408084208515158552909152909120545b935093915050565b60005b81518110156117265761388c82828151811061387f5761387f614fce565b60200260200101516110cb565b6138c6578181815181106138a2576138a2614fce565b6020026020010151604051630205aa6560e31b815260040161098791815260200190565b600101613861565b6000807f7fffffffffffffffffffffffffffffff5d576e7357a4501ddfe92f46681b20a08311156139055750600090506003610831565b6040805160008082526020820180845289905260ff881692820192909252606081018690526080810185905260019060a0016020604051602081039080840390855afa158015613959573d6000803e3d6000fd5b5050604051601f1901519150506001600160a01b03811661398257600060019250925050610831565b9660009650945050505050565b60008160048111156139a3576139a36155a1565b036139ab5750565b60018160048111156139bf576139bf6155a1565b03613a0c5760405162461bcd60e51b815260206004820152601860248201527f45434453413a20696e76616c6964207369676e617475726500000000000000006044820152606401610987565b6002816004811115613a2057613a206155a1565b03613a6d5760405162461bcd60e51b815260206004820152601f60248201527f45434453413a20696e76616c6964207369676e6174757265206c656e677468006044820152606401610987565b6003816004811115613a8157613a816155a1565b0361095d5760405162461bcd60e51b815260206004820152602260248201527f45434453413a20696e76616c6964207369676e6174757265202773272076616c604482015261756560f01b6064820152608401610987565b60008215613b075781613aed600185614fbb565b613af791906154a3565b613b02906001614e56565b6107d4565b50600092915050565b60408051600160f81b602082015260609101610923565b606081613b35576000613b3b565b600160f81b5b604080517fff0000000000000000000000000000000000000000000000000000000000000090921660208301526001600160a01b03851690820152606001604051602081830303815290604052905092915050565b600e5460ff16600214611f165760405163199971db60e21b815260040160405180910390fd5b60006106fa826001614344565b6000806000613bd3846000612a18565b915091508115613be4579392505050565b5060009392505050565b613c1f613bfa8361366b565b600881901c6000908152600d6020526040902054600160ff9092169190911b16151590565b15613c4057604051632a759d1960e01b815260048101839052602401610987565b604051627eeac760e11b8152306004820152602481018390526000907f00000000000000000000000000000000000000000000000000000000000000006001600160a01b03169062fdd58e90604401602060405180830381865afa158015613cac573d6000803e3d6000fd5b505050506040513d601f19601f82011682018060405250810190613cd0919061525c565b90506000613cdd8461366b565b9050828203613d0657613cf1600a8261376f565b506000818152600c6020526040812055613d2a565b6000818152600c602052604081208054859290613d24908490614fbb565b90915550505b8260096000828254613d3c9190614fbb565b909155505050505050565b6060613d51845490565b831115613d5d57600080fd5b60008367ffffffffffffffff811115613d7857613d78614552565b604051908082528060200260200182016040528015613da1578160200160208202803683370190505b5090506000613db1866000612a18565b91505060005b85811015613dfe5781838281518110613dd257613dd2614fce565b602002602001018181525050613de88783612a18565b9250819050613df6816155b7565b915050613db7565b8415613e1257613e0e8783614361565b9250505b613e1c8783614215565b15613e5357600082815260018089016020818152604080852085805282528085208590559181528184209284529190915290208290555b5060005b84613e63576000613e66565b60015b613e739060ff1687614fbb565b811015613f1457866001016000848381518110613e9257613e92614fce565b6020026020010151815260200190815260200160002060008015151515815260200190815260200160002060009055866001016000848381518110613ed957613ed9614fce565b602090810291909101810151825281810192909252604090810160009081206001825290925281205580613f0c816155b7565b915050613e57565b84613f1f5785613f2a565b613f2a600187614fbb565b876000016000828254613f3d9190614fbb565b9091555092979650505050505050565b6060815167ffffffffffffffff811115613f6957613f69614552565b604051908082528060200260200182016040528015613f92578160200160208202803683370190505b50905060005b8251811015612cfb57613fc3838281518110613fb657613fb6614fce565b6020026020010151612a33565b828281518110613fd557613fd5614fce565b6020908102919091010152600101613f98565b60007f00000000000000000000000000000000000000000000000000000000000000006001600160a01b0316634e1273f4614024308651612a7d565b856040518363ffffffff1660e01b8152600401614042929190614fe4565b600060405180830381865afa15801561405f573d6000803e3d6000fd5b505050506040513d6000823e601f3d908101601f191682016040526140879190810190615044565b90506000805b84518110156141da576140bb613bfa8683815181106140ae576140ae614fce565b602002602001015161366b565b156140f6578481815181106140d2576140d2614fce565b6020026020010151604051632a759d1960e01b815260040161098791815260200190565b83818151811061410857614108614fce565b60200260200101518261411b9190614e56565b915060006141348683815181106140ae576140ae614fce565b905084828151811061414857614148614fce565b602002602001015184838151811061416257614162614fce565b60200260200101510361418f5761417a600a8261376f565b506000818152600c60205260408120556141d1565b8482815181106141a1576141a1614fce565b6020026020010151600c600083815260200190815260200160002060008282546141cb9190614fbb565b90915550505b5060010161408d565b508060096000828254613d3c9190614fbb565b600060ff8216601f8111156106fa57604051632cd44ac360e21b815260040160405180910390fd5b6000818152600183016020908152604080832083805290915281205415801561425857506000828152600180850160209081526040808420928452919052902054155b15614291576000808052600180850160209081526040808420928452919052902054829003614289575060016106fa565b5060006106fa565b5060016106fa565b60006142a58584614215565b1580156142b757506142b78585614215565b156143395760008481526001868101602081815260408085208715801580885291845282872080548b8952868652848920838a52808752858a208e9055918c90558089529585528388209188529084528287208a90559086529091528320819055875490928891614329908490614e56565b9091555060019250610944915050565b506000949350505050565b60008061435384600085613817565b91506109449050848261376f565b600080612a2784846000613817565b6001830191839082156144055791602002820160005b838211156143d057835183826101000a81548166ffffffffffffff021916908366ffffffffffffff1602179055509260200192600701602081600601049283019260010302614386565b80156144035782816101000a81549066ffffffffffffff02191690556007016020816006010492830192600103026143d0565b505b50614411929150614415565b5090565b5b808211156144115760008155600101614416565b60006020828403121561443c57600080fd5b81356001600160e01b0319811681146107d457600080fd5b60005b8381101561446f578181015183820152602001614457565b50506000910152565b60008151808452614490816020860160208601614454565b601f01601f19169290920160200192915050565b6020815260006107d46020830184614478565b6001600160a01b038116811461095d57600080fd5b600080604083850312156144df57600080fd5b82356144ea816144b7565b946020939093013593505050565b60006020828403121561450a57600080fd5b5035919050565b60008060006060848603121561452657600080fd5b8335614531816144b7565b92506020840135614541816144b7565b929592945050506040919091013590565b634e487b7160e01b600052604160045260246000fd5b60405160a0810167ffffffffffffffff8111828210171561458b5761458b614552565b60405290565b6040805190810167ffffffffffffffff8111828210171561458b5761458b614552565b604051601f8201601f1916810167ffffffffffffffff811182821017156145dd576145dd614552565b604052919050565b600067ffffffffffffffff8211156145ff576145ff614552565b5060051b60200190565b600082601f83011261461a57600080fd5b8135602061462f61462a836145e5565b6145b4565b82815260059290921b8401810191818101908684111561464e57600080fd5b8286015b848110156146695780358352918301918301614652565b509695505050505050565b6000806040838503121561468757600080fd5b823567ffffffffffffffff8082111561469f57600080fd5b6146ab86838701614609565b935060208501359150808211156146c157600080fd5b506146ce85828601614609565b9150509250929050565b60008083601f8401126146ea57600080fd5b50813567ffffffffffffffff81111561470257600080fd5b602083019150836020828501011115612a2c57600080fd5b6000806000806060858703121561473057600080fd5b843561473b816144b7565b935060208501359250604085013567ffffffffffffffff81111561475e57600080fd5b61476a878288016146d8565b95989497509550505050565b600081518084526020808501945080840160005b838110156147a65781518752958201959082019060010161478a565b509495945050505050565b6040815260006147c46040830185614776565b828103602084015261133d8185614776565b6000806000606084860312156147eb57600080fd5b83356147f6816144b7565b95602085013595506040909401359392505050565b6001600160601b038116811461095d57600080fd5b60006020828403121561483257600080fd5b81356107d48161480b565b803560ff811681146110c657600080fd5b60006020828403121561486057600080fd5b6107d48261483d565b60008083601f84011261487b57600080fd5b50813567ffffffffffffffff81111561489357600080fd5b6020830191508360208260051b8501011115612a2c57600080fd5b60008060008060008060008060a0898b0312156148ca57600080fd5b88356148d5816144b7565b975060208901356148e5816144b7565b9650604089013567ffffffffffffffff8082111561490257600080fd5b61490e8c838d01614869565b909850965060608b013591508082111561492757600080fd5b6149338c838d01614869565b909650945060808b013591508082111561494c57600080fd5b506149598b828c016146d8565b999c989b5096995094979396929594505050565b60006020828403121561497f57600080fd5b81356107d4816144b7565b6000806000806000608086880312156149a257600080fd5b85356149ad816144b7565b945060208601356149bd816144b7565b935060408601359250606086013567ffffffffffffffff8111156149e057600080fd5b6149ec888289016146d8565b969995985093965092949392505050565b60ff60f81b8816815260e060208201526000614a1c60e0830189614478565b8281036040840152614a2e8189614478565b90508660608401526001600160a01b03861660808401528460a084015282810360c0840152614a5d8185614776565b9a9950505050505050505050565b600067ffffffffffffffff821115614a8557614a85614552565b50601f01601f191660200190565b600082601f830112614aa457600080fd5b8135614ab261462a82614a6b565b818152846020838601011115614ac757600080fd5b816020850160208301376000918101602001919091529392505050565b600080600080600060a08688031215614afc57600080fd5b8535614b07816144b7565b94506020860135614b17816144b7565b9350604086013567ffffffffffffffff80821115614b3457600080fd5b614b4089838a01614609565b94506060880135915080821115614b5657600080fd5b614b6289838a01614609565b93506080880135915080821115614b7857600080fd5b50614b8588828901614a93565b9150509295509295909350565b60008060008060008060608789031215614bab57600080fd5b863567ffffffffffffffff80821115614bc357600080fd5b614bcf8a838b016146d8565b90985096506020890135915080821115614be857600080fd5b614bf48a838b016146d8565b90965094506040890135915080821115614c0d57600080fd5b50614c1a89828a016146d8565b979a9699509497509295939492505050565b600080600080600060608688031215614c4457600080fd5b8535614c4f816144b7565b9450602086013567ffffffffffffffff80821115614c6c57600080fd5b614c7889838a01614869565b90965094506040880135915080821115614c9157600080fd5b506149ec88828901614869565b600080600080600080600060e0888a031215614cb957600080fd5b8735614cc4816144b7565b96506020880135614cd4816144b7565b95506040880135945060608801359350614cf06080890161483d565b925060a0880135915060c0880135905092959891949750929550565b801515811461095d57600080fd5b60008060408385031215614d2d57600080fd5b8235614d388161480b565b91506020830135614d4881614d0c565b809150509250929050565b60008060408385031215614d6657600080fd5b8235614d71816144b7565b91506020830135614d48816144b7565b60008060408385031215614d9457600080fd5b50508035926020909101359150565b600080600080600060a08688031215614dbb57600080fd5b8535614dc6816144b7565b94506020860135614dd6816144b7565b93506040860135925060608601359150608086013567ffffffffffffffff811115614e0057600080fd5b614b8588828901614a93565b600181811c90821680614e2057607f821691505b602082108103612cfb57634e487b7160e01b600052602260045260246000fd5b634e487b7160e01b600052601160045260246000fd5b808201808211156106fa576106fa614e40565b600060208284031215614e7b57600080fd5b815167ffffffffffffffff811115614e9257600080fd5b8201601f81018413614ea357600080fd5b8051614eb161462a82614a6b565b818152856020838501011115614ec657600080fd5b61133d826020830160208601614454565b600083516020614eea8285838901614454565b818401915060008554614efc81614e0c565b60018281168015614f145760018114614f2957614f55565b60ff1984168752821515830287019450614f55565b896000528560002060005b84811015614f4d57815489820152908301908701614f34565b505082870194505b50929998505050505050505050565b600060208284031215614f7657600080fd5b81516107d4816144b7565b600060208284031215614f9357600080fd5b81516107d48161480b565b600060208284031215614fb057600080fd5b81516107d481614d0c565b818103818111156106fa576106fa614e40565b634e487b7160e01b600052603260045260246000fd5b604080825283519082018190526000906020906060840190828701845b828110156150265781516001600160a01b031684529284019290840190600101615001565b5050508381038285015261503a8186614776565b9695505050505050565b6000602080838503121561505757600080fd5b825167ffffffffffffffff81111561506e57600080fd5b8301601f8101851361507f57600080fd5b805161508d61462a826145e5565b81815260059190911b820183019083810190878311156150ac57600080fd5b928401925b828410156150ca578351825292840192908401906150b1565b979650505050505050565b803563ffffffff811681146110c657600080fd5b600060c082840312156150fb57600080fd5b615103614568565b83601f84011261511257600080fd5b61511a614591565b80604085018681111561512c57600080fd5b855b8181101561515c57803566ffffffffffffff8116811461514e5760008081fd5b84526020938401930161512e565b50818452615169816150d5565b602085015250505061517d606084016150d5565b604082015261518e608084016150d5565b606082015261519f60a084016150d5565b60808201529392505050565b81835260006001600160fb1b038311156151c457600080fd5b8260051b80836020870137939093016020019392505050565b60006001600160a01b03808916835280881660208401525060a0604083015261520a60a0830186886151ab565b828103606084015261521d8185876151ab565b8381036080909401939093525050600081526020019695505050505050565b6001600160601b038181168382160190808211156121f9576121f9614e40565b60006020828403121561526e57600080fd5b5051919050565b80820281158282048414176106fa576106fa614e40565b601f82111561243f57600081815260208120601f850160051c810160208610156152b35750805b601f850160051c820191505b818110156152d2578281556001016152bf565b505050505050565b67ffffffffffffffff8311156152f2576152f2614552565b615306836153008354614e0c565b8361528c565b6000601f84116001811461533a57600085156153225750838201355b600019600387901b1c1916600186901b17835561180f565b600083815260209020601f19861690835b8281101561536b578685013582556020948501946001909201910161534b565b50868210156153885760001960f88860031b161c19848701351681555b505060018560011b0183555050505050565b600181815b808511156153d55781600019048211156153bb576153bb614e40565b808516156153c857918102915b93841c939080029061539f565b509250929050565b6000826153ec575060016106fa565b816153f9575060006106fa565b816001811461540f576002811461541957615435565b60019150506106fa565b60ff84111561542a5761542a614e40565b50506001821b6106fa565b5060208310610133831016604e8410600b8410161715615458575081810a6106fa565b615462838361539a565b806000190482111561547657615476614e40565b029392505050565b60006107d460ff8416836153dd565b634e487b7160e01b600052601260045260246000fd5b6000826154c057634e487b7160e01b600052601260045260246000fd5b500490565b6040815260006154d86040830186614478565b8281036020840152838152838560208301376000602085830101526020601f19601f860116820101915050949350505050565b60006001600160a01b03808816835280871660208401525084604083015283606083015260a060808301526150ca60a0830184614478565b60006001600160a01b03808816835280871660208401525060a0604083015261556f60a0830186614776565b82810360608401526155818186614776565b905082810360808401526155958185614478565b98975050505050505050565b634e487b7160e01b600052602160045260246000fd5b6000600182016155c9576155c9614e40565b506001019056fea264697066735822122065c8a45416962580e70899b80328bbe39f1044aeb46099582d3d2c1b9baba34164736f6c63430008140033",
  "devdoc": {
    "author": "Kai Aldag<kai.aldag@jasmine.energy>",
    "custom:security-contact": "dev@jasmine.energy",
    "errors": {
      "Disabled()": [
        {
          "details": "Emitted if function is disabled"
        }
      ],
      "ERC20FailedDecreaseAllowance(address,uint256,uint256)": [
        {
          "details": "Indicates a failed `decreaseAllowance` request."
        }
      ],
      "ERC2612ExpiredSignature(uint256)": [
        {
          "details": "Permit deadline has expired."
        }
      ],
      "ERC2612InvalidSigner(address,address)": [
        {
          "details": "Mismatched signature."
        }
      ],
      "InvalidInput()": [
        {
          "details": "Emitted if input is invalid"
        }
      ],
      "InvalidTokenAddress(address,address)": [
        {
          "details": "Emitted if tokens (ERC-1155) are received from incorrect contract"
        }
      ],
      "Prohibited()": [
        {
          "details": "Emitted for unauthorized actions"
        }
      ],
      "RequiresRole(bytes32)": [
        {
          "details": "Emitted if access control check fails"
        }
      ],
      "Unqualified(uint256)": [
        {
          "details": "Emitted if a token does not meet pool's deposit policy"
        }
      ],
      "UnsupportedMetadataVersion(uint8)": [
        {
          "details": "Emitted if contract does not support metadata version"
        }
      ],
      "ValidationFailed()": [
        {
          "details": "Emitted if internal validation failed"
        }
      ],
      "WithdrawBlocked(uint256)": [
        {
          "details": "Emitted if a token is unable to be withdrawn from pool"
        }
      ],
      "WithdrawsLocked()": [
        {
          "details": "Emitted if withdraws are locked"
        }
      ]
    },
    "events": {
      "Approval(address,address,uint256)": {
        "details": "Emitted when the allowance of a `spender` for an `owner` is set by a call to {approve}. `value` is the new allowance."
      },
      "Deposit(address,address,uint256)": {
        "details": "Emitted whenever EATs are deposited to the contract ",
        "params": {
          "operator": "Initiator of the deposit",
          "owner": "Token holder depositting to contract",
          "quantity": "Number of EATs deposited. Note: JLTs issued are 1-1 with EATs"
        }
      },
      "EIP712DomainChanged()": {
        "details": "MAY be emitted to signal that the domain could have changed."
      },
      "Initialized(uint8)": {
        "details": "Triggered when the contract has been initialized or reinitialized."
      },
      "Retirement(address,address,uint256)": {
        "details": "must be accompanied by a token burn event ",
        "params": {
          "beneficiary": "Designate beneficiary of retirement",
          "operator": "Initiator of retirement",
          "quantity": "Number of JLT being retired"
        }
      },
      "RetirementRateUpdate(uint96,address)": {
        "details": "Emitted whenever fee manager updates retirement fee ",
        "params": {
          "beneficiary": "Address to receive fees",
          "retirementFeeBips": "new retirement fee in basis points"
        }
      },
      "Transfer(address,address,uint256)": {
        "details": "Emitted when `value` tokens are moved from one account (`from`) to another (`to`). Note that `value` may be zero."
      },
      "Withdraw(address,address,uint256)": {
        "details": "Emitted whenever EATs are withdrawn from the contract ",
        "params": {
          "quantity": "Number of EATs withdrawn.",
          "receiver": "Token holder depositting to contract",
          "sender": "Initiator of the deposit"
        }
      },
      "WithdrawalRateUpdate(uint96,address,bool)": {
        "details": "Emitted whenever fee manager updates withdrawal fee ",
        "params": {
          "beneficiary": "Address to receive fees",
          "isSpecificRate": "Whether fee was update for specific withdrawals or any",
          "withdrawFeeBips": "New withdrawal fee in basis points"
        }
      }
    },
    "kind": "dev",
    "methods": {
      "DOMAIN_SEPARATOR()": {
        "details": "See {IERC20Permit-DOMAIN_SEPARATOR}."
      },
      "allowance(address,address)": {
        "details": "See {IERC20-allowance}."
      },
      "approve(address,uint256)": {
        "details": "See {IERC20-approve}. NOTE: If `amount` is the maximum `uint256`, the allowance is not updated on `transferFrom`. This is semantically equivalent to an infinite approval. Requirements: - `spender` cannot be the zero address."
      },
      "balanceOf(address)": {
        "details": "See {IERC20-balanceOf}."
      },
      "constructor": {
        "params": {
          "_eat": "Address of the Jasmine Energy Attribution Token (EAT) contract",
          "_minter": "Address of the Jasmine Minter address",
          "_oracle": "Address of the Jasmine Oracle contract",
          "_poolFactory": "Address of the Jasmine Pool Factory contract"
        }
      },
      "decimals()": {
        "details": "Returns the number of decimals used to get its user representation. For example, if `decimals` equals `2`, a balance of `505` tokens should be displayed to a user as `5.05` (`505 / 10 ** 2`). Tokens usually opt for a value of 18, imitating the relationship between Ether and Wei. This is the default value returned by this function, unless it's overridden. NOTE: This information is only used for _display_ purposes: it in no way affects any of the arithmetic of the contract, including {IERC20-balanceOf} and {IERC20-transfer}."
      },
      "decreaseAllowance(address,uint256)": {
        "details": "Atomically decreases the allowance granted to `spender` by the caller. This is an alternative to {approve} that can be used as a mitigation for problems described in {IERC20-approve}. Emits an {Approval} event indicating the updated allowance. Requirements: - `spender` cannot be the zero address. - `spender` must have allowance for the caller of at least `subtractedValue`."
      },
      "deposit(uint256,uint256)": {
        "details": "Requirements:     - Pool must be an approved operator of from address ",
        "params": {
          "quantity": "Number of EATs for given tokenId to deposit ",
          "tokenId": "EAT token ID to deposit"
        },
        "returns": {
          "jltQuantity": "Number of JLTs issued for deposit  Emits a {Deposit} event."
        }
      },
      "depositBatch(address,uint256[],uint256[])": {
        "details": "Requirements:     - Pool must be an approved operator of from address     - Lenght of tokenIds and quantities must match ",
        "params": {
          "from": "Address from which to transfer EATs to pool",
          "quantities": "Number of EATs for tokenId at same index to deposit ",
          "tokenIds": "EAT token IDs to deposit"
        },
        "returns": {
          "jltQuantity": "Number of JLTs issued for deposit  Emits a {Deposit} event."
        }
      },
      "depositFrom(address,uint256,uint256)": {
        "details": "Requirements:     - Pool must be an approved operator of from address     - msg.sender must be approved for the user's tokens ",
        "params": {
          "from": "Address from which to transfer EATs to pool",
          "quantity": "Number of EATs for given tokenId to deposit ",
          "tokenId": "EAT token ID to deposit"
        },
        "returns": {
          "jltQuantity": "Number of JLTs issued for deposit  Emits a {Deposit} event."
        }
      },
      "eip712Domain()": {
        "details": "See {EIP-5267}. _Available since v4.9._"
      },
      "increaseAllowance(address,uint256)": {
        "details": "Atomically increases the allowance granted to `spender` by the caller. This is an alternative to {approve} that can be used as a mitigation for problems described in {IERC20-approve}. Emits an {Approval} event indicating the updated allowance. Requirements: - `spender` cannot be the zero address."
      },
      "initialize(bytes,string,string)": {
        "details": "Initializer function for proxy deployments to call. Requirements:     - Caller must be factory",
        "params": {
          "name_": "JLT token name",
          "policy_": "Deposit Policy Conditions",
          "symbol_": "JLT token symbol"
        }
      },
      "meetsPolicy(uint256)": {
        "details": "Checks if a token is eligible for deposit into the pool based on the      pool's Deposit Policy. ",
        "params": {
          "tokenId": "EAT token ID to check eligibility"
        }
      },
      "name()": {
        "details": "See {IERC20Metadata-name}"
      },
      "nonces(address)": {
        "details": "See {IERC20Permit-nonces}."
      },
      "onERC1155BatchReceived(address,address,uint256[],uint256[],bytes)": {
        "details": "Handles the receipt of a multiple ERC1155 token types. This function is called at the end of a `safeBatchTransferFrom` after the balances have been updated. NOTE: To accept the transfer(s), this must return `bytes4(keccak256(\"onERC1155BatchReceived(address,address,uint256[],uint256[],bytes)\"))` (i.e. 0xbc197c81, or its own function selector).",
        "params": {
          "data": "Additional data with no specified format",
          "from": "The address which previously owned the token",
          "ids": "An array containing ids of each token being transferred (order and length must match values array)",
          "operator": "The address which initiated the batch transfer (i.e. msg.sender)",
          "values": "An array containing amounts of each token being transferred (order and length must match ids array)"
        },
        "returns": {
          "_0": "`bytes4(keccak256(\"onERC1155BatchReceived(address,address,uint256[],uint256[],bytes)\"))` if transfer is allowed"
        }
      },
      "onERC1155Received(address,address,uint256,uint256,bytes)": {
        "details": "Handles the receipt of a single ERC1155 token type. This function is called at the end of a `safeTransferFrom` after the balance has been updated. NOTE: To accept the transfer, this must return `bytes4(keccak256(\"onERC1155Received(address,address,uint256,uint256,bytes)\"))` (i.e. 0xf23a6e61, or its own function selector).",
        "params": {
          "data": "Additional data with no specified format",
          "from": "The address which previously owned the token",
          "id": "The ID of the token being transferred",
          "operator": "The address which initiated the transfer (i.e. msg.sender)",
          "value": "The amount of tokens being transferred"
        },
        "returns": {
          "_0": "`bytes4(keccak256(\"onERC1155Received(address,address,uint256,uint256,bytes)\"))` if transfer is allowed"
        }
      },
      "permit(address,address,uint256,uint256,uint8,bytes32,bytes32)": {
        "details": "See {IERC20Permit-permit}."
      },
      "policyForVersion(uint8)": {
        "params": {
          "metadataVersion": "Version of metadata to return policy for "
        },
        "returns": {
          "policy": "Deposit policy for given metadata version"
        }
      },
      "retire(address,address,uint256,bytes)": {
        "details": "Internally, calls are routed to Retirement Service to facilitate the retirement. Emits a {Retirement} event. Requirements:     - msg.sender must be approved for owner's JLTs     - Owner must have sufficient JLTs     - Owner cannot be zero address ",
        "params": {
          "amount": "Number of JLTs to withdraw",
          "beneficiary": "Address to receive retirement acknowledgment. If none, assume msg.sender",
          "data": "Optional calldata to relay to retirement service via onERC1155Received ",
          "from": "JLT owner from which to burn tokens"
        }
      },
      "retireExact(address,address,uint256,bytes)": {
        "params": {
          "amount": "Exact number of JLTs to retire",
          "beneficiary": "Address to receive retirement attestation",
          "data": "Optional calldata to relay to retirement service via onERC1155Received",
          "from": "JLT holder to retire from"
        }
      },
      "retirementCost(uint256)": {
        "params": {
          "amount": "Amount of JLTs to retire. "
        },
        "returns": {
          "cost": "Price of retiring in JLTs."
        }
      },
      "retirementRate()": {
        "details": "If pool's retirement rate is not set, defer to pool factory's base rate ",
        "returns": {
          "_0": "Retirement rate in basis points"
        }
      },
      "selectWithdrawTokens(uint256)": {
        "details": "Internal function to select tokens to withdraw from the contract ",
        "params": {
          "amount": "Number of tokens to withdraw from contract "
        },
        "returns": {
          "amounts": "Number of tokens to withdraw for each token ID",
          "tokenIds": "Token IDs to withdraw"
        }
      },
      "supportsInterface(bytes4)": {
        "details": "See {IERC165-supportsInterface}"
      },
      "symbol()": {
        "details": "See {IERC20Metadata-symbol}"
      },
      "tokenURI()": {
        "details": "Appends token symbol to end of base URI"
      },
      "totalSupply()": {
        "details": "See {IERC20-totalSupply}."
      },
      "transfer(address,uint256)": {
        "details": "See {IERC20-transfer}. Requirements: - `to` cannot be the zero address. - the caller must have a balance of at least `amount`."
      },
      "transferFrom(address,address,uint256)": {
        "details": "See {IERC20-transferFrom}. Emits an {Approval} event indicating the updated allowance. This is not required by the EIP. See the note at the beginning of {ERC20}. NOTE: Does not update the allowance if the current allowance is the maximum `uint256`. Requirements: - `from` and `to` cannot be the zero address. - `from` must have a balance of at least `amount`. - the caller must have allowance for ``from``'s tokens of at least `amount`."
      },
      "updateRetirementRate(uint96)": {
        "details": "Requirements:     - Caller must have fee manager role - in pool factory emits RetirementRateUpdate ",
        "params": {
          "newRetirementRate": "New rate on retirements in basis points"
        }
      },
      "updateWithdrawalRate(uint96,bool)": {
        "details": "Requirements:     - Caller must have fee manager role - in pool factory emits WithdrawalRateUpdate ",
        "params": {
          "isSpecificRate": "Whether the new rate is for specific tokens or any",
          "newWithdrawalRate": "New rate on withdrawals in basis points"
        }
      },
      "validateDepositValidity(uint256)": {
        "details": "Checks if an EAT depositted into the pool is frozen and validates internal      balance for token. If frozen, it is internally removed from the pool's      list of withdrawable tokens. If internal count does not match balance,      caller will have their JLT burned to rectify the inbalance. ",
        "params": {
          "tokenId": "EAT token ID to check"
        }
      },
      "withdraw(address,uint256,bytes)": {
        "details": "Pool will automatically select EATs to withdraw. Defer to {withdrawSpecific}      if selecting specific EATs to withdraw is important. Requirements:     - msg.sender must have sufficient JLTs     - If recipient is a contract, it must implement onERC1155Received & onERC1155BatchReceived ",
        "params": {
          "data": "Optional calldata to relay to recipient via onERC1155Received ",
          "quantity": "Number of JLTs to withdraw",
          "recipient": "Address to receive withdrawn EATs"
        },
        "returns": {
          "amounts": "Number of tokens withdraw, per ID, from the pool  Emits a {Withdraw} event.",
          "tokenIds": "Token IDs withdrawn from the pool"
        }
      },
      "withdrawFrom(address,address,uint256,bytes)": {
        "details": "Pool will automatically select EATs to withdraw. Defer to {withdrawSpecific}      if selecting specific EATs to withdraw is important. Requirements:     - msg.sender must be approved for owner's JLTs     - Owner must have sufficient JLTs     - If recipient is a contract, it must implement onERC1155Received & onERC1155BatchReceived ",
        "params": {
          "data": "Optional calldata to relay to recipient via onERC1155Received ",
          "quantity": "Number of JLTs to withdraw",
          "recipient": "Address to receive withdrawn EATs",
          "spender": "JLT owner from which to burn tokens"
        },
        "returns": {
          "amounts": "Number of tokens withdraw, per ID, from the pool  Emits a {Withdraw} event.",
          "tokenIds": "Token IDs withdrawn from the pool"
        }
      },
      "withdrawSpecific(address,address,uint256[],uint256[],bytes)": {
        "details": "Requirements:     - msg.sender must be approved for owner's JLTs     - Length of tokenIds and quantities must match     - Owner must have more JLTs than sum of quantities     - If recipient is a contract, it must implement onERC1155Received & onERC1155BatchReceived     - Owner and Recipient cannot be zero address ",
        "params": {
          "data": "Optional calldata to relay to recipient via onERC1155Received  Emits a {Withdraw} event.",
          "quantities": "Number of EATs for tokenId at same index to deposit",
          "recipient": "Address to receive withdrawn EATs",
          "spender": "JLT owner from which to burn tokens",
          "tokenIds": "EAT token IDs to withdraw from pool"
        }
      },
      "withdrawalCost(uint256)": {
        "params": {
          "amount": "Number of EATs to withdraw. "
        },
        "returns": {
          "cost": "Price of withdrawing EATs in JLTs"
        }
      },
      "withdrawalCost(uint256[],uint256[])": {
        "params": {
          "amounts": "Amounts of EATs to withdaw ",
          "tokenIds": "IDs of EATs to withdaw"
        },
        "returns": {
          "cost": "Price of withdrawing EATs in JLTs"
        }
      },
      "withdrawalRate()": {
        "details": "If pool's withdrawal rate is not set, defer to pool factory's base rate ",
        "returns": {
          "_0": "Withdrawal fee in basis points"
        }
      },
      "withdrawalSpecificRate()": {
        "details": "If pool's specific withdrawal rate is not set, defer to pool factory's base rate ",
        "returns": {
          "_0": "Withdrawal fee in basis points"
        }
      }
    },
    "stateVariables": {
      "_policy": {
        "details": "Policy to deposit into pool"
      },
      "oracle": {
        "details": "Jasmine Oracle contract"
      }
    },
    "title": "Jasmine Reference Pool",
    "version": 1
  },
  "userdoc": {
    "events": {
      "Retirement(address,address,uint256)": {
        "notice": "emitted when tokens from a pool are retired "
      }
    },
    "kind": "user",
    "methods": {
      "deposit(uint256,uint256)": {
        "notice": "Used to deposit EATs into the pool to receive JLTs. "
      },
      "depositBatch(address,uint256[],uint256[])": {
        "notice": "Used to deposit numerous EATs of different IDs into the pool to receive JLTs. "
      },
      "depositFrom(address,uint256,uint256)": {
        "notice": "Used to deposit EATs from another account into the pool to receive JLTs. "
      },
      "policyForVersion(uint8)": {
        "notice": "Get a pool's deposit policy for a given metadata version "
      },
      "retire(address,address,uint256,bytes)": {
        "notice": "Burns 'quantity' of tokens from 'owner' in the name of 'beneficiary'. "
      },
      "retireExact(address,address,uint256,bytes)": {
        "notice": "Retires an exact amount of JLTs. If fees or other conversions are set,         cost of retirement will be greater than amount. "
      },
      "retirementCost(uint256)": {
        "notice": "Cost of retiring JLTs from pool including retirement fees. "
      },
      "retirementRate()": {
        "notice": "Returns the pool's JLT retirement rate in basis points "
      },
      "tokenURI()": {
        "notice": "Gets an ERC-721-like token URI"
      },
      "updateRetirementRate(uint96)": {
        "notice": "Allows pool fee managers to update the retirement rate "
      },
      "updateWithdrawalRate(uint96,bool)": {
        "notice": "Allows pool fee managers to update the withdrawal rate "
      },
      "withdraw(address,uint256,bytes)": {
        "notice": "Withdraw EATs from pool by burning 'quantity' of JLTs from 'owner'. "
      },
      "withdrawFrom(address,address,uint256,bytes)": {
        "notice": "Withdraw EATs from pool by burning 'quantity' of JLTs from 'owner'. "
      },
      "withdrawSpecific(address,address,uint256[],uint256[],bytes)": {
        "notice": "Withdraw specific EATs from pool by burning the sum of 'quantities' in JLTs from 'owner'. "
      },
      "withdrawalCost(uint256)": {
        "notice": "Cost of withdrawing amount of tokens from pool where pool         selects the tokens to withdraw, including withdrawal fee. "
      },
      "withdrawalCost(uint256[],uint256[])": {
        "notice": "Cost of withdrawing specified amounts of tokens from pool including         withdrawal fee. "
      },
      "withdrawalRate()": {
        "notice": "Returns the pool's JLT withdrawal rate in basis points "
      },
      "withdrawalSpecificRate()": {
        "notice": "Returns the pool's JLT withdrawal rate for withdrawing specific tokens,         in basis points "
      }
    },
    "notice": "Jasmine Liquidity Pools allow users to deposit Jasmine EAT tokens into a         pool and receive - pool specific - Jasmine Liquidity Tokens (JLT) in return.",
    "version": 1
  },
  "storageLayout": {
    "storage": [
      {
        "astId": 17695,
        "contract": "contracts/JasminePool.sol:JasminePool",
        "label": "_balances",
        "offset": 0,
        "slot": "0",
        "type": "t_mapping(t_address,t_uint256)"
      },
      {
        "astId": 17701,
        "contract": "contracts/JasminePool.sol:JasminePool",
        "label": "_allowances",
        "offset": 0,
        "slot": "1",
        "type": "t_mapping(t_address,t_mapping(t_address,t_uint256))"
      },
      {
        "astId": 17703,
        "contract": "contracts/JasminePool.sol:JasminePool",
        "label": "_totalSupply",
        "offset": 0,
        "slot": "2",
        "type": "t_uint256"
      },
      {
        "astId": 17705,
        "contract": "contracts/JasminePool.sol:JasminePool",
        "label": "_name",
        "offset": 0,
        "slot": "3",
        "type": "t_string_storage"
      },
      {
        "astId": 17707,
        "contract": "contracts/JasminePool.sol:JasminePool",
        "label": "_symbol",
        "offset": 0,
        "slot": "4",
        "type": "t_string_storage"
      },
      {
        "astId": 8319,
        "contract": "contracts/JasminePool.sol:JasminePool",
        "label": "_nameFallback",
        "offset": 0,
        "slot": "5",
        "type": "t_string_storage"
      },
      {
        "astId": 8321,
        "contract": "contracts/JasminePool.sol:JasminePool",
        "label": "_versionFallback",
        "offset": 0,
        "slot": "6",
        "type": "t_string_storage"
      },
      {
        "astId": 18378,
        "contract": "contracts/JasminePool.sol:JasminePool",
        "label": "_nonces",
        "offset": 0,
        "slot": "7",
        "type": "t_mapping(t_address,t_struct(Counter)7216_storage)"
      },
      {
        "astId": 18398,
        "contract": "contracts/JasminePool.sol:JasminePool",
        "label": "_PERMIT_TYPEHASH_DEPRECATED_SLOT",
        "offset": 0,
        "slot": "8",
        "type": "t_bytes32"
      },
      {
        "astId": 16407,
        "contract": "contracts/JasminePool.sol:JasminePool",
        "label": "_totalDeposits",
        "offset": 0,
        "slot": "9",
        "type": "t_uint256"
      },
      {
        "astId": 16411,
        "contract": "contracts/JasminePool.sol:JasminePool",
        "label": "_depositsList",
        "offset": 0,
        "slot": "10",
        "type": "t_struct(List)14625_storage"
      },
      {
        "astId": 16416,
        "contract": "contracts/JasminePool.sol:JasminePool",
        "label": "_balances",
        "offset": 0,
        "slot": "12",
        "type": "t_mapping(t_uint256,t_uint256)"
      },
      {
        "astId": 16420,
        "contract": "contracts/JasminePool.sol:JasminePool",
        "label": "_frozenDeposits",
        "offset": 0,
        "slot": "13",
        "type": "t_struct(BitMap)9789_storage"
      },
      {
        "astId": 16428,
        "contract": "contracts/JasminePool.sol:JasminePool",
        "label": "_isUnlocked",
        "offset": 0,
        "slot": "14",
        "type": "t_uint8"
      },
      {
        "astId": 6329,
        "contract": "contracts/JasminePool.sol:JasminePool",
        "label": "_initialized",
        "offset": 1,
        "slot": "14",
        "type": "t_uint8"
      },
      {
        "astId": 6332,
        "contract": "contracts/JasminePool.sol:JasminePool",
        "label": "_initializing",
        "offset": 2,
        "slot": "14",
        "type": "t_bool"
      },
      {
        "astId": 6502,
        "contract": "contracts/JasminePool.sol:JasminePool",
        "label": "_status",
        "offset": 0,
        "slot": "15",
        "type": "t_uint256"
      },
      {
        "astId": 15459,
        "contract": "contracts/JasminePool.sol:JasminePool",
        "label": "_name",
        "offset": 0,
        "slot": "16",
        "type": "t_string_storage"
      },
      {
        "astId": 15462,
        "contract": "contracts/JasminePool.sol:JasminePool",
        "label": "_symbol",
        "offset": 0,
        "slot": "17",
        "type": "t_string_storage"
      },
      {
        "astId": 18590,
        "contract": "contracts/JasminePool.sol:JasminePool",
        "label": "_withdrawalRate",
        "offset": 0,
        "slot": "18",
        "type": "t_uint96"
      },
      {
        "astId": 18593,
        "contract": "contracts/JasminePool.sol:JasminePool",
        "label": "_withdrawalSpecificRate",
        "offset": 12,
        "slot": "18",
        "type": "t_uint96"
      },
      {
        "astId": 18596,
        "contract": "contracts/JasminePool.sol:JasminePool",
        "label": "_retirementRate",
        "offset": 0,
        "slot": "19",
        "type": "t_uint96"
      },
      {
        "astId": 11082,
        "contract": "contracts/JasminePool.sol:JasminePool",
        "label": "_policy",
        "offset": 0,
        "slot": "20",
        "type": "t_struct(DepositPolicy)14488_storage"
      }
    ],
    "types": {
      "t_address": {
        "encoding": "inplace",
        "label": "address",
        "numberOfBytes": "20"
      },
      "t_array(t_uint56)2_storage": {
        "base": "t_uint56",
        "encoding": "inplace",
        "label": "uint56[2]",
        "numberOfBytes": "32"
      },
      "t_bool": {
        "encoding": "inplace",
        "label": "bool",
        "numberOfBytes": "1"
      },
      "t_bytes32": {
        "encoding": "inplace",
        "label": "bytes32",
        "numberOfBytes": "32"
      },
      "t_mapping(t_address,t_mapping(t_address,t_uint256))": {
        "encoding": "mapping",
        "key": "t_address",
        "label": "mapping(address => mapping(address => uint256))",
        "numberOfBytes": "32",
        "value": "t_mapping(t_address,t_uint256)"
      },
      "t_mapping(t_address,t_struct(Counter)7216_storage)": {
        "encoding": "mapping",
        "key": "t_address",
        "label": "mapping(address => struct Counters.Counter)",
        "numberOfBytes": "32",
        "value": "t_struct(Counter)7216_storage"
      },
      "t_mapping(t_address,t_uint256)": {
        "encoding": "mapping",
        "key": "t_address",
        "label": "mapping(address => uint256)",
        "numberOfBytes": "32",
        "value": "t_uint256"
      },
      "t_mapping(t_bool,t_uint256)": {
        "encoding": "mapping",
        "key": "t_bool",
        "label": "mapping(bool => uint256)",
        "numberOfBytes": "32",
        "value": "t_uint256"
      },
      "t_mapping(t_uint256,t_mapping(t_bool,t_uint256))": {
        "encoding": "mapping",
        "key": "t_uint256",
        "label": "mapping(uint256 => mapping(bool => uint256))",
        "numberOfBytes": "32",
        "value": "t_mapping(t_bool,t_uint256)"
      },
      "t_mapping(t_uint256,t_uint256)": {
        "encoding": "mapping",
        "key": "t_uint256",
        "label": "mapping(uint256 => uint256)",
        "numberOfBytes": "32",
        "value": "t_uint256"
      },
      "t_string_storage": {
        "encoding": "bytes",
        "label": "string",
        "numberOfBytes": "32"
      },
      "t_struct(BitMap)9789_storage": {
        "encoding": "inplace",
        "label": "struct BitMaps.BitMap",
        "members": [
          {
            "astId": 9788,
            "contract": "contracts/JasminePool.sol:JasminePool",
            "label": "_data",
            "offset": 0,
            "slot": "0",
            "type": "t_mapping(t_uint256,t_uint256)"
          }
        ],
        "numberOfBytes": "32"
      },
      "t_struct(Counter)7216_storage": {
        "encoding": "inplace",
        "label": "struct Counters.Counter",
        "members": [
          {
            "astId": 7215,
            "contract": "contracts/JasminePool.sol:JasminePool",
            "label": "_value",
            "offset": 0,
            "slot": "0",
            "type": "t_uint256"
          }
        ],
        "numberOfBytes": "32"
      },
      "t_struct(DepositPolicy)14488_storage": {
        "encoding": "inplace",
        "label": "struct PoolPolicy.DepositPolicy",
        "members": [
          {
            "astId": 14479,
            "contract": "contracts/JasminePool.sol:JasminePool",
            "label": "vintagePeriod",
            "offset": 0,
            "slot": "0",
            "type": "t_array(t_uint56)2_storage"
          },
          {
            "astId": 14481,
            "contract": "contracts/JasminePool.sol:JasminePool",
            "label": "techType",
            "offset": 0,
            "slot": "1",
            "type": "t_uint32"
          },
          {
            "astId": 14483,
            "contract": "contracts/JasminePool.sol:JasminePool",
            "label": "registry",
            "offset": 4,
            "slot": "1",
            "type": "t_uint32"
          },
          {
            "astId": 14485,
            "contract": "contracts/JasminePool.sol:JasminePool",
            "label": "certificateType",
            "offset": 8,
            "slot": "1",
            "type": "t_uint32"
          },
          {
            "astId": 14487,
            "contract": "contracts/JasminePool.sol:JasminePool",
            "label": "endorsement",
            "offset": 12,
            "slot": "1",
            "type": "t_uint32"
          }
        ],
        "numberOfBytes": "64"
      },
      "t_struct(List)14625_storage": {
        "encoding": "inplace",
        "label": "struct StructuredLinkedList.List",
        "members": [
          {
            "astId": 14618,
            "contract": "contracts/JasminePool.sol:JasminePool",
            "label": "size",
            "offset": 0,
            "slot": "0",
            "type": "t_uint256"
          },
          {
            "astId": 14624,
            "contract": "contracts/JasminePool.sol:JasminePool",
            "label": "list",
            "offset": 0,
            "slot": "1",
            "type": "t_mapping(t_uint256,t_mapping(t_bool,t_uint256))"
          }
        ],
        "numberOfBytes": "64"
      },
      "t_uint256": {
        "encoding": "inplace",
        "label": "uint256",
        "numberOfBytes": "32"
      },
      "t_uint32": {
        "encoding": "inplace",
        "label": "uint32",
        "numberOfBytes": "4"
      },
      "t_uint56": {
        "encoding": "inplace",
        "label": "uint56",
        "numberOfBytes": "7"
      },
      "t_uint8": {
        "encoding": "inplace",
        "label": "uint8",
        "numberOfBytes": "1"
      },
      "t_uint96": {
        "encoding": "inplace",
        "label": "uint96",
        "numberOfBytes": "12"
      }
    }
  }
}