{
  "address": "0x00C6258B462CB038f2aaeaa7cFEfF493a4aab7b4",
  "abi": [
    {
      "inputs": [
        {
          "internalType": "address",
          "name": "_uniswapFactory",
          "type": "address"
        },
        {
          "internalType": "address",
          "name": "_usdc",
          "type": "address"
        }
      ],
      "stateMutability": "nonpayable",
      "type": "constructor"
    },
    {
      "inputs": [],
      "name": "Disabled",
      "type": "error"
    },
    {
      "inputs": [],
      "name": "InvalidInput",
      "type": "error"
    },
    {
      "inputs": [
        {
          "internalType": "bytes4",
          "name": "interfaceId",
          "type": "bytes4"
        }
      ],
      "name": "MustSupportInterface",
      "type": "error"
    },
    {
      "inputs": [],
      "name": "NoPool",
      "type": "error"
    },
    {
      "inputs": [
        {
          "internalType": "address",
          "name": "pool",
          "type": "address"
        }
      ],
      "name": "PoolExists",
      "type": "error"
    },
    {
      "inputs": [],
      "name": "Prohibited",
      "type": "error"
    },
    {
      "inputs": [
        {
          "internalType": "bytes32",
          "name": "role",
          "type": "bytes32"
        }
      ],
      "name": "RequiresRole",
      "type": "error"
    },
    {
      "inputs": [
        {
          "internalType": "uint8",
          "name": "metadataVersion",
          "type": "uint8"
        }
      ],
      "name": "UnsupportedMetadataVersion",
      "type": "error"
    },
    {
      "inputs": [],
      "name": "ValidationFailed",
      "type": "error"
    },
    {
      "anonymous": false,
      "inputs": [
        {
          "indexed": false,
          "internalType": "address",
          "name": "previousAdmin",
          "type": "address"
        },
        {
          "indexed": false,
          "internalType": "address",
          "name": "newAdmin",
          "type": "address"
        }
      ],
      "name": "AdminChanged",
      "type": "event"
    },
    {
      "anonymous": false,
      "inputs": [
        {
          "indexed": false,
          "internalType": "uint96",
          "name": "retirementRateBips",
          "type": "uint96"
        },
        {
          "indexed": true,
          "internalType": "address",
          "name": "beneficiary",
          "type": "address"
        }
      ],
      "name": "BaseRetirementFeeUpdate",
      "type": "event"
    },
    {
      "anonymous": false,
      "inputs": [
        {
          "indexed": false,
          "internalType": "uint96",
          "name": "withdrawRateBips",
          "type": "uint96"
        },
        {
          "indexed": true,
          "internalType": "address",
          "name": "beneficiary",
          "type": "address"
        },
        {
          "indexed": true,
          "internalType": "bool",
          "name": "specific",
          "type": "bool"
        }
      ],
      "name": "BaseWithdrawalFeeUpdate",
      "type": "event"
    },
    {
      "anonymous": false,
      "inputs": [
        {
          "indexed": true,
          "internalType": "address",
          "name": "beacon",
          "type": "address"
        }
      ],
      "name": "BeaconUpgraded",
      "type": "event"
    },
    {
      "anonymous": false,
      "inputs": [
        {
          "indexed": false,
          "internalType": "uint8",
          "name": "version",
          "type": "uint8"
        }
      ],
      "name": "Initialized",
      "type": "event"
    },
    {
      "anonymous": false,
      "inputs": [
        {
          "indexed": true,
          "internalType": "address",
          "name": "previousOwner",
          "type": "address"
        },
        {
          "indexed": true,
          "internalType": "address",
          "name": "newOwner",
          "type": "address"
        }
      ],
      "name": "OwnershipTransferStarted",
      "type": "event"
    },
    {
      "anonymous": false,
      "inputs": [
        {
          "indexed": true,
          "internalType": "address",
          "name": "previousOwner",
          "type": "address"
        },
        {
          "indexed": true,
          "internalType": "address",
          "name": "newOwner",
          "type": "address"
        }
      ],
      "name": "OwnershipTransferred",
      "type": "event"
    },
    {
      "anonymous": false,
      "inputs": [
        {
          "indexed": false,
          "internalType": "bytes",
          "name": "policy",
          "type": "bytes"
        },
        {
          "indexed": true,
          "internalType": "address",
          "name": "pool",
          "type": "address"
        },
        {
          "indexed": true,
          "internalType": "string",
          "name": "name",
          "type": "string"
        },
        {
          "indexed": true,
          "internalType": "string",
          "name": "symbol",
          "type": "string"
        }
      ],
      "name": "PoolCreated",
      "type": "event"
    },
    {
      "anonymous": false,
      "inputs": [
        {
          "indexed": true,
          "internalType": "address",
          "name": "poolImplementation",
          "type": "address"
        },
        {
          "indexed": true,
          "internalType": "address",
          "name": "beaconAddress",
          "type": "address"
        },
        {
          "indexed": true,
          "internalType": "uint256",
          "name": "poolIndex",
          "type": "uint256"
        }
      ],
      "name": "PoolImplementationAdded",
      "type": "event"
    },
    {
      "anonymous": false,
      "inputs": [
        {
          "indexed": true,
          "internalType": "address",
          "name": "beaconAddress",
          "type": "address"
        },
        {
          "indexed": true,
          "internalType": "uint256",
          "name": "poolIndex",
          "type": "uint256"
        }
      ],
      "name": "PoolImplementationRemoved",
      "type": "event"
    },
    {
      "anonymous": false,
      "inputs": [
        {
          "indexed": true,
          "internalType": "address",
          "name": "newPoolImplementation",
          "type": "address"
        },
        {
          "indexed": true,
          "internalType": "address",
          "name": "beaconAddress",
          "type": "address"
        },
        {
          "indexed": true,
          "internalType": "uint256",
          "name": "poolIndex",
          "type": "uint256"
        }
      ],
      "name": "PoolImplementationUpgraded",
      "type": "event"
    },
    {
      "anonymous": false,
      "inputs": [
        {
          "indexed": true,
          "internalType": "string",
          "name": "newBaseURI",
          "type": "string"
        },
        {
          "indexed": true,
          "internalType": "string",
          "name": "oldBaseURI",
          "type": "string"
        }
      ],
      "name": "PoolsBaseURIChanged",
      "type": "event"
    },
    {
      "anonymous": false,
      "inputs": [
        {
          "indexed": true,
          "internalType": "bytes32",
          "name": "role",
          "type": "bytes32"
        },
        {
          "indexed": true,
          "internalType": "bytes32",
          "name": "previousAdminRole",
          "type": "bytes32"
        },
        {
          "indexed": true,
          "internalType": "bytes32",
          "name": "newAdminRole",
          "type": "bytes32"
        }
      ],
      "name": "RoleAdminChanged",
      "type": "event"
    },
    {
      "anonymous": false,
      "inputs": [
        {
          "indexed": true,
          "internalType": "bytes32",
          "name": "role",
          "type": "bytes32"
        },
        {
          "indexed": true,
          "internalType": "address",
          "name": "account",
          "type": "address"
        },
        {
          "indexed": true,
          "internalType": "address",
          "name": "sender",
          "type": "address"
        }
      ],
      "name": "RoleGranted",
      "type": "event"
    },
    {
      "anonymous": false,
      "inputs": [
        {
          "indexed": true,
          "internalType": "bytes32",
          "name": "role",
          "type": "bytes32"
        },
        {
          "indexed": true,
          "internalType": "address",
          "name": "account",
          "type": "address"
        },
        {
          "indexed": true,
          "internalType": "address",
          "name": "sender",
          "type": "address"
        }
      ],
      "name": "RoleRevoked",
      "type": "event"
    },
    {
      "anonymous": false,
      "inputs": [
        {
          "indexed": true,
          "internalType": "address",
          "name": "implementation",
          "type": "address"
        }
      ],
      "name": "Upgraded",
      "type": "event"
    },
    {
      "inputs": [],
      "name": "DEFAULT_ADMIN_ROLE",
      "outputs": [
        {
          "internalType": "bytes32",
          "name": "",
          "type": "bytes32"
        }
      ],
      "stateMutability": "view",
      "type": "function"
    },
    {
      "inputs": [],
      "name": "FEE_MANAGER_ROLE",
      "outputs": [
        {
          "internalType": "bytes32",
          "name": "",
          "type": "bytes32"
        }
      ],
      "stateMutability": "view",
      "type": "function"
    },
    {
      "inputs": [],
      "name": "POOL_MANAGER_ROLE",
      "outputs": [
        {
          "internalType": "bytes32",
          "name": "",
          "type": "bytes32"
        }
      ],
      "stateMutability": "view",
      "type": "function"
    },
    {
      "inputs": [],
      "name": "UNISWAP_FEE_TIER",
      "outputs": [
        {
          "internalType": "uint24",
          "name": "",
          "type": "uint24"
        }
      ],
      "stateMutability": "view",
      "type": "function"
    },
    {
      "inputs": [],
      "name": "acceptOwnership",
      "outputs": [],
      "stateMutability": "nonpayable",
      "type": "function"
    },
    {
      "inputs": [
        {
          "internalType": "address",
          "name": "newPoolImplementation",
          "type": "address"
        }
      ],
      "name": "addPoolImplementation",
      "outputs": [
        {
          "internalType": "uint256",
          "name": "indexInPools",
          "type": "uint256"
        }
      ],
      "stateMutability": "nonpayable",
      "type": "function"
    },
    {
      "inputs": [],
      "name": "baseRetirementRate",
      "outputs": [
        {
          "internalType": "uint96",
          "name": "",
          "type": "uint96"
        }
      ],
      "stateMutability": "view",
      "type": "function"
    },
    {
      "inputs": [],
      "name": "baseWithdrawalRate",
      "outputs": [
        {
          "internalType": "uint96",
          "name": "",
          "type": "uint96"
        }
      ],
      "stateMutability": "view",
      "type": "function"
    },
    {
      "inputs": [],
      "name": "baseWithdrawalSpecificRate",
      "outputs": [
        {
          "internalType": "uint96",
          "name": "",
          "type": "uint96"
        }
      ],
      "stateMutability": "view",
      "type": "function"
    },
    {
      "inputs": [
        {
          "internalType": "bytes32",
          "name": "policyHash",
          "type": "bytes32"
        }
      ],
      "name": "computePoolAddress",
      "outputs": [
        {
          "internalType": "address",
          "name": "poolAddress",
          "type": "address"
        }
      ],
      "stateMutability": "view",
      "type": "function"
    },
    {
      "inputs": [
        {
          "components": [
            {
              "internalType": "uint56[2]",
              "name": "vintagePeriod",
              "type": "uint56[2]"
            },
            {
              "internalType": "uint32",
              "name": "techType",
              "type": "uint32"
            },
            {
              "internalType": "uint32",
              "name": "registry",
              "type": "uint32"
            },
            {
              "internalType": "uint32",
              "name": "certificateType",
              "type": "uint32"
            },
            {
              "internalType": "uint32",
              "name": "endorsement",
              "type": "uint32"
            }
          ],
          "internalType": "struct PoolPolicy.DepositPolicy",
          "name": "policy",
          "type": "tuple"
        },
        {
          "internalType": "string",
          "name": "name",
          "type": "string"
        },
        {
          "internalType": "string",
          "name": "symbol",
          "type": "string"
        },
        {
          "internalType": "uint160",
          "name": "initialSqrtPriceX96",
          "type": "uint160"
        }
      ],
      "name": "deployNewBasePool",
      "outputs": [
        {
          "internalType": "address",
          "name": "newPool",
          "type": "address"
        }
      ],
      "stateMutability": "nonpayable",
      "type": "function"
    },
    {
      "inputs": [
        {
          "internalType": "uint256",
          "name": "version",
          "type": "uint256"
        },
        {
          "internalType": "bytes4",
          "name": "initSelector",
          "type": "bytes4"
        },
        {
          "internalType": "bytes",
          "name": "initData",
          "type": "bytes"
        },
        {
          "internalType": "string",
          "name": "name",
          "type": "string"
        },
        {
          "internalType": "string",
          "name": "symbol",
          "type": "string"
        },
        {
          "internalType": "uint160",
          "name": "initialSqrtPriceX96",
          "type": "uint160"
        }
      ],
      "name": "deployNewPool",
      "outputs": [
        {
          "internalType": "address",
          "name": "newPool",
          "type": "address"
        }
      ],
      "stateMutability": "nonpayable",
      "type": "function"
    },
    {
      "inputs": [
        {
          "internalType": "uint256",
          "name": "tokenId",
          "type": "uint256"
        }
      ],
      "name": "eligiblePoolsForToken",
      "outputs": [
        {
          "internalType": "address[]",
          "name": "pools",
          "type": "address[]"
        }
      ],
      "stateMutability": "view",
      "type": "function"
    },
    {
      "inputs": [],
      "name": "feeBeneficiary",
      "outputs": [
        {
          "internalType": "address",
          "name": "",
          "type": "address"
        }
      ],
      "stateMutability": "view",
      "type": "function"
    },
    {
      "inputs": [
        {
          "internalType": "uint256",
          "name": "index",
          "type": "uint256"
        }
      ],
      "name": "getPoolAtIndex",
      "outputs": [
        {
          "internalType": "address",
          "name": "pool",
          "type": "address"
        }
      ],
      "stateMutability": "view",
      "type": "function"
    },
    {
      "inputs": [
        {
          "internalType": "bytes32",
          "name": "role",
          "type": "bytes32"
        }
      ],
      "name": "getRoleAdmin",
      "outputs": [
        {
          "internalType": "bytes32",
          "name": "",
          "type": "bytes32"
        }
      ],
      "stateMutability": "view",
      "type": "function"
    },
    {
      "inputs": [
        {
          "internalType": "bytes32",
          "name": "role",
          "type": "bytes32"
        },
        {
          "internalType": "address",
          "name": "account",
          "type": "address"
        }
      ],
      "name": "grantRole",
      "outputs": [],
      "stateMutability": "nonpayable",
      "type": "function"
    },
    {
      "inputs": [
        {
          "internalType": "address",
          "name": "account",
          "type": "address"
        }
      ],
      "name": "hasFeeManagerRole",
      "outputs": [
        {
          "internalType": "bool",
          "name": "isFeeManager",
          "type": "bool"
        }
      ],
      "stateMutability": "view",
      "type": "function"
    },
    {
      "inputs": [
        {
          "internalType": "bytes32",
          "name": "role",
          "type": "bytes32"
        },
        {
          "internalType": "address",
          "name": "account",
          "type": "address"
        }
      ],
      "name": "hasRole",
      "outputs": [
        {
          "internalType": "bool",
          "name": "",
          "type": "bool"
        }
      ],
      "stateMutability": "view",
      "type": "function"
    },
    {
      "inputs": [
        {
          "internalType": "address",
          "name": "_owner",
          "type": "address"
        },
        {
          "internalType": "address",
          "name": "_poolImplementation",
          "type": "address"
        },
        {
          "internalType": "address",
          "name": "_poolManager",
          "type": "address"
        },
        {
          "internalType": "address",
          "name": "_feeManager",
          "type": "address"
        },
        {
          "internalType": "address",
          "name": "_feeBeneficiary",
          "type": "address"
        },
        {
          "internalType": "string",
          "name": "_tokensBaseURI",
          "type": "string"
        }
      ],
      "name": "initialize",
      "outputs": [],
      "stateMutability": "nonpayable",
      "type": "function"
    },
    {
      "inputs": [],
      "name": "owner",
      "outputs": [
        {
          "internalType": "address",
          "name": "",
          "type": "address"
        }
      ],
      "stateMutability": "view",
      "type": "function"
    },
    {
      "inputs": [],
      "name": "pendingOwner",
      "outputs": [
        {
          "internalType": "address",
          "name": "",
          "type": "address"
        }
      ],
      "stateMutability": "view",
      "type": "function"
    },
    {
      "inputs": [],
      "name": "poolsBaseURI",
      "outputs": [
        {
          "internalType": "string",
          "name": "baseURI",
          "type": "string"
        }
      ],
      "stateMutability": "view",
      "type": "function"
    },
    {
      "inputs": [],
      "name": "proxiableUUID",
      "outputs": [
        {
          "internalType": "bytes32",
          "name": "",
          "type": "bytes32"
        }
      ],
      "stateMutability": "view",
      "type": "function"
    },
    {
      "inputs": [
        {
          "internalType": "uint256",
          "name": "implementationsIndex",
          "type": "uint256"
        }
      ],
      "name": "readdPoolImplementation",
      "outputs": [],
      "stateMutability": "nonpayable",
      "type": "function"
    },
    {
      "inputs": [
        {
          "internalType": "uint256",
          "name": "implementationsIndex",
          "type": "uint256"
        }
      ],
      "name": "removePoolImplementation",
      "outputs": [],
      "stateMutability": "nonpayable",
      "type": "function"
    },
    {
      "inputs": [],
      "name": "renounceOwnership",
      "outputs": [],
      "stateMutability": "view",
      "type": "function"
    },
    {
      "inputs": [
        {
          "internalType": "bytes32",
          "name": "role",
          "type": "bytes32"
        },
        {
          "internalType": "address",
          "name": "account",
          "type": "address"
        }
      ],
      "name": "renounceRole",
      "outputs": [],
      "stateMutability": "nonpayable",
      "type": "function"
    },
    {
      "inputs": [
        {
          "internalType": "bytes32",
          "name": "role",
          "type": "bytes32"
        },
        {
          "internalType": "address",
          "name": "account",
          "type": "address"
        }
      ],
      "name": "revokeRole",
      "outputs": [],
      "stateMutability": "nonpayable",
      "type": "function"
    },
    {
      "inputs": [
        {
          "internalType": "uint96",
          "name": "newRetirementRate",
          "type": "uint96"
        }
      ],
      "name": "setBaseRetirementRate",
      "outputs": [],
      "stateMutability": "nonpayable",
      "type": "function"
    },
    {
      "inputs": [
        {
          "internalType": "uint96",
          "name": "newWithdrawalRate",
          "type": "uint96"
        }
      ],
      "name": "setBaseWithdrawalRate",
      "outputs": [],
      "stateMutability": "nonpayable",
      "type": "function"
    },
    {
      "inputs": [
        {
          "internalType": "uint96",
          "name": "newWithdrawalRate",
          "type": "uint96"
        }
      ],
      "name": "setBaseWithdrawalSpecificRate",
      "outputs": [],
      "stateMutability": "nonpayable",
      "type": "function"
    },
    {
      "inputs": [
        {
          "internalType": "address",
          "name": "newFeeBeneficiary",
          "type": "address"
        }
      ],
      "name": "setFeeBeneficiary",
      "outputs": [],
      "stateMutability": "nonpayable",
      "type": "function"
    },
    {
      "inputs": [
        {
          "internalType": "bytes4",
          "name": "interfaceId",
          "type": "bytes4"
        }
      ],
      "name": "supportsInterface",
      "outputs": [
        {
          "internalType": "bool",
          "name": "",
          "type": "bool"
        }
      ],
      "stateMutability": "view",
      "type": "function"
    },
    {
      "inputs": [],
      "name": "totalPools",
      "outputs": [
        {
          "internalType": "uint256",
          "name": "numberOfPools",
          "type": "uint256"
        }
      ],
      "stateMutability": "view",
      "type": "function"
    },
    {
      "inputs": [
        {
          "internalType": "address",
          "name": "newOwner",
          "type": "address"
        }
      ],
      "name": "transferOwnership",
      "outputs": [],
      "stateMutability": "nonpayable",
      "type": "function"
    },
    {
      "inputs": [],
      "name": "uniswapFactory",
      "outputs": [
        {
          "internalType": "address",
          "name": "",
          "type": "address"
        }
      ],
      "stateMutability": "view",
      "type": "function"
    },
    {
      "inputs": [
        {
          "internalType": "address",
          "name": "newPoolImplementation",
          "type": "address"
        },
        {
          "internalType": "uint256",
          "name": "poolIndex",
          "type": "uint256"
        }
      ],
      "name": "updateImplementationAddress",
      "outputs": [],
      "stateMutability": "nonpayable",
      "type": "function"
    },
    {
      "inputs": [
        {
          "internalType": "string",
          "name": "newPoolsURI",
          "type": "string"
        }
      ],
      "name": "updatePoolsBaseURI",
      "outputs": [],
      "stateMutability": "nonpayable",
      "type": "function"
    },
    {
      "inputs": [
        {
          "internalType": "address",
          "name": "newImplementation",
          "type": "address"
        }
      ],
      "name": "upgradeTo",
      "outputs": [],
      "stateMutability": "nonpayable",
      "type": "function"
    },
    {
      "inputs": [
        {
          "internalType": "address",
          "name": "newImplementation",
          "type": "address"
        },
        {
          "internalType": "bytes",
          "name": "data",
          "type": "bytes"
        }
      ],
      "name": "upgradeToAndCall",
      "outputs": [],
      "stateMutability": "payable",
      "type": "function"
    },
    {
      "inputs": [],
      "name": "usdc",
      "outputs": [
        {
          "internalType": "address",
          "name": "",
          "type": "address"
        }
      ],
      "stateMutability": "view",
      "type": "function"
    }
  ],
  "transactionHash": "0x7caa58496675b41cc4850a1be6b4fe36b0125e1c42a200845880ed54ccb6f3ab",
  "args": [
    "0x1F98431c8aD98523631AE4a59f267346ea31F984",
    "0x0FA8781a83E46826621b3BC094Ea2A0212e71B23"
  ],
  "numDeployments": 1,
  "solcInputHash": "df03509de539bdfc1b55f91c500b1a2f",
  "bytecode": "0x60e0604052306080523480156200001557600080fd5b50604051620050cf380380620050cf8339810160408190526200003891620000aa565b6001600160a01b03821615806200005657506001600160a01b038116155b15620000755760405163b4fa3fb360e01b815260040160405180910390fd5b6001600160a01b0391821660a0521660c052620000e2565b80516001600160a01b0381168114620000a557600080fd5b919050565b60008060408385031215620000be57600080fd5b620000c9836200008d565b9150620000d9602084016200008d565b90509250929050565b60805160a05160c051614f6962000166600039600081816104c90152818161236d015281816123a7015281816123d001526124f50152600081816106b6015281816124570152612525015260008181610f9301528181610fd60152818161107e015281816110c1015281816111590152818161140d01526114500152614f696000f3fe608060405260043610620002a55760003560e01c806379ba50971162000164578063d547741f11620000d6578063e67d5bb61162000095578063f2fde38b116200006c578063f2fde38b14620008c0578063f475570d14620008e5578063ff12f329146200090a57600080fd5b8063e67d5bb61462000851578063f0cb16c01462000876578063f22b8091146200089b57600080fd5b8063d547741f1462000798578063daf7f90014620007bd578063e1fc3e8614620007e2578063e30c39781462000807578063e34b2392146200082757600080fd5b80638da5cb5b11620001235780638da5cb5b14620006d857806391d1485414620006f8578063a217fddf1462000742578063ab3c7e521462000759578063c852d333146200077157600080fd5b806379ba509714620006135780638119117c146200062b57806385058d8814620006505780638ba90a2d14620006755780638bdb2afa14620006a257600080fd5b80633659cfe6116200021b57806352d1902d11620001da5780635a0a3d8211620001b15780635a0a3d8214620005b15780635d130ec614620005d6578063715018a614620005fb57600080fd5b806352d1902d146200054f57806354f70169146200056757806356d73568146200058c57600080fd5b80633659cfe614620004905780633e413bee14620004b557806344e8dc6914620004eb578063492fb343146200050e5780634f1ef286146200053857600080fd5b80631182009511620002685780631182009514620003a05780631971345d14620003dc578063248a9ca314620004105780632f2ff15d146200044457806336568abe146200046b57600080fd5b8063014b1b4414620002aa57806301ffc9a714620002ec57806305db2f4114620003225780631010b58c1462000356578063101c6a16146200037b575b600080fd5b348015620002b757600080fd5b50620002cf620002c936600462003717565b6200092f565b6040516001600160a01b0390911681526020015b60405180910390f35b348015620002f957600080fd5b50620003116200030b366004620037e7565b62000b82565b6040519015158152602001620002e3565b3480156200032f57600080fd5b506200034760008051602062004e8d83398151915281565b604051908152602001620002e3565b3480156200036357600080fd5b50620002cf6200037536600462003805565b62000bba565b3480156200038857600080fd5b50620002cf6200039a3660046200381f565b62000bfb565b348015620003ad57600080fd5b5061016554620003c3906001600160601b031681565b6040516001600160601b039091168152602001620002e3565b348015620003e957600080fd5b5062000401620003fb36600462003805565b62000ce5565b604051620002e39190620038c6565b3480156200041d57600080fd5b50620003476200042f36600462003805565b600090815260c9602052604090206001015490565b3480156200045157600080fd5b50620004696200046336600462003915565b62000ed9565b005b3480156200047857600080fd5b50620004696200048a36600462003915565b62000f07565b3480156200049d57600080fd5b5062000469620004af36600462003948565b62000f89565b348015620004c257600080fd5b50620002cf7f000000000000000000000000000000000000000000000000000000000000000081565b348015620004f857600080fd5b5061016654620003c3906001600160601b031681565b3480156200051b57600080fd5b5061016654620002cf90600160601b90046001600160a01b031681565b620004696200054936600462003968565b62001074565b3480156200055c57600080fd5b50620003476200114c565b3480156200057457600080fd5b50620002cf6200058636600462003805565b62001202565b3480156200059957600080fd5b506200034760008051602062004f1483398151915281565b348015620005be57600080fd5b5062000469620005d036600462003948565b6200121f565b348015620005e357600080fd5b5062000469620005f5366004620039be565b6200133d565b3480156200060857600080fd5b5062000469620016f9565b3480156200062057600080fd5b50620004696200171c565b3480156200063857600080fd5b50620004696200064a36600462003a7a565b62001797565b3480156200065d57600080fd5b50620004696200066f36600462003805565b620018ae565b3480156200068257600080fd5b506200068d610bb881565b60405162ffffff9091168152602001620002e3565b348015620006af57600080fd5b50620002cf7f000000000000000000000000000000000000000000000000000000000000000081565b348015620006e557600080fd5b506033546001600160a01b0316620002cf565b3480156200070557600080fd5b50620003116200071736600462003915565b600091825260c9602090815260408084206001600160a01b0393909316845291905290205460ff1690565b3480156200074f57600080fd5b5062000347600081565b3480156200076657600080fd5b5062000347620019aa565b3480156200077e57600080fd5b5062000789620019be565b604051620002e3919062003af9565b348015620007a557600080fd5b5062000469620007b736600462003915565b62001a59565b348015620007ca57600080fd5b5062000311620007dc36600462003948565b62001a82565b348015620007ef57600080fd5b50620004696200080136600462003a7a565b62001ac3565b3480156200081457600080fd5b506065546001600160a01b0316620002cf565b3480156200083457600080fd5b5061016554620003c390600160601b90046001600160601b031681565b3480156200085e57600080fd5b50620004696200087036600462003b0e565b62001b8d565b3480156200088357600080fd5b50620004696200089536600462003a7a565b62001c4a565b348015620008a857600080fd5b5062000469620008ba36600462003b54565b62001d1a565b348015620008cd57600080fd5b5062000469620008df36600462003948565b62001e2d565b348015620008f257600080fd5b50620003476200090436600462003948565b62001ea1565b3480156200091757600080fd5b50620004696200092936600462003805565b6200206c565b33600090815260008051602062004ef4833981519152602052604081205460ff16620009845760405163a70ce63560e01b815260008051602062004f1483398151915260048201526024015b60405180910390fd5b6200098f89620021e1565b86516020880120620009a461015f826200222b565b15620009dc57620009b6818b62002246565b6040516327ce981760e11b81526001600160a01b0390911660048201526024016200097b565b600081620009ed6101628d620022f0565b604051620009fb90620035ca565b6001600160a01b0390911681526040602082018190526000908201526060018190604051809103906000f590508015801562000a3b573d6000803e3d6000fd5b509050806001600160a01b031662000a54838d62002246565b6001600160a01b03161462000a7c57604051630a0b0d7960e01b815260040160405180910390fd5b62000ad2818b8b8b8b8b8b60405160200162000a9d95949392919062003bac565b60408051601f198184030181529082905262000abd929160200162003bed565b604051602081830303815290604052620022fe565b5062000adf828c62002344565b858560405162000af192919062003c20565b6040518091039020888860405162000b0b92919062003c20565b6040518091039020826001600160a01b03167f5aa468db64bc18a2ef8ad508fa59f1a0ef1fe21461e197ced75bd1bf6163bc608c60405162000b4e919062003af9565b60405180910390a46001600160a01b0384161562000b745762000b72818562002366565b505b9a9950505050505050505050565b60006001600160e01b03198216637965db0b60e01b148062000bb457506301ffc9a760e01b6001600160e01b03198316145b92915050565b600062000bc961015f620026e5565b821062000be95760405163f591b27760e01b815260040160405180910390fd5b62000bb46200058661015f84620022f0565b33600090815260008051602062004ef4833981519152602052604081205460ff1662000c4c5760405163a70ce63560e01b815260008051602062004f1483398151915260048201526024016200097b565b60008762000c61606082016040830162003c30565b62000c7360808b0160608c0162003c30565b62000c8560a08c0160808d0162003c30565b62000c9760c08d0160a08e0162003c30565b60405160200162000cad95949392919062003c58565b60408051601f19818403018152919052905062000cd9600063c117db0b60e01b838a8a8a8a8a6200092f565b98975050505050505050565b6060600062000cf661015f620026e5565b67ffffffffffffffff81111562000d115762000d11620035ff565b60405190808252806020026020018201604052801562000d3b578160200160208202803683370190505b5090506000805b62000d4f61015f620026e5565b81101562000e2857600062000d6b6200058661015f84620022f0565b604051639c493c0b60e01b8152600481018890529091506001600160a01b03821690639c493c0b90602401602060405180830381865afa15801562000db4573d6000803e3d6000fd5b505050506040513d601f19601f8201168201806040525081019062000dda919062003cde565b1562000e1e578084848151811062000df65762000df662003cfc565b6001600160a01b03909216602092830291909101909101528262000e1a8162003d28565b9350505b5060010162000d42565b508067ffffffffffffffff81111562000e455762000e45620035ff565b60405190808252806020026020018201604052801562000e6f578160200160208202803683370190505b50925060005b8181101562000ed15782818151811062000e935762000e9362003cfc565b602002602001015184828151811062000eb05762000eb062003cfc565b6001600160a01b039092166020928302919091019091015260010162000e75565b505050919050565b600082815260c9602052604090206001015462000ef681620026f0565b62000f028383620026fc565b505050565b6001600160a01b038116331462000f795760405162461bcd60e51b815260206004820152602f60248201527f416363657373436f6e74726f6c3a2063616e206f6e6c792072656e6f756e636560448201526e103937b632b9903337b91039b2b63360891b60648201526084016200097b565b62000f858282620027a0565b5050565b6001600160a01b037f000000000000000000000000000000000000000000000000000000000000000016300362000fd45760405162461bcd60e51b81526004016200097b9062003d44565b7f00000000000000000000000000000000000000000000000000000000000000006001600160a01b03166200101f60008051602062004ead833981519152546001600160a01b031690565b6001600160a01b031614620010485760405162461bcd60e51b81526004016200097b9062003d90565b620010538162002824565b6040805160008082526020820190925262001071918391906200282e565b50565b6001600160a01b037f0000000000000000000000000000000000000000000000000000000000000000163003620010bf5760405162461bcd60e51b81526004016200097b9062003d44565b7f00000000000000000000000000000000000000000000000000000000000000006001600160a01b03166200110a60008051602062004ead833981519152546001600160a01b031690565b6001600160a01b031614620011335760405162461bcd60e51b81526004016200097b9062003d90565b6200113e8262002824565b62000f85828260016200282e565b6000306001600160a01b037f00000000000000000000000000000000000000000000000000000000000000001614620011ee5760405162461bcd60e51b815260206004820152603860248201527f555550535570677261646561626c653a206d757374206e6f742062652063616c60448201527f6c6564207468726f7567682064656c656761746563616c6c000000000000000060648201526084016200097b565b5060008051602062004ead83398151915290565b6000818152610161602052604081205462000bb490839062002246565b3360009081527fa36303cdd0069b298f7bfb1074d3df9cf7c49999d3c4d11d7414189a03c7aaac602052604090205460ff16620012815760405163a70ce63560e01b815260008051602062004e8d83398151915260048201526024016200097b565b6200128c81620029a6565b61016680546001600160a01b038316600160601b81026001600160601b03928316179092556101655460405191168152600091907fff99beb51fa9ff0f00723ca123576bb6082e1306db7a0851160af69f38fcd8d59060200160405180910390a3610166546040516001600160601b0390911681526001600160a01b038216907f4fa831b4a1cca7ffe5a0c235b2a65d386a724b22fc46163504d971d080b79b6e906020015b60405180910390a250565b600054610100900460ff16158080156200135e5750600054600160ff909116105b806200137a5750303b1580156200137a575060005460ff166001145b620013df5760405162461bcd60e51b815260206004820152602e60248201527f496e697469616c697a61626c653a20636f6e747261637420697320616c72656160448201526d191e481a5b9a5d1a585b1a5e995960921b60648201526084016200097b565b6000805460ff19166001179055801562001403576000805461ff0019166101001790555b6001600160a01b037f00000000000000000000000000000000000000000000000000000000000000001630036200144e5760405162461bcd60e51b81526004016200097b9062003d44565b7f00000000000000000000000000000000000000000000000000000000000000006001600160a01b03166200149960008051602062004ead833981519152546001600160a01b031690565b6001600160a01b031614620014c25760405162461bcd60e51b81526004016200097b9062003d90565b620014cc620029ce565b620014d6620029fa565b620014e0620029ce565b620014eb8662002a2e565b620014f683620029a6565b6001600160a01b0387166200151e5760405163b4fa3fb360e01b815260040160405180910390fd5b6101676200152d838262003e6a565b5061016680546001600160601b0316600160601b6001600160a01b038616021790556200155a8762002c3f565b6200156760008862002c70565b6200158260008051602062004f148339815191528862002c70565b6200159e60008051602062004f14833981519152600062002c7c565b620015b960008051602062004e8d8339815191528862002c70565b620015d560008051602062004e8d833981519152600062002c7c565b620015f060008051602062004f1483398151915288620026fc565b6200160b60008051602062004e8d83398151915288620026fc565b6001600160a01b0385161562001636576200163660008051602062004f1483398151915286620026fc565b6001600160a01b0384161562001661576200166160008051602062004e8d83398151915285620026fc565b6200167c60008051602062004f1483398151915233620026fc565b620016878662001ea1565b50620016a960008051602062004f1483398151915233620027a0565b620027a0565b8015620016f0576000805461ff0019169055604051600181527f7f26b83ff96e1f2b6a682f133852f6798a09c465da95921460cefb38474024989060200160405180910390a15b50505050505050565b6200170362002cc7565b604051633ac4266d60e11b815260040160405180910390fd5b60655433906001600160a01b031681146200178c5760405162461bcd60e51b815260206004820152602960248201527f4f776e61626c6532537465703a2063616c6c6572206973206e6f7420746865206044820152683732bb9037bbb732b960b91b60648201526084016200097b565b620010718162002c3f565b3360009081527fa36303cdd0069b298f7bfb1074d3df9cf7c49999d3c4d11d7414189a03c7aaac602052604090205460ff16620017f95760405163a70ce63560e01b815260008051602062004e8d83398151915260048201526024016200097b565b610165546001600160601b0390811690821610156200182b5760405163b4fa3fb360e01b815260040160405180910390fd5b610165805477ffffffffffffffffffffffff0000000000000000000000001916600160601b6001600160601b038416818102929092179092556101665460405191825260019290046001600160a01b0316907fff99beb51fa9ff0f00723ca123576bb6082e1306db7a0851160af69f38fcd8d5906020015b60405180910390a350565b33600090815260008051602062004ef4833981519152602052604090205460ff16620018ff5760405163a70ce63560e01b815260008051602062004f1483398151915260048201526024016200097b565b6200190c610162620026e5565b811015806200192a57506000818152610164602052604090205460ff165b156200194957604051630a0b0d7960e01b815260040160405180910390fd5b600081815261016460205260409020805460ff19166001179055806200197261016282620022f0565b6001600160a01b03167fae742a5666c83cf7be41e0aa0bdcde1538ecc1a945dd504a67e14b8b9b6c319f60405160405180910390a350565b6000620019b961015f620026e5565b905090565b60606101678054620019d09062003ddc565b80601f0160208091040260200160405190810160405280929190818152602001828054620019fe9062003ddc565b801562001a4f5780601f1062001a235761010080835404028352916020019162001a4f565b820191906000526020600020905b81548152906001019060200180831162001a3157829003601f168201915b5050505050905090565b600082815260c9602052604090206001015462001a7681620026f0565b62000f028383620027a0565b6001600160a01b03811660009081527fa36303cdd0069b298f7bfb1074d3df9cf7c49999d3c4d11d7414189a03c7aaac602052604081205460ff1662000bb4565b3360009081527fa36303cdd0069b298f7bfb1074d3df9cf7c49999d3c4d11d7414189a03c7aaac602052604090205460ff1662001b255760405163a70ce63560e01b815260008051602062004e8d83398151915260048201526024016200097b565b61016680546bffffffffffffffffffffffff19166001600160601b03831690811791829055604051908152600160601b9091046001600160a01b0316907f4fa831b4a1cca7ffe5a0c235b2a65d386a724b22fc46163504d971d080b79b6e9060200162001332565b33600090815260008051602062004ef4833981519152602052604090205460ff1662001bde5760405163a70ce63560e01b815260008051602062004f1483398151915260048201526024016200097b565b61016760405162001bf0919062003f37565b6040518091039020828260405162001c0a92919062003c20565b604051908190038120907f14eb6a22e7bb591833af6494fb5f5ee38d3996f86adf99e3147240ebe0038fc290600090a361016762000f0282848362003fb5565b3360009081527fa36303cdd0069b298f7bfb1074d3df9cf7c49999d3c4d11d7414189a03c7aaac602052604090205460ff1662001cac5760405163a70ce63560e01b815260008051602062004e8d83398151915260048201526024016200097b565b61016580546bffffffffffffffffffffffff19166001600160601b03831690811790915561016654604051918252600091600160601b9091046001600160a01b0316907fff99beb51fa9ff0f00723ca123576bb6082e1306db7a0851160af69f38fcd8d590602001620018a3565b33600090815260008051602062004ef4833981519152602052604090205460ff1662001d6b5760405163a70ce63560e01b815260008051602062004f1483398151915260048201526024016200097b565b62001d768262002a2e565b600062001d8661016283620022f0565b604051631b2ce7f360e11b81526001600160a01b03858116600483015291925090821690633659cfe690602401600060405180830381600087803b15801562001dce57600080fd5b505af115801562001de3573d6000803e3d6000fd5b5050505081816001600160a01b0316846001600160a01b03167fcebc693d2e48989a533ffd3d9d61cc91c4af07bc15882f606caf8293131d750660405160405180910390a4505050565b62001e3762002cc7565b606580546001600160a01b0383166001600160a01b0319909116811790915562001e696033546001600160a01b031690565b6001600160a01b03167f38d16b8cac22d99fc7c124b9cd0de2d3fa1faef420bfe791d8c362d765e2270060405160405180910390a350565b33600090815260008051602062004ef4833981519152602052604081205460ff1662001ef25760405163a70ce63560e01b815260008051602062004f1483398151915260048201526024016200097b565b62001efd8262002a2e565b600062001f0c610162620026e5565b60405160200162001f1f91815260200190565b6040516020818303038152906040528051906020012090506000818460405162001f4990620035d8565b6001600160a01b0390911681526020018190604051809103906000f590508015801562001f7a573d6000803e3d6000fd5b50905062001f8b6101628262002d23565b62001fec5760405162461bcd60e51b815260206004820152602a60248201527f4a61736d696e65506f6f6c466163746f72793a204661696c656420746f20616460448201526919081b995dc81c1bdbdb60b21b60648201526084016200097b565b600162001ffb610162620026e5565b62002007919062004083565b816001600160a01b0316856001600160a01b03167f03bef92f1c2ecb9138ecc293187ab0ac8ba938fe7675886d961b3c09b05d1f5a60405160405180910390a4600162002056610162620026e5565b62002062919062004083565b925050505b919050565b33600090815260008051602062004ef4833981519152602052604090205460ff16620020bd5760405163a70ce63560e01b815260008051602062004f1483398151915260048201526024016200097b565b620020ca610162620026e5565b81101580620020e957506000818152610164602052604090205460ff16155b156200210857604051630a0b0d7960e01b815260040160405180910390fd5b600081815261016460205260409020805460ff19169055806200212e61016282620022f0565b6001600160a01b03166200214561016284620022f0565b6001600160a01b0316635c60da1b6040518163ffffffff1660e01b8152600401602060405180830381865afa15801562002183573d6000803e3d6000fd5b505050506040513d601f19601f82011682018060405250810190620021a9919062004099565b6001600160a01b03167f03bef92f1c2ecb9138ecc293187ab0ac8ba938fe7675886d961b3c09b05d1f5a60405160405180910390a450565b620021ee610162620026e5565b811015806200220c57506000818152610164602052604090205460ff165b156200107157604051630a0b0d7960e01b815260040160405180910390fd5b600081815260018301602052604081205415155b9392505050565b600080604051806020016200225b90620035ca565b601f1982820381018352601f9091011660405290506000816200228161016286620022f0565b604080516001600160a01b039092166020830152818101526000606082015260800160408051601f1981840301815290829052620022c39291602001620040b9565b6040516020818303038152906040529050620022e785828051906020012062002d3a565b95945050505050565b60006200223f838362002d49565b60606200223f838360006040518060400160405280601e81526020017f416464726573733a206c6f772d6c6576656c2063616c6c206661696c6564000081525062002d76565b6200235261015f8362002e5b565b506000918252610161602052604090912055565b60008060007f00000000000000000000000000000000000000000000000000000000000000006001600160a01b0316856001600160a01b031610620023cd577f000000000000000000000000000000000000000000000000000000000000000085620023f0565b847f00000000000000000000000000000000000000000000000000000000000000005b91509150806001600160a01b0316826001600160a01b031611156200242857604051630a0b0d7960e01b815260040160405180910390fd5b604051630b4c774160e11b81526001600160a01b0383811660048301528281166024830152610bb860448301527f00000000000000000000000000000000000000000000000000000000000000001690631698ee8290606401602060405180830381865afa1580156200249f573d6000803e3d6000fd5b505050506040513d601f19601f82011682018060405250810190620024c5919062004099565b92506001600160a01b038316620025fc5760405163a167129560e01b81526001600160a01b0386811660048301527f000000000000000000000000000000000000000000000000000000000000000081166024830152610bb860448301527f0000000000000000000000000000000000000000000000000000000000000000169063a1671295906064016020604051808303816000875af11580156200256f573d6000803e3d6000fd5b505050506040513d601f19601f8201168201806040525081019062002595919062004099565b60405163f637731d60e01b81526001600160a01b0386811660048301529194509084169063f637731d90602401600060405180830381600087803b158015620025dd57600080fd5b505af1158015620025f2573d6000803e3d6000fd5b50505050620026dd565b6000836001600160a01b0316633850c7bd6040518163ffffffff1660e01b815260040160e060405180830381865afa1580156200263d573d6000803e3d6000fd5b505050506040513d601f19601f82011682018060405250810190620026639190620040ff565b5050505050509050806001600160a01b0316600003620026db5760405163f637731d60e01b81526001600160a01b03868116600483015285169063f637731d90602401600060405180830381600087803b158015620026c157600080fd5b505af1158015620026d6573d6000803e3d6000fd5b505050505b505b505092915050565b600062000bb4825490565b62001071813362002e69565b600082815260c9602090815260408083206001600160a01b038516845290915290205460ff1662000f8557600082815260c9602090815260408083206001600160a01b03851684529091529020805460ff191660011790556200275c3390565b6001600160a01b0316816001600160a01b0316837f2f8788117e7eff1d82e926ec794901d17c78024a50270940304540a733656f0d60405160405180910390a45050565b600082815260c9602090815260408083206001600160a01b038516845290915290205460ff161562000f8557600082815260c9602090815260408083206001600160a01b0385168085529252808320805460ff1916905551339285917ff6391f5c32d9c69d2a47ea670b442974b53935d1edc7fd64eb21e047a839171b9190a45050565b6200107162002cc7565b7f4910fdfa16fed3260ed0e7147f7cc6da11a60208b5b9406d12a635614ffd91435460ff1615620028645762000f028362002ee7565b826001600160a01b03166352d1902d6040518163ffffffff1660e01b8152600401602060405180830381865afa925050508015620028c1575060408051601f3d908101601f19168201909252620028be91810190620041a6565b60015b620029265760405162461bcd60e51b815260206004820152602e60248201527f45524331393637557067726164653a206e657720696d706c656d656e7461746960448201526d6f6e206973206e6f74205555505360901b60648201526084016200097b565b60008051602062004ead8339815191528114620029985760405162461bcd60e51b815260206004820152602960248201527f45524331393637557067726164653a20756e737570706f727465642070726f786044820152681a58589b195555525160ba1b60648201526084016200097b565b5062000f0283838362002f86565b6001600160a01b038116620010715760405163b4fa3fb360e01b815260040160405180910390fd5b600054610100900460ff16620029f85760405162461bcd60e51b81526004016200097b90620041c0565b565b600054610100900460ff1662002a245760405162461bcd60e51b81526004016200097b90620041c0565b620029f862002fb1565b60408051600280825260608201835260009260208301908036833701905050905063c117db0b60e01b8160008151811062002a6d5762002a6d62003cfc565b60200260200101906001600160e01b03191690816001600160e01b03191681525050630271189760e51b8160018151811062002aad5762002aad62003cfc565b6001600160e01b031990921660209283029190910190910152600062002ad4838362002fe6565b90508060008151811062002aec5762002aec62003cfc565b602002602001015162002b1c576040516321366bb760e11b815263c117db0b60e01b60048201526024016200097b565b8060018151811062002b325762002b3262003cfc565b602002602001015162002b62576040516321366bb760e11b8152630271189760e51b60048201526024016200097b565b60005b62002b72610162620026e5565b81101562002c3957600062002b8a61016283620022f0565b9050846001600160a01b0316816001600160a01b0316635c60da1b6040518163ffffffff1660e01b8152600401602060405180830381865afa15801562002bd5573d6000803e3d6000fd5b505050506040513d601f19601f8201168201806040525081019062002bfb919062004099565b6001600160a01b03160362002c2f576040516327ce981760e11b81526001600160a01b03861660048201526024016200097b565b5060010162002b65565b50505050565b62002c586000620016a36033546001600160a01b031690565b62002c65600082620026fc565b6200107181620030bc565b62000f858282620026fc565b600082815260c96020526040808220600101805490849055905190918391839186917fbd79b86ffe0ab8e8776151514217cd7cacd52c909f66475c3af44e129f0b00ff9190a4505050565b6033546001600160a01b03163314620029f85760405162461bcd60e51b815260206004820181905260248201527f4f776e61626c653a2063616c6c6572206973206e6f7420746865206f776e657260448201526064016200097b565b60006200223f836001600160a01b038416620030d7565b60006200223f83833062003129565b600082600001828154811062002d635762002d6362003cfc565b9060005260206000200154905092915050565b60608247101562002dd95760405162461bcd60e51b815260206004820152602660248201527f416464726573733a20696e73756666696369656e742062616c616e636520666f6044820152651c8818d85b1b60d21b60648201526084016200097b565b600080866001600160a01b0316858760405162002df791906200420b565b60006040518083038185875af1925050503d806000811462002e36576040519150601f19603f3d011682016040523d82523d6000602084013e62002e3b565b606091505b509150915062002e4e8783838762003153565b925050505b949350505050565b60006200223f8383620030d7565b600082815260c9602090815260408083206001600160a01b038516845290915290205460ff1662000f855762002e9f81620031d3565b62002eac836020620031e6565b60405160200162002ebf92919062004229565b60408051601f198184030181529082905262461bcd60e51b82526200097b9160040162003af9565b6001600160a01b0381163b62002f565760405162461bcd60e51b815260206004820152602d60248201527f455243313936373a206e657720696d706c656d656e746174696f6e206973206e60448201526c1bdd08184818dbdb9d1c9858dd609a1b60648201526084016200097b565b60008051602062004ead83398151915280546001600160a01b0319166001600160a01b0392909216919091179055565b62002f9183620033a0565b60008251118062002f9f5750805b1562000f025762002c398383620033e2565b600054610100900460ff1662002fdb5760405162461bcd60e51b81526004016200097b90620041c0565b620029f83362002c3f565b60606000825167ffffffffffffffff811115620030075762003007620035ff565b60405190808252806020026020018201604052801562003031578160200160208202803683370190505b5090506200303f846200340a565b156200223f5760005b8351811015620030b4576200307a858583815181106200306c576200306c62003cfc565b602002602001015162003442565b8282815181106200308f576200308f62003cfc565b9115156020928302919091019091015280620030ab8162003d28565b91505062003048565b509392505050565b606580546001600160a01b03191690556200107181620034cd565b6000818152600183016020526040812054620031205750815460018181018455600084815260208082209093018490558454848252828601909352604090209190915562000bb4565b50600062000bb4565b6000604051836040820152846020820152828152600b8101905060ff815360559020949350505050565b60608315620031c7578251600003620031bf576001600160a01b0385163b620031bf5760405162461bcd60e51b815260206004820152601d60248201527f416464726573733a2063616c6c20746f206e6f6e2d636f6e747261637400000060448201526064016200097b565b508162002e53565b62002e5383836200351f565b606062000bb46001600160a01b03831660145b60606000620031f7836002620042ae565b62003204906002620042c8565b67ffffffffffffffff8111156200321f576200321f620035ff565b6040519080825280601f01601f1916602001820160405280156200324a576020820181803683370190505b509050600360fc1b8160008151811062003268576200326862003cfc565b60200101906001600160f81b031916908160001a905350600f60fb1b816001815181106200329a576200329a62003cfc565b60200101906001600160f81b031916908160001a9053506000620032c0846002620042ae565b620032cd906001620042c8565b90505b60018111156200334f576f181899199a1a9b1b9c1cb0b131b232b360811b85600f166010811062003305576200330562003cfc565b1a60f81b8282815181106200331e576200331e62003cfc565b60200101906001600160f81b031916908160001a90535060049490941c936200334781620042de565b9050620032d0565b5083156200223f5760405162461bcd60e51b815260206004820181905260248201527f537472696e67733a20686578206c656e67746820696e73756666696369656e7460448201526064016200097b565b620033ab8162002ee7565b6040516001600160a01b038216907fbc7cd75a20ee27fd9adebab32041f755214dbc6bffa90cc0225b39da2e5c2d3b90600090a250565b60606200223f838360405180606001604052806027815260200162004ecd602791396200354c565b60006200341f826301ffc9a760e01b62003442565b801562000bb457506200343b826001600160e01b031962003442565b1592915050565b604080516001600160e01b03198316602480830191909152825180830390910181526044909101909152602080820180516001600160e01b03166301ffc9a760e01b178152825160009392849283928392918391908a617530fa92503d91506000519050828015620034b5575060208210155b8015620034c25750600081115b979650505050505050565b603380546001600160a01b038381166001600160a01b0319831681179093556040519116919082907f8be0079c531659141344cd1fd0a4f28419497f9722a3daafe3b4186f6b6457e090600090a35050565b815115620035305781518083602001fd5b8060405162461bcd60e51b81526004016200097b919062003af9565b6060600080856001600160a01b0316856040516200356b91906200420b565b600060405180830381855af49150503d8060008114620035a8576040519150601f19603f3d011682016040523d82523d6000602084013e620035ad565b606091505b5091509150620035c08683838762003153565b9695505050505050565b6106cc80620042f983390190565b6104c880620049c583390190565b80356001600160e01b0319811681146200206757600080fd5b634e487b7160e01b600052604160045260246000fd5b600067ffffffffffffffff80841115620036335762003633620035ff565b604051601f8501601f19908116603f011681019082821181831017156200365e576200365e620035ff565b816040528093508581528686860111156200367857600080fd5b858560208301376000602087830101525050509392505050565b600082601f830112620036a457600080fd5b6200223f8383356020850162003615565b60008083601f840112620036c857600080fd5b50813567ffffffffffffffff811115620036e157600080fd5b602083019150836020828501011115620036fa57600080fd5b9250929050565b6001600160a01b03811681146200107157600080fd5b60008060008060008060008060c0898b0312156200373457600080fd5b883597506200374660208a01620035e6565b9650604089013567ffffffffffffffff808211156200376457600080fd5b620037728c838d0162003692565b975060608b01359150808211156200378957600080fd5b620037978c838d01620036b5565b909750955060808b0135915080821115620037b157600080fd5b50620037c08b828c01620036b5565b90945092505060a0890135620037d68162003701565b809150509295985092959890939650565b600060208284031215620037fa57600080fd5b6200223f82620035e6565b6000602082840312156200381857600080fd5b5035919050565b6000806000806000808688036101208112156200383b57600080fd5b60c08112156200384a57600080fd5b5086955060c087013567ffffffffffffffff808211156200386a57600080fd5b620038788a838b01620036b5565b909750955060e08901359150808211156200389257600080fd5b50620038a189828a01620036b5565b909450925050610100870135620038b88162003701565b809150509295509295509295565b6020808252825182820181905260009190848201906040850190845b81811015620039095783516001600160a01b031683529284019291840191600101620038e2565b50909695505050505050565b600080604083850312156200392957600080fd5b8235915060208301356200393d8162003701565b809150509250929050565b6000602082840312156200395b57600080fd5b81356200223f8162003701565b600080604083850312156200397c57600080fd5b8235620039898162003701565b9150602083013567ffffffffffffffff811115620039a657600080fd5b620039b48582860162003692565b9150509250929050565b60008060008060008060c08789031215620039d857600080fd5b8635620039e58162003701565b95506020870135620039f78162003701565b9450604087013562003a098162003701565b9350606087013562003a1b8162003701565b9250608087013562003a2d8162003701565b915060a087013567ffffffffffffffff81111562003a4a57600080fd5b8701601f8101891362003a5c57600080fd5b62003a6d8982356020840162003615565b9150509295509295509295565b60006020828403121562003a8d57600080fd5b81356001600160601b03811681146200223f57600080fd5b60005b8381101562003ac257818101518382015260200162003aa8565b50506000910152565b6000815180845262003ae581602086016020860162003aa5565b601f01601f19169290920160200192915050565b6020815260006200223f602083018462003acb565b6000806020838503121562003b2257600080fd5b823567ffffffffffffffff81111562003b3a57600080fd5b62003b4885828601620036b5565b90969095509350505050565b6000806040838503121562003b6857600080fd5b823562003b758162003701565b946020939093013593505050565b81835281816020850137506000828201602090810191909152601f909101601f19169091010190565b60608152600062003bc1606083018862003acb565b828103602084015262003bd681878962003b83565b9050828103604084015262000cd981858762003b83565b6001600160e01b031983168152815160009062003c1281600485016020870162003aa5565b919091016004019392505050565b8183823760009101908152919050565b60006020828403121562003c4357600080fd5b813563ffffffff811681146200223f57600080fd5b60c0810181876000805b600281101562003c9b57823566ffffffffffffff811680821462003c84578384fd5b855250602093840193929092019160010162003c62565b5050505063ffffffff95861660408301529385166060820152918416608083015290921660a090920191909152919050565b805180151581146200206757600080fd5b60006020828403121562003cf157600080fd5b6200223f8262003ccd565b634e487b7160e01b600052603260045260246000fd5b634e487b7160e01b600052601160045260246000fd5b60006001820162003d3d5762003d3d62003d12565b5060010190565b6020808252602c908201527f46756e6374696f6e206d7573742062652063616c6c6564207468726f7567682060408201526b19195b1959d85d1958d85b1b60a21b606082015260800190565b6020808252602c908201527f46756e6374696f6e206d7573742062652063616c6c6564207468726f7567682060408201526b6163746976652070726f787960a01b606082015260800190565b600181811c9082168062003df157607f821691505b60208210810362003e1257634e487b7160e01b600052602260045260246000fd5b50919050565b601f82111562000f0257600081815260208120601f850160051c8101602086101562003e415750805b601f850160051c820191505b8181101562003e625782815560010162003e4d565b505050505050565b815167ffffffffffffffff81111562003e875762003e87620035ff565b62003e9f8162003e98845462003ddc565b8462003e18565b602080601f83116001811462003ed7576000841562003ebe5750858301515b600019600386901b1c1916600185901b17855562003e62565b600085815260208120601f198616915b8281101562003f085788860151825594840194600190910190840162003ee7565b508582101562003f275787850151600019600388901b60f8161c191681555b5050505050600190811b01905550565b600080835462003f478162003ddc565b6001828116801562003f62576001811462003f785762003fa9565b60ff198416875282151583028701945062003fa9565b8760005260208060002060005b8581101562003fa05781548a82015290840190820162003f85565b50505082870194505b50929695505050505050565b67ffffffffffffffff83111562003fd05762003fd0620035ff565b62003fe88362003fe1835462003ddc565b8362003e18565b6000601f8411600181146200401f5760008515620040065750838201355b600019600387901b1c1916600186901b1783556200407c565b600083815260209020601f19861690835b8281101562004052578685013582556020948501946001909201910162004030565b5086821015620040705760001960f88860031b161c19848701351681555b505060018560011b0183555b5050505050565b8181038181111562000bb45762000bb462003d12565b600060208284031215620040ac57600080fd5b81516200223f8162003701565b60008351620040cd81846020880162003aa5565b835190830190620040e381836020880162003aa5565b01949350505050565b805161ffff811681146200206757600080fd5b600080600080600080600060e0888a0312156200411b57600080fd5b8751620041288162003701565b8097505060208801518060020b81146200414157600080fd5b95506200415160408901620040ec565b94506200416160608901620040ec565b93506200417160808901620040ec565b925060a088015160ff811681146200418857600080fd5b91506200419860c0890162003ccd565b905092959891949750929550565b600060208284031215620041b957600080fd5b5051919050565b6020808252602b908201527f496e697469616c697a61626c653a20636f6e7472616374206973206e6f74206960408201526a6e697469616c697a696e6760a81b606082015260800190565b600082516200421f81846020870162003aa5565b9190910192915050565b7f416363657373436f6e74726f6c3a206163636f756e74200000000000000000008152600083516200426381601785016020880162003aa5565b7f206973206d697373696e6720726f6c65200000000000000000000000000000006017918401918201528351620042a281602884016020880162003aa5565b01602801949350505050565b808202811582820484141762000bb45762000bb462003d12565b8082018082111562000bb45762000bb462003d12565b600081620042f057620042f062003d12565b50600019019056fe60806040526040516106cc3803806106cc83398101604081905261002291610420565b61002e82826000610035565b505061054a565b61003e836100f6565b6040516001600160a01b038416907f1cf3b03a6cf19fa2baba4df148e9dcabedea7f8a5c07840e207e5c089be95d3e90600090a260008251118061007f5750805b156100f1576100ef836001600160a01b0316635c60da1b6040518163ffffffff1660e01b8152600401602060405180830381865afa1580156100c5573d6000803e3d6000fd5b505050506040513d601f19601f820116820180604052508101906100e991906104e0565b8361027a565b505b505050565b6001600160a01b0381163b6101605760405162461bcd60e51b815260206004820152602560248201527f455243313936373a206e657720626561636f6e206973206e6f74206120636f6e6044820152641d1c9858dd60da1b60648201526084015b60405180910390fd5b6101d4816001600160a01b0316635c60da1b6040518163ffffffff1660e01b8152600401602060405180830381865afa1580156101a1573d6000803e3d6000fd5b505050506040513d601f19601f820116820180604052508101906101c591906104e0565b6001600160a01b03163b151590565b6102395760405162461bcd60e51b815260206004820152603060248201527f455243313936373a20626561636f6e20696d706c656d656e746174696f6e206960448201526f1cc81b9bdd08184818dbdb9d1c9858dd60821b6064820152608401610157565b7fa3f0ad74e5423aebfd80d3ef4346578335a9a72aeaee59ff6cb3582b35133d5080546001600160a01b0319166001600160a01b0392909216919091179055565b606061029f83836040518060600160405280602781526020016106a5602791396102a6565b9392505050565b6060600080856001600160a01b0316856040516102c391906104fb565b600060405180830381855af49150503d80600081146102fe576040519150601f19603f3d011682016040523d82523d6000602084013e610303565b606091505b5090925090506103158683838761031f565b9695505050505050565b6060831561038e578251600003610387576001600160a01b0385163b6103875760405162461bcd60e51b815260206004820152601d60248201527f416464726573733a2063616c6c20746f206e6f6e2d636f6e74726163740000006044820152606401610157565b5081610398565b61039883836103a0565b949350505050565b8151156103b05781518083602001fd5b8060405162461bcd60e51b81526004016101579190610517565b80516001600160a01b03811681146103e157600080fd5b919050565b634e487b7160e01b600052604160045260246000fd5b60005b838110156104175781810151838201526020016103ff565b50506000910152565b6000806040838503121561043357600080fd5b61043c836103ca565b60208401519092506001600160401b038082111561045957600080fd5b818501915085601f83011261046d57600080fd5b81518181111561047f5761047f6103e6565b604051601f8201601f19908116603f011681019083821181831017156104a7576104a76103e6565b816040528281528860208487010111156104c057600080fd5b6104d18360208301602088016103fc565b80955050505050509250929050565b6000602082840312156104f257600080fd5b61029f826103ca565b6000825161050d8184602087016103fc565b9190910192915050565b60208152600082518060208401526105368160408501602087016103fc565b601f01601f19169190910160400192915050565b61014c806105596000396000f3fe60806040523661001357610011610017565b005b6100115b610027610022610029565b6100c2565b565b600061005c7fa3f0ad74e5423aebfd80d3ef4346578335a9a72aeaee59ff6cb3582b35133d50546001600160a01b031690565b6001600160a01b0316635c60da1b6040518163ffffffff1660e01b8152600401602060405180830381865afa158015610099573d6000803e3d6000fd5b505050506040513d601f19601f820116820180604052508101906100bd91906100e6565b905090565b3660008037600080366000845af43d6000803e8080156100e1573d6000f35b3d6000fd5b6000602082840312156100f857600080fd5b81516001600160a01b038116811461010f57600080fd5b939250505056fea26469706673582212201425700e70f50ebdaf88507258ad05d79279b8bc6f6cbd74b6e35fa78de07ce064736f6c63430008140033416464726573733a206c6f772d6c6576656c2064656c65676174652063616c6c206661696c6564608060405234801561001057600080fd5b506040516104c83803806104c883398101604081905261002f9161013a565b61003833610047565b61004181610097565b5061016a565b600080546001600160a01b038381166001600160a01b0319831681178455604051919092169283917f8be0079c531659141344cd1fd0a4f28419497f9722a3daafe3b4186f6b6457e09190a35050565b6001600160a01b0381163b6101185760405162461bcd60e51b815260206004820152603360248201527f5570677261646561626c65426561636f6e3a20696d706c656d656e746174696f60448201527f6e206973206e6f74206120636f6e747261637400000000000000000000000000606482015260840160405180910390fd5b600180546001600160a01b0319166001600160a01b0392909216919091179055565b60006020828403121561014c57600080fd5b81516001600160a01b038116811461016357600080fd5b9392505050565b61034f806101796000396000f3fe608060405234801561001057600080fd5b50600436106100575760003560e01c80633659cfe61461005c5780635c60da1b14610071578063715018a61461009a5780638da5cb5b146100a2578063f2fde38b146100b3575b600080fd5b61006f61006a3660046102e9565b6100c6565b005b6001546001600160a01b03165b6040516001600160a01b03909116815260200160405180910390f35b61006f61010e565b6000546001600160a01b031661007e565b61006f6100c13660046102e9565b610122565b6100ce6101a0565b6100d7816101fa565b6040516001600160a01b038216907fbc7cd75a20ee27fd9adebab32041f755214dbc6bffa90cc0225b39da2e5c2d3b90600090a250565b6101166101a0565b6101206000610299565b565b61012a6101a0565b6001600160a01b0381166101945760405162461bcd60e51b815260206004820152602660248201527f4f776e61626c653a206e6577206f776e657220697320746865207a65726f206160448201526564647265737360d01b60648201526084015b60405180910390fd5b61019d81610299565b50565b6000546001600160a01b031633146101205760405162461bcd60e51b815260206004820181905260248201527f4f776e61626c653a2063616c6c6572206973206e6f7420746865206f776e6572604482015260640161018b565b6001600160a01b0381163b6102775760405162461bcd60e51b815260206004820152603360248201527f5570677261646561626c65426561636f6e3a20696d706c656d656e746174696f60448201527f6e206973206e6f74206120636f6e747261637400000000000000000000000000606482015260840161018b565b600180546001600160a01b0319166001600160a01b0392909216919091179055565b600080546001600160a01b038381166001600160a01b0319831681178455604051919092169283917f8be0079c531659141344cd1fd0a4f28419497f9722a3daafe3b4186f6b6457e09190a35050565b6000602082840312156102fb57600080fd5b81356001600160a01b038116811461031257600080fd5b939250505056fea2646970667358221220a2359ea5e027fa6d876b1864bbd1a04dea66184a528c8c1b98729963ebad3a8c64736f6c634300081400336c0757dc3e6b28b2580c03fd9e96c274acf4f99d91fbec9b418fa1d70604ff1c360894a13ba1a3210667c828492db98dca3e2076cc3735a920a3ca505d382bbc416464726573733a206c6f772d6c6576656c2064656c65676174652063616c6c206661696c6564d4e781d79508cd7288b0dc12f8a54f50b0d15d7b669a4bfe9db5db37fbdf17bb6077685936c8169d09204a1d97db12e41713588c38e1d29a61867d3dcee98affa2646970667358221220ad289ff79f76c93b39a7cada07c4f3dbad3dc48737e575d3af2bf4280a3cbf0664736f6c63430008140033",
  "devdoc": {
    "author": "Kai Aldag<kai.aldag@jasmine.energy>",
    "custom:security-contact": "dev@jasmine.energy",
    "errors": {
      "Disabled()": [
        {
          "details": "Emitted if function is disabled"
        }
      ],
      "InvalidInput()": [
        {
          "details": "Emitted if input is invalid"
        }
      ],
      "MustSupportInterface(bytes4)": [
        {
          "details": "Emitted for failed supportsInterface check - per ERC-165"
        }
      ],
      "NoPool()": [
        {
          "details": "Emitted if no pool(s) meet query"
        }
      ],
      "PoolExists(address)": [
        {
          "details": "Emitted if a pool exists with given policy"
        }
      ],
      "Prohibited()": [
        {
          "details": "Emitted for unauthorized actions"
        }
      ],
      "RequiresRole(bytes32)": [
        {
          "details": "Emitted if access control check fails"
        }
      ],
      "UnsupportedMetadataVersion(uint8)": [
        {
          "details": "Emitted if contract does not support metadata version"
        }
      ],
      "ValidationFailed()": [
        {
          "details": "Emitted if internal validation failed"
        }
      ]
    },
    "events": {
      "AdminChanged(address,address)": {
        "details": "Emitted when the admin account has changed."
      },
      "BaseRetirementFeeUpdate(uint96,address)": {
        "details": "Emitted whenever fee manager updates retirement rate ",
        "params": {
          "beneficiary": "Address to receive fees",
          "retirementRateBips": "new retirement rate in basis points"
        }
      },
      "BaseWithdrawalFeeUpdate(uint96,address,bool)": {
        "details": "Emitted whenever fee manager updates withdrawal rate ",
        "params": {
          "beneficiary": "Address to receive fees",
          "specific": "Specifies whether new rate applies to specific or any withdrawals",
          "withdrawRateBips": "New withdrawal rate in basis points"
        }
      },
      "BeaconUpgraded(address)": {
        "details": "Emitted when the beacon is changed."
      },
      "Initialized(uint8)": {
        "details": "Triggered when the contract has been initialized or reinitialized."
      },
      "PoolCreated(bytes,address,string,string)": {
        "params": {
          "name": "Name of the pool",
          "policy": "Pool's deposit policy in bytes",
          "pool": "Address of newly created pool",
          "symbol": "Token symbol of the pool"
        }
      },
      "PoolImplementationAdded(address,address,uint256)": {
        "params": {
          "beaconAddress": "Address of Beacon smart contract",
          "poolImplementation": "Address of newly supported pool implementation",
          "poolIndex": "Index of new pool in set of pool implementations"
        }
      },
      "PoolImplementationRemoved(address,uint256)": {
        "params": {
          "beaconAddress": "Address of Beacon smart contract",
          "poolIndex": "Index of deleted pool in set of pool implementations"
        }
      },
      "PoolImplementationUpgraded(address,address,uint256)": {
        "params": {
          "beaconAddress": "Address of Beacon smart contract",
          "newPoolImplementation": "Address of new pool implementation",
          "poolIndex": "Index of new pool in set of pool implementations"
        }
      },
      "PoolsBaseURIChanged(string,string)": {
        "params": {
          "newBaseURI": "Pools' updated base token URI",
          "oldBaseURI": "Pools' previous base token URI"
        }
      },
      "RoleAdminChanged(bytes32,bytes32,bytes32)": {
        "details": "Emitted when `newAdminRole` is set as ``role``'s admin role, replacing `previousAdminRole` `DEFAULT_ADMIN_ROLE` is the starting admin for all roles, despite {RoleAdminChanged} not being emitted signaling this. _Available since v3.1._"
      },
      "RoleGranted(bytes32,address,address)": {
        "details": "Emitted when `account` is granted `role`. `sender` is the account that originated the contract call, an admin role bearer except when using {AccessControl-_setupRole}."
      },
      "RoleRevoked(bytes32,address,address)": {
        "details": "Emitted when `account` is revoked `role`. `sender` is the account that originated the contract call:   - if using `revokeRole`, it is the admin role bearer   - if using `renounceRole`, it is the role bearer (i.e. `account`)"
      },
      "Upgraded(address)": {
        "details": "Emitted when the implementation is upgraded."
      }
    },
    "kind": "dev",
    "methods": {
      "acceptOwnership()": {
        "details": "The new owner accepts the ownership transfer."
      },
      "addPoolImplementation(address)": {
        "details": "emits PoolImplementationAdded ",
        "params": {
          "newPoolImplementation": "New pool implementation address to support"
        }
      },
      "computePoolAddress(bytes32)": {
        "details": "Requirements:     - Policy hash must exist in existing pools ",
        "params": {
          "policyHash": "Policy hash of pool to compute address of"
        },
        "returns": {
          "poolAddress": "Address of deployed pool"
        }
      },
      "constructor": {
        "params": {
          "_uniswapFactory": "Address of Uniswap V3 Factory",
          "_usdc": "Address of USDC token"
        }
      },
      "deployNewBasePool((uint56[2],uint32,uint32,uint32,uint32),string,string,uint160)": {
        "details": "Pool is deployed via ERC-1967 proxy to deterministic address derived from      hash of Deposit Policy Requirements:     - Caller must be owner     - Policy must not exist ",
        "params": {
          "initialSqrtPriceX96": "Initial Uniswap price of pool. If 0, no Uniswap pool will be deployed ",
          "name": "Token name of new pool (per ERC-20)",
          "policy": "Deposit Policy for new pool",
          "symbol": "Token symbol of new pool (per ERC-20)"
        },
        "returns": {
          "newPool": "Address of newly created pool"
        }
      },
      "deployNewPool(uint256,bytes4,bytes,string,string,uint160)": {
        "details": "initData must omit method selector, name and symbol. These arguments      are encoded automatically as:        selector  initData  name     symbol      (bytes4)  (bytes)   (bytes)  (bytes)     Requirements:     - Caller must be owner     - Policy must not exist     - Version must be valid pool implementation index Throws PoolExists(address pool) on failure ",
        "params": {
          "initData": "Initializer data (excluding method selector, name and symbol)",
          "initSelector": "Method selector of initializer",
          "initialSqrtPriceX96": "Initial Uniswap price of pool. If 0, no Uniswap pool will be deployed ",
          "name": "New pool's token name",
          "symbol": "New pool's token symbol",
          "version": "Index of pool implementation to deploy"
        },
        "returns": {
          "newPool": "address of newly created pool"
        }
      },
      "eligiblePoolsForToken(uint256)": {
        "details": "Runs in O(n) with respect to number of pools and does not support      a max count. This should only be used by off-chain services and      should not be called by other smart contracts due to the potentially      unlimited gas that may be spent. ",
        "params": {
          "tokenId": "EAT token ID to check for eligible pools "
        },
        "returns": {
          "pools": "List of pool addresses token meets eligibility criteria"
        }
      },
      "getPoolAtIndex(uint256)": {
        "details": "Throw NoPool() on failure ",
        "params": {
          "index": "Index of the deployed pool in set of pools"
        },
        "returns": {
          "pool": "Address of pool in set"
        }
      },
      "getRoleAdmin(bytes32)": {
        "details": "Returns the admin role that controls `role`. See {grantRole} and {revokeRole}. To change a role's admin, use {_setRoleAdmin}."
      },
      "grantRole(bytes32,address)": {
        "details": "Grants `role` to `account`. If `account` had not been already granted `role`, emits a {RoleGranted} event. Requirements: - the caller must have ``role``'s admin role. May emit a {RoleGranted} event."
      },
      "hasFeeManagerRole(address)": {
        "details": "Checks if account has pool fee manager roll ",
        "params": {
          "account": "Account to check fee manager roll against"
        }
      },
      "hasRole(bytes32,address)": {
        "details": "Returns `true` if `account` has been granted `role`."
      },
      "initialize(address,address,address,address,address,string)": {
        "details": "UUPS initializer to set feilds, setup access control roles,     transfer ownership to initial owner, and add an initial pool ",
        "params": {
          "_feeBeneficiary": "Address to receive all pool fees",
          "_feeManager": "Address of initial fee manager. May be zero address",
          "_owner": "Address to receive initial ownership of contract",
          "_poolImplementation": "Address containing Jasmine Pool implementation",
          "_poolManager": "Address of initial pool manager. May be zero address",
          "_tokensBaseURI": "Base URI of used for ERC-1046 token URI function"
        }
      },
      "owner()": {
        "details": "Returns the address of the current owner."
      },
      "pendingOwner()": {
        "details": "Returns the address of the pending owner."
      },
      "poolsBaseURI()": {
        "details": "Used by pools to return their respect tokenURI functions"
      },
      "proxiableUUID()": {
        "details": "Implementation of the ERC1822 {proxiableUUID} function. This returns the storage slot used by the implementation. It is used to validate the implementation's compatibility when performing an upgrade. IMPORTANT: A proxy pointing at a proxiable contract should not be considered proxiable itself, because this risks bricking a proxy that upgrades to it, by delegating to itself until out of gas. Thus it is critical that this function revert if invoked through a proxy. This is guaranteed by the `notDelegated` modifier."
      },
      "readdPoolImplementation(uint256)": {
        "details": "emits PoolImplementationAdded ",
        "params": {
          "implementationsIndex": "Index of pool to undo removal"
        }
      },
      "removePoolImplementation(uint256)": {
        "details": "Marks a pool implementation as deprecated. This is a soft delete      preventing new pool deployments from using the implementation while      allowing upgrades to occur. emits PoolImplementationRemoved ",
        "params": {
          "implementationsIndex": "Index of pool to remove "
        }
      },
      "renounceRole(bytes32,address)": {
        "details": "Revokes `role` from the calling account. Roles are often managed via {grantRole} and {revokeRole}: this function's purpose is to provide a mechanism for accounts to lose their privileges if they are compromised (such as when a trusted device is misplaced). If the calling account had been revoked `role`, emits a {RoleRevoked} event. Requirements: - the caller must be `account`. May emit a {RoleRevoked} event."
      },
      "revokeRole(bytes32,address)": {
        "details": "Revokes `role` from `account`. If `account` had been granted `role`, emits a {RoleRevoked} event. Requirements: - the caller must have ``role``'s admin role. May emit a {RoleRevoked} event."
      },
      "setBaseRetirementRate(uint96)": {
        "details": "Requirements:     - Caller must have fee manager role emits BaseRetirementFeeUpdate ",
        "params": {
          "newRetirementRate": "New base rate for retirements in basis points"
        }
      },
      "setBaseWithdrawalRate(uint96)": {
        "details": "Requirements:     - Caller must have fee manager role emits BaseWithdrawalFeeUpdate ",
        "params": {
          "newWithdrawalRate": "New base rate for withdrawals in basis points"
        }
      },
      "setBaseWithdrawalSpecificRate(uint96)": {
        "details": "Requirements:     - Caller must have fee manager role     - Specific rate must be greater than base rate emits BaseWithdrawalFeeUpdate ",
        "params": {
          "newWithdrawalRate": "New base rate for withdrawals in basis points"
        }
      },
      "setFeeBeneficiary(address)": {
        "details": "Requirements:     - Caller must have fee manager role     - New beneficiary cannot be zero address emits BaseWithdrawalFeeUpdate & BaseRetirementFeeUpdate ",
        "params": {
          "newFeeBeneficiary": "Address to receive all pool JLT fees"
        }
      },
      "supportsInterface(bytes4)": {
        "details": "See {IERC165-supportsInterface}."
      },
      "transferOwnership(address)": {
        "details": "Starts the ownership transfer of the contract to a new account. Replaces the pending transfer if there is one. Can only be called by the current owner."
      },
      "updateImplementationAddress(address,uint256)": {
        "details": "emits PoolImplementationUpgraded ",
        "params": {
          "newPoolImplementation": "New address to replace",
          "poolIndex": "Index of pool to replace"
        }
      },
      "updatePoolsBaseURI(string)": {
        "details": "No validation is done on the new URI. Onus is on caller to ensure the new      URI is valid emits PoolsBaseURIChanged ",
        "params": {
          "newPoolsURI": "New base endpoint for pools to point to"
        }
      },
      "upgradeTo(address)": {
        "custom:oz-upgrades-unsafe-allow-reachable": "delegatecall",
        "details": "Upgrade the implementation of the proxy to `newImplementation`. Calls {_authorizeUpgrade}. Emits an {Upgraded} event."
      },
      "upgradeToAndCall(address,bytes)": {
        "custom:oz-upgrades-unsafe-allow-reachable": "delegatecall",
        "details": "Upgrade the implementation of the proxy to `newImplementation`, and subsequently execute the function call encoded in `data`. Calls {_authorizeUpgrade}. Emits an {Upgraded} event."
      }
    },
    "stateVariables": {
      "FEE_MANAGER_ROLE": {
        "details": "Access control roll for pool fee management"
      },
      "POOL_MANAGER_ROLE": {
        "details": "Access control roll for managers of pool implementations and deployments"
      },
      "UNISWAP_FEE_TIER": {
        "details": "Default fee tier for Uniswap V3 pools. Default is 0.3%"
      },
      "_deprecatedPoolImplementations": {
        "details": "Mapping of pool implementation versions to whether they are deprecated"
      },
      "_poolBeacons": {
        "details": "Pool beacon proxy addresses containing pool implementations"
      },
      "_poolVersions": {
        "details": "Mapping of Deposit Policy (aka pool init data) hash to _poolImplementations      index. Used to determine CREATE2 address"
      },
      "_pools": {
        "details": "List of pool deposit policy hashes. As pools are deployed via create2,      address of a pool from the hash can be computed as needed."
      },
      "_poolsBaseURI": {
        "details": "Base API route from which pool information may be obtained "
      },
      "baseRetirementRate": {
        "details": "Default fee for retirements across pools. May be overridden per pool"
      },
      "baseWithdrawalRate": {
        "details": "Default fee for withdrawals across pools. May be overridden per pool"
      },
      "baseWithdrawalSpecificRate": {
        "details": "Default fee for withdrawing specific EATs from pools. May be overridden per pool"
      },
      "feeBeneficiary": {
        "details": "Address to receive fees"
      },
      "uniswapFactory": {
        "details": "Address of Uniswap V3 Factory to automatically deploy JLT liquidity pools"
      },
      "usdc": {
        "details": "Address of USDC contract used to create UniSwap V3 pools for new JLTs"
      }
    },
    "title": "Jasmine Pool Factory",
    "version": 1
  },
  "userdoc": {
    "events": {
      "PoolCreated(bytes,address,string,string)": {
        "notice": "Emitted when a new Jasmine pool is created "
      },
      "PoolImplementationAdded(address,address,uint256)": {
        "notice": "Emitted when new pool implementations are supported by factory "
      },
      "PoolImplementationRemoved(address,uint256)": {
        "notice": "Emitted when a pool implementations is removed "
      },
      "PoolImplementationUpgraded(address,address,uint256)": {
        "notice": "Emitted when a pool's beacon implementation updates "
      },
      "PoolsBaseURIChanged(string,string)": {
        "notice": "Emitted whenever the pools' base token URI is updated"
      }
    },
    "kind": "user",
    "methods": {
      "addPoolImplementation(address)": {
        "notice": "Used to add a new pool implementation "
      },
      "computePoolAddress(bytes32)": {
        "notice": "Utility function to calculate deployed address of a pool from its         policy hash "
      },
      "constructor": {
        "notice": "Constructor to set immutable external addresses "
      },
      "deployNewBasePool((uint56[2],uint32,uint32,uint32,uint32),string,string,uint160)": {
        "notice": "Deploys a new pool with given deposit policy "
      },
      "deployNewPool(uint256,bytes4,bytes,string,string,uint160)": {
        "notice": "Deploys a new pool from list of pool implementations "
      },
      "eligiblePoolsForToken(uint256)": {
        "notice": "Gets a list of Jasmine pool addresses that an EAT is eligible         to be deposited into. "
      },
      "getPoolAtIndex(uint256)": {
        "notice": "Used to obtain the address of a pool in the set of pools - if it exists "
      },
      "poolsBaseURI()": {
        "notice": "Base API endpoint from which a pool's information may be obtained         by appending token symbol to end "
      },
      "readdPoolImplementation(uint256)": {
        "notice": "Used to undo a pool implementation removal "
      },
      "removePoolImplementation(uint256)": {
        "notice": "Used to remove a pool implementation "
      },
      "renounceOwnership()": {
        "notice": "Renouncing ownership is deliberately disabled"
      },
      "setBaseRetirementRate(uint96)": {
        "notice": "Allows pool fee managers to update the base retirement rate across pools "
      },
      "setBaseWithdrawalRate(uint96)": {
        "notice": "Allows pool fee managers to update the base withdrawal rate across pools "
      },
      "setBaseWithdrawalSpecificRate(uint96)": {
        "notice": "Allows pool fee managers to update the base withdrawal rate across pools "
      },
      "setFeeBeneficiary(address)": {
        "notice": "Allows pool fee managers to update the beneficiary to receive pool fees         across all Jasmine pools "
      },
      "totalPools()": {
        "notice": "Returns the total number of pools deployed"
      },
      "updateImplementationAddress(address,uint256)": {
        "notice": "Allows owner to update a pool implementation "
      },
      "updatePoolsBaseURI(string)": {
        "notice": "Allows pool managers to update the base URI of pools "
      }
    },
    "notice": "Deploys new Jasmine Reference Pools, manages pool implementations and         controls fees across the Jasmine protocol",
    "version": 1
  },
  "storageLayout": {
    "storage": [
      {
        "astId": 1043,
        "contract": "contracts/JasminePoolFactory.sol:JasminePoolFactory",
        "label": "_initialized",
        "offset": 0,
        "slot": "0",
        "type": "t_uint8"
      },
      {
        "astId": 1046,
        "contract": "contracts/JasminePoolFactory.sol:JasminePoolFactory",
        "label": "_initializing",
        "offset": 1,
        "slot": "0",
        "type": "t_bool"
      },
      {
        "astId": 3455,
        "contract": "contracts/JasminePoolFactory.sol:JasminePoolFactory",
        "label": "__gap",
        "offset": 0,
        "slot": "1",
        "type": "t_array(t_uint256)50_storage"
      },
      {
        "astId": 525,
        "contract": "contracts/JasminePoolFactory.sol:JasminePoolFactory",
        "label": "_owner",
        "offset": 0,
        "slot": "51",
        "type": "t_address"
      },
      {
        "astId": 645,
        "contract": "contracts/JasminePoolFactory.sol:JasminePoolFactory",
        "label": "__gap",
        "offset": 0,
        "slot": "52",
        "type": "t_array(t_uint256)49_storage"
      },
      {
        "astId": 434,
        "contract": "contracts/JasminePoolFactory.sol:JasminePoolFactory",
        "label": "_pendingOwner",
        "offset": 0,
        "slot": "101",
        "type": "t_address"
      },
      {
        "astId": 513,
        "contract": "contracts/JasminePoolFactory.sol:JasminePoolFactory",
        "label": "__gap",
        "offset": 0,
        "slot": "102",
        "type": "t_array(t_uint256)49_storage"
      },
      {
        "astId": 4488,
        "contract": "contracts/JasminePoolFactory.sol:JasminePoolFactory",
        "label": "__gap",
        "offset": 0,
        "slot": "151",
        "type": "t_array(t_uint256)50_storage"
      },
      {
        "astId": 39,
        "contract": "contracts/JasminePoolFactory.sol:JasminePoolFactory",
        "label": "_roles",
        "offset": 0,
        "slot": "201",
        "type": "t_mapping(t_bytes32,t_struct(RoleData)34_storage)"
      },
      {
        "astId": 334,
        "contract": "contracts/JasminePoolFactory.sol:JasminePoolFactory",
        "label": "__gap",
        "offset": 0,
        "slot": "202",
        "type": "t_array(t_uint256)49_storage"
      },
      {
        "astId": 1025,
        "contract": "contracts/JasminePoolFactory.sol:JasminePoolFactory",
        "label": "__gap",
        "offset": 0,
        "slot": "251",
        "type": "t_array(t_uint256)50_storage"
      },
      {
        "astId": 1340,
        "contract": "contracts/JasminePoolFactory.sol:JasminePoolFactory",
        "label": "__gap",
        "offset": 0,
        "slot": "301",
        "type": "t_array(t_uint256)50_storage"
      },
      {
        "astId": 11377,
        "contract": "contracts/JasminePoolFactory.sol:JasminePoolFactory",
        "label": "_pools",
        "offset": 0,
        "slot": "351",
        "type": "t_struct(Bytes32Set)10054_storage"
      },
      {
        "astId": 11382,
        "contract": "contracts/JasminePoolFactory.sol:JasminePoolFactory",
        "label": "_poolVersions",
        "offset": 0,
        "slot": "353",
        "type": "t_mapping(t_bytes32,t_uint256)"
      },
      {
        "astId": 11386,
        "contract": "contracts/JasminePoolFactory.sol:JasminePoolFactory",
        "label": "_poolBeacons",
        "offset": 0,
        "slot": "354",
        "type": "t_struct(AddressSet)10175_storage"
      },
      {
        "astId": 11391,
        "contract": "contracts/JasminePoolFactory.sol:JasminePoolFactory",
        "label": "_deprecatedPoolImplementations",
        "offset": 0,
        "slot": "356",
        "type": "t_mapping(t_uint256,t_bool)"
      },
      {
        "astId": 11412,
        "contract": "contracts/JasminePoolFactory.sol:JasminePoolFactory",
        "label": "baseWithdrawalRate",
        "offset": 0,
        "slot": "357",
        "type": "t_uint96"
      },
      {
        "astId": 11415,
        "contract": "contracts/JasminePoolFactory.sol:JasminePoolFactory",
        "label": "baseWithdrawalSpecificRate",
        "offset": 12,
        "slot": "357",
        "type": "t_uint96"
      },
      {
        "astId": 11418,
        "contract": "contracts/JasminePoolFactory.sol:JasminePoolFactory",
        "label": "baseRetirementRate",
        "offset": 0,
        "slot": "358",
        "type": "t_uint96"
      },
      {
        "astId": 11421,
        "contract": "contracts/JasminePoolFactory.sol:JasminePoolFactory",
        "label": "feeBeneficiary",
        "offset": 12,
        "slot": "358",
        "type": "t_address"
      },
      {
        "astId": 11428,
        "contract": "contracts/JasminePoolFactory.sol:JasminePoolFactory",
        "label": "_poolsBaseURI",
        "offset": 0,
        "slot": "359",
        "type": "t_string_storage"
      }
    ],
    "types": {
      "t_address": {
        "encoding": "inplace",
        "label": "address",
        "numberOfBytes": "20"
      },
      "t_array(t_bytes32)dyn_storage": {
        "base": "t_bytes32",
        "encoding": "dynamic_array",
        "label": "bytes32[]",
        "numberOfBytes": "32"
      },
      "t_array(t_uint256)49_storage": {
        "base": "t_uint256",
        "encoding": "inplace",
        "label": "uint256[49]",
        "numberOfBytes": "1568"
      },
      "t_array(t_uint256)50_storage": {
        "base": "t_uint256",
        "encoding": "inplace",
        "label": "uint256[50]",
        "numberOfBytes": "1600"
      },
      "t_bool": {
        "encoding": "inplace",
        "label": "bool",
        "numberOfBytes": "1"
      },
      "t_bytes32": {
        "encoding": "inplace",
        "label": "bytes32",
        "numberOfBytes": "32"
      },
      "t_mapping(t_address,t_bool)": {
        "encoding": "mapping",
        "key": "t_address",
        "label": "mapping(address => bool)",
        "numberOfBytes": "32",
        "value": "t_bool"
      },
      "t_mapping(t_bytes32,t_struct(RoleData)34_storage)": {
        "encoding": "mapping",
        "key": "t_bytes32",
        "label": "mapping(bytes32 => struct AccessControlUpgradeable.RoleData)",
        "numberOfBytes": "32",
        "value": "t_struct(RoleData)34_storage"
      },
      "t_mapping(t_bytes32,t_uint256)": {
        "encoding": "mapping",
        "key": "t_bytes32",
        "label": "mapping(bytes32 => uint256)",
        "numberOfBytes": "32",
        "value": "t_uint256"
      },
      "t_mapping(t_uint256,t_bool)": {
        "encoding": "mapping",
        "key": "t_uint256",
        "label": "mapping(uint256 => bool)",
        "numberOfBytes": "32",
        "value": "t_bool"
      },
      "t_string_storage": {
        "encoding": "bytes",
        "label": "string",
        "numberOfBytes": "32"
      },
      "t_struct(AddressSet)10175_storage": {
        "encoding": "inplace",
        "label": "struct EnumerableSet.AddressSet",
        "members": [
          {
            "astId": 10174,
            "contract": "contracts/JasminePoolFactory.sol:JasminePoolFactory",
            "label": "_inner",
            "offset": 0,
            "slot": "0",
            "type": "t_struct(Set)9860_storage"
          }
        ],
        "numberOfBytes": "64"
      },
      "t_struct(Bytes32Set)10054_storage": {
        "encoding": "inplace",
        "label": "struct EnumerableSet.Bytes32Set",
        "members": [
          {
            "astId": 10053,
            "contract": "contracts/JasminePoolFactory.sol:JasminePoolFactory",
            "label": "_inner",
            "offset": 0,
            "slot": "0",
            "type": "t_struct(Set)9860_storage"
          }
        ],
        "numberOfBytes": "64"
      },
      "t_struct(RoleData)34_storage": {
        "encoding": "inplace",
        "label": "struct AccessControlUpgradeable.RoleData",
        "members": [
          {
            "astId": 31,
            "contract": "contracts/JasminePoolFactory.sol:JasminePoolFactory",
            "label": "members",
            "offset": 0,
            "slot": "0",
            "type": "t_mapping(t_address,t_bool)"
          },
          {
            "astId": 33,
            "contract": "contracts/JasminePoolFactory.sol:JasminePoolFactory",
            "label": "adminRole",
            "offset": 0,
            "slot": "1",
            "type": "t_bytes32"
          }
        ],
        "numberOfBytes": "64"
      },
      "t_struct(Set)9860_storage": {
        "encoding": "inplace",
        "label": "struct EnumerableSet.Set",
        "members": [
          {
            "astId": 9855,
            "contract": "contracts/JasminePoolFactory.sol:JasminePoolFactory",
            "label": "_values",
            "offset": 0,
            "slot": "0",
            "type": "t_array(t_bytes32)dyn_storage"
          },
          {
            "astId": 9859,
            "contract": "contracts/JasminePoolFactory.sol:JasminePoolFactory",
            "label": "_indexes",
            "offset": 0,
            "slot": "1",
            "type": "t_mapping(t_bytes32,t_uint256)"
          }
        ],
        "numberOfBytes": "64"
      },
      "t_uint256": {
        "encoding": "inplace",
        "label": "uint256",
        "numberOfBytes": "32"
      },
      "t_uint8": {
        "encoding": "inplace",
        "label": "uint8",
        "numberOfBytes": "1"
      },
      "t_uint96": {
        "encoding": "inplace",
        "label": "uint96",
        "numberOfBytes": "12"
      }
    }
  }
}